:020000040000FA
:100000007086012029020000690200000D02000034
:100010006D0200006F02000071020000000000008D
:10002000000000000000000000000000730200005B
:100030007502000000000000770200007902000055
:100040007B0200007B0200007B0200007B020000BC
:100050007B0200007B0200007B0200007B020000AC
:100060007B0200007B0200007B0200007B0200009C
:100070007B0200007B0200007B0200007B0200008C
:100080007B0200007B0200007B0200007B0200007C
:100090007B0200007B0200007B0200007B0200006C
:1000A0007B0200007B0200007B0200007B0200005C
:1000B0007B0200007B0200007B0200007B0200004C
:1000C000811800007B0200007B0200007B02000020
:1000D000FD190000B11A00007B0200007B02000045
:1000E0007B0200007B0200007B0200007B0200001C
:1000F0007B0200007B0200007B0200007B0200000C
:100100007B0200007B0200007B0200007B020000FB
:100110007B0200007B0200007B0200007B020000EB
:100120007B0200007B0200007B0200007B020000DB
:100130007B0200007B0200007B0200007B020000CB
:100140007B0200007B0200006D0D0000E50B00004B
:100150007B0200007B0200007B0200007B020000AB
:100160007B0200007B0200007B0200007B0200009B
:100170007B0200007B0200007B0200007B0200008B
:100180007B0200007B0200007B0200007B0200007B
:100190007B0200007B0200007B0200007B0200006B
:1001A0007B0200007B0200007B0200007B0200005B
:1001B0007B0200007B0200007B0200007B0200004B
:1001C0007B0200007B0200007B0200007B0200003B
:1001D0007B0200007B0200007B0200007B0200002B
:1001E0007B0200007B0200007B0200007B0200001B
:1001F0007B020000DFF810D000F01AF90048004739
:100200006D350000AFF30080708601200420714638
:10021000084202D0EFF3098001E0EFF30880714655
:10022000004A10470D0E000014484FF059010160BC
:100230004FF0160101604FF08801016010484168DD
:1002400041F4804141600F48416841F00201416042
:10025000416841F0040141600B48804707484FF076
:100260000001016009480047FEE7FEE7FEE7FEE700
:10027000FEE7FEE7FEE7FEE7FEE7FEE700010040DF
:100280000002004000700040A1160000F5010000CF
:100290002DE9F05F0546002092469B4688460646BB
:1002A000814640241BE0284641464746224600F04E
:1002B00076F853465A46C01A914110D31146184653
:1002C000224600F05DF82D1A67EB01084F462246E2
:1002D0000120002100F054F817EB00094E41201EC8
:1002E000A4F10104DFDC484631462A464346BDE816
:1002F000F09F40EA01039B0703D009E008C9121FE1
:1003000008C0042AFAD203E011F8013B00F8013BCF
:10031000521EF9D27047D2B201E000F8012B491EFB
:10032000FBD270470022F6E710B513460A46044692
:100330001946FFF7F0FF204610BD421C10F8011BC4
:100340000029FBD1801A704730B5054600200346CE
:1003500000E05B1C934205D2EC5CC85C201A01D122
:10036000002CF6D130BD70B5064601F001FD0468E1
:1003700005460A220021304600F021F82C6070BDAD
:10038000202A04DB203A00FA02F100207047914055
:10039000C2F1200320FA03F3194390407047202A4A
:1003A00004DB203A21FA02F00021704721FA02F31F
:1003B000D040C2F1200291400843194670472DE910
:1003C000F04791460F4680460446002614F8015B2C
:1003D0002DB100F03FF80068405DC007F6D12B2D2D
:1003E00002D02D2D18D0641E4A463946204600F012
:1003F00035F827B13968A14201D1C7F800807105ED
:100400004FF002040BD54042002803DD01F0B0FCA0
:100410000460A007BDE8F08746F48066E4E70028A2
:10042000F8DA01F0A5FC04606FF00040F2E700008C
:10043000064C074D06E0E06840F0010394E8070031
:1004400098471034AC42F6D3FFF7D8FE3CED0000DD
:100450005CED00000048704724E700002DE9F05FE4
:1004600082460078002715468B460AF10104B946FA
:10047000302801D09DB113E014F8010B0127782832
:1004800003D0582801D045B10AE00DB1102D07D195
:100490000027102514F8010B02E0082500E00A25CA
:1004A0000026B0460EE005FB080005FB06F101271B
:1004B00001EB10461FFA80F8B6F5803F00D3B9462D
:1004C00014F8010B294600F018F80028EBDABBF10C
:1004D000000F05D00FB1641E00E05446CBF8004079
:1004E000B9F1000F06D001F043FC02210160C81EE3
:1004F000BDE8F09F48EA0640FAE73A2800D23038D3
:1005000020F02002412A01D3A2F13700884201D312
:100510004FF0FF30704770B58C1810F8015B15F084
:10052000070301D110F8013B2A1106D110F8012B65
:1005300003E010F8016B01F8016B5B1EF9D12B078A
:1005400005D40023521E0DD401F8013BFAE710F840
:10055000013BCB1A921C03E013F8015B01F8015B2D
:10056000521EF9D5A142D8D3002070BD4FF0804073
:10057000D0F8401241F48031C0F8401270470000BA
:1005800000F01F0201219140034A800F02EB80001E
:1005900002680A4302607047040200402DE9F84FE8
:1005A0000D460446FFF7E2FF4FF08040484ED0F87A
:1005B0000012C4B141F00401C0F80012102000F094
:1005C000EBF94FF400200090424843492844B346D9
:1005D00088426DD84FF000094FF0FF324F464E462B
:1005E000AE46012015E041F00101C0F800120120E3
:1005F00000F0D2F90020E6E7F2B3032839D004284E
:1006000002D0022805D102E04FEA8E0501E04FEA50
:100610004E0502236AB3BBFBF3F1304CDFF8BCC0DC
:100620000C44CCF1000C644520D80224C1F35D0ACF
:10063000DFF8A0C00AFB04F101EB0C08DFF8A0C052
:10064000E0450ED8B1EB950F02D9A1EB950101E081
:10065000C1EB9501914204D20A009946274606460D
:1006600004D040F20121641C8C42E1D95B1C202B98
:10067000D0D9401C042800E000E0BDD919480099F9
:1006800000EB8630184A084302EB49210843B91EA3
:1006900008434FF08041C1F84002042000F07CF98B
:1006A00006FB09F6BBFBF6F078434000BDE8F88F87
:1006B0005CB10E494FF08040C0F84012042000F0B9
:1006C0006BF9BDE8F84F00F081B844F21E21F1E764
:1006D000001BB700800F05FD8074D21A00F7C2FF1F
:1006E000C068780400C0FFFF00FEFFFF1E42080044
:1006F0004FF08041D1F800220243C1F80022704738
:1007000010B500F0A9FF4FF08041D1F83402420744
:10071000134817D0D1F8342202F00702012A13D06F
:10072000D1F8342202F00702022A10D0D1F8342284
:1007300002F00702032A0DD0D1F8341201F00701AC
:1007400004290AD0006810BD0068400810BD006888
:10075000800810BD0068C00810BD0068000910BD09
:100760000000002010B500F077FF4FF08041D1F875
:10077000340210F0700F144817D0D1F83422C2F3AD
:100780000212012A13D0D1F83422C2F30212022A33
:1007900010D0D1F83422C2F30212032A0DD0D1F8BE
:1007A0003412C1F3021104290AD0006810BD006898
:1007B000400810BD0068800810BD0068C00810BD6A
:1007C0000068000910BD00000000002008B510A15D
:1007D0000020096800914FF08041D1F8401211F4D7
:1007E000A02F13D10B488A0310D4C1F30800C1F322
:1007F0008132094B801C1DF80220C1F3442158436B
:10080000491C11FB02F1B0FBF1F0C00008BD000073
:1008100001020204001BB700C0C62D0070B54FF0E6
:1008200080440646D4F8500200F010051B4886426A
:1008300000D90646D4F8000240F00400C4F80002D3
:10084000102004F5007400F0A7F8206940F00700BC
:100850002061206A20F00F0020622068A4F5007457
:10086000C007314604D00020FFF798FE064608E096
:100870004FF40020FFF792FE0646D4F8500200F035
:1008800010050021022000F00BF82DB9D4F8000269
:1008900020F00400C4F80002304670BD00B0710BB7
:1008A0002DE9F0414FF080440746D4F850020E463F
:1008B00000F01005D4F8000240F00400C4F8000273
:1008C000102004F5007400F067F8206940F007007C
:1008D0002061206A20F00F0030432062206920F060
:1008E000070038432061A4F5007400F0B5FE002D28
:1008F00005D1D4F8000220F00400C4F80002BDE8DD
:10090000F0810000F0B510F47F3F2ED04FF080430F
:10091000D3F8F431DFF878C0DFB21D4BC0F3814467
:100920000C3B6FEA90450CF1040603EB8403012FA6
:1009300002D0022C0DD001E0022C02D0AC070AD06C
:100940000AE0C343DC06134B06D000F01F041D2C45
:1009500002D0634600E033461C68C0F38725C0F32D
:100960004416B540AC4314431C60420E52070ED0EF
:10097000084BC0F30172183B03EB82021368C0F30B
:100980004264C0F304508440A3430B431360F0BDA2
:100990002C0200402802004070B505460B480C4E62
:1009A0000124006841080020A207306001E0491ED0
:1009B00006D0D2F8503235EA0300F8D109B103E08D
:1009C00000244FF0FF303060204670BD0000002052
:1009D000C407002010B58A888C7852BA13040A889C
:1009E000C97852BA120442EA04220A43064941F87D
:1009F0003020091D41F83030034908394A68012385
:100A000083401A434A6010BD08B000400E4A0F4BA5
:100A100040EA0120126840F42021B2FBF3F20C48B6
:100A20009201C0F89810D0F89810890302D5521E90
:100A3000F9D102E00AB1002101E04FF0FF31054A8F
:100A40001160D0F8940070470000002040420F0071
:100A500000B00040C807002010B50F4B0F4C1B68BA
:100A6000B3FBF4F30E4C9B01C4F8942040EA012040
:100A700040F43020C4F89800D4F89800800302D5E0
:100A80005B1EF9D102E00BB1002001E04FF0FF3016
:100A90000449086010BD00000000002040420F0023
:100AA00000B00040C807002010B5044600F060F90F
:100AB00000F0DEF8204600F055F908480649C0F875
:100AC000AC100749C0F89010162140F8301B40F2D6
:100AD000EE51816710BD0000118C051100B000407F
:100AE0002000400070B53C4900204FF400420860EF
:100AF0000121FFF7B1FF394E0A21394D3068B0FBB3
:100B0000F1F405E001210020FFF780FF000402D589
:100B1000641EF7D153E0ECB3346801E0641E4ED09C
:100B200001210846FFF772FF4007F7D540F2E112B6
:100B300001210420FFF790FF01210020FFF766FF4D
:100B400040F4007201210020FFF786FF3068440066
:100B500001E0641E33D001210846FFF757FF8006ED
:100B6000F7D5346801E0641E29D001210846FFF75B
:100B70004DFF4007F7D501210520FFF747FFC105CD
:100B800009D555F8900F40F480102860286840F48B
:100B900080200AE013E001060AD555F8900F40F4D2
:100BA00080102860286820F480202860002070BD14
:100BB000400655F8900F20F48010E6D4F1E755F880
:100BC000900F20F480102860286820F4802028608E
:100BD0004FF0FF3070BD0000C8070020000000206B
:100BE00000B0004010B50549054800F00BF800289A
:100BF00002D000F027F8F6E710BD00007C000020CE
:100C00003019002070B50D4B0546002053F8B02F69
:100C100094B21C60120501D5801E70BD084A13698C
:100C20001A68002AF9DB140CE406F6D592B20A60C1
:100C300028461969FFF75DFB012070BD00B0004038
:100C4000C807002008490869026942604269C26019
:100C5000026842F000420260C06808610349002057
:100C6000C1F8A40070470000C807002000B0004091
:100C700070B51648144AC0F88C20154800210B4660
:100C80004FF0004402F16005026101EB410042F8BF
:100C90003040C1EB411606EB811602EBC00005EBBC
:100CA000061646604668066183604E1C06F0030621
:100CB00006EB460602EBC606C660C6684661491CDE
:100CC0000429E2D370BD00001446012000B00040AA
:100CD000C807002070B50D4D0E460346EC68002095
:100CE0002168002910DB324619466068FFF701FBD6
:100CF000A6602068064940F000402060E068E86097
:100D00000020C1F8A000012070BD0000C80700202D
:100D100000B00040104A10B5D2F8B01000200F4BC0
:100D20000B40C2F8B030C90101D5801E10BDD2F809
:100D3000CC300B4CA1680A68002A0BDB8A68120CC5
:100D4000120700D5401C0A694A604A69CA60114608
:100D50008B42F0D1A16010BD00B000400000FFEF59
:100D6000C807002001460020FFF734BEFFF7D2BFBE
:100D700070B51948174AC0F8882018490020044661
:100D80008A60CA604B6802F160050BB1072100E080
:100D90000F2100EB400642F83610C0EB401101EB8A
:100DA000801105EB011600EB400102EBC1014E6022
:100DB0004E680E618C60461C06F0030606EB460684
:100DC00002EBC606CE60CE684E61401C0428DCD320
:100DD00070BD0000345E012000B00040C807002054
:100DE000F0B500230127032507FA03F48C4309D14A
:100DF00006685C0005FA04FC26EA0C0602FA04F414
:100E0000264306605B1C102BEED3F0BD044603A006
:100E100000F08AFF204604F04DF9FEE7496E2048B5
:100E2000617264204661756C742048616E646C6503
:100E3000720A000000F01F02012191404009800069
:100E400000F1E020C0F80011704700F01F020121FE
:100E500091404009800000F1E020C0F80011704787
:100E60002DE9FF410E4604469846174619460120D3
:100E70000A9D04F069F88DF80070C4F30742C4F3CA
:100E80000721E0B256B1230E8DF801308DF8022013
:100E90008DF803108DF80400052406E08DF801207C
:100EA0008DF802108DF8030004240B4E706820F0BA
:100EB00010007060404600F0B3FB2146684604F025
:100EC00081F8706840F010007060002D02D040463C
:100ED00004F056F8BDE8FF810070004008B501211C
:100EE0000B460091D8220021FFF7BAFF08BD000091
:100EF0002DE9FF5F88460EA99246044691E8050851
:100F0000244E129D9946716821F0100171608DF890
:100F10000000104600F084FB0121684604F052F8FE
:100F2000C4F30742C4F30721E0B26F46B8F1000FE3
:100F30000AD0230E8DF800308DF801208DF80210B4
:100F40008DF80300042406E08DF800208DF80110D0
:100F50008DF802000324584600F062FB21466846E3
:100F600004F030F80021084601E07854491C6D1E59
:100F7000FBD2684604F026F8119800F037FB514682
:100F8000484603F083FF706840F010007060BDE8D1
:100F9000FF9F0000007000402DE9FF4F85B0044620
:100FA000DDE914A998461546C0B252FA84F201212F
:100FB000DDF84CB0B2F5807F0ED8CDE90391CDE9D4
:100FC00001BA1298009043462A462046069900F03E
:100FD00095F909B0BDE8F08FC0F5807601AF012327
:100FE0004A465146584687E80F00129800904346FB
:100FF00032462046069900F081F9A719AC1B15E08E
:101000004FF48075AC4200D225460120CDE9039013
:10101000CDE901BA1298009008EB06032A4638463B
:10102000069900F06BF92F44641B2E44002CE7D185
:10103000CFE700002DE9FE433E4C80464FF0FF35E0
:10104000606820F02000606066278DF8007060689E
:1010500020F010006060206820F4421040F402107C
:1010600020600121684603F0ADFF606840F0100089
:10107000606099268DF80060606820F01000606064
:10108000206820F4421040F40210206001216846DC
:1010900003F098FF606840F0100060608DF8007009
:1010A000606820F010006060206820F4421040F476
:1010B000004020600121684603F084FF606840F032
:1010C000100060608DF80060606820F010006060C3
:1010D000206820F4421040F400402060012168465E
:1010E00003F070FF606840F010006060B8F1000F1E
:1010F0000DD0002001210290084603F025FF0122B7
:10110000114602A800F048F9012003F039FF01223E
:10111000032101A800F03AF807489DF804200021B7
:10112000435C9A4200D10025491C0529F8D3284682
:10113000BDE8FE8300700040E0070020114808B5BC
:10114000416889B241F480314160C16821F4E021F5
:10115000C160C16841F48011C160816C0A4A21F00C
:10116000F851114381640120FFF764FF002807D183
:1011700001220321684600F009F8012000F082F8FE
:1011800008BD00000070004000000108F8B50646E8
:101190000EA00F4C0068009060680D46174620F0C6
:1011A00010006060104600F03BFA0121684603F031
:1011B00009FF384600F01AFA2946304603F066FE69
:1011C000606840F010006060F8BD00009F00000003
:1011D00000700040F8B506460EA00F4C0068009065
:1011E00060680D46174620F010006060104600F061
:1011F00017FA0121684603F0E5FE384600F0F6F9DB
:101200002946304603F042FE606840F010006060FE
:10121000F8BD00000500000000700040F8B506466B
:101220000EA00F4C0068009060680D46174620F035
:1012300010006060104600F0F3F90121684603F0E9
:10124000C1FE384600F0D2F92946304603F01EFEB2
:10125000606840F010006060F8BD000035000000DC
:101260000070004000B585B0134601220192029241
:10127000039204920B2200920A460021FFF738FEE7
:1012800005B000BD7CB504460246032101A8FFF766
:101290007DFF9DF80400EF282ED19DF80500402821
:1012A0002AD19DF80600162826D12246012168463B
:1012B000FFF790FF6D4622460121681CFFF7AEFF45
:1012C0009DF80100214620F040008DF8010001202A
:1012D00003F03AFE22460421684600F079F82046E1
:1012E00003F04EFE224601216846FFF773FF2246B7
:1012F0000121681CFFF792FF7CBD00002DE9FF5F14
:101300000F46DDE90E8904469A4693464946012078
:10131000129E03F019FE1F4D686820F010006860EF
:10132000484600F07DF98DF800800121684603F001
:1013300049FEC4F30742C4F30721E0B257B1230EBC
:101340008DF800308DF801208DF802108DF8030023
:10135000042406E08DF800208DF801108DF80200BD
:101360000324109800F05CF92146684603F02AFE39
:10137000119800F055F95946504603F023FE68686D
:1013800040F010006860002E02D0484603F0F8FDDF
:10139000BDE8FF9F0070004038B50BA10B4C0968F9
:1013A000009100788DF80100606820F01000606006
:1013B000104600F035F90221684603F003FE60682C
:1013C00040F01000606038BD010000000070004077
:1013D00038B50DA10D4C0968009101788DF8011008
:1013E00040788DF80200606820F0100060601046C0
:1013F00000F016F90321684603F0E4FD606840F050
:101400001000606038BD0000010000000070004066
:101410001FB5134601220224CDE900420292039235
:101420000A460021FFF7B8FD1FBD000010B5592185
:101430008C0716208822C4F80011C4F80001C4F8F3
:101440000021D4F80031002BF5D04FF04020D0F827
:10145000401121F0F001C0F84011D4F8000240F032
:101460000100C4F800020120FFF796FA2348FFF7B5
:10147000D5F91120C4F83402D4F8080240F48030C1
:10148000C4F80802D4F8080240F40030C4F8080296
:10149000D4F8140220F04070C4F81402D4F81402F6
:1014A00020F04060C4F8140200F0D6F8206B20F061
:1014B0007F402063206B40F0EE402063206B6FF391
:1014C0000F002063206B48F688010843206300204A
:1014D000C4F800010A4C2046FFF752F800221146DA
:1014E0002046FFF70FFA074C2046FFF749F8204641
:1014F0000022BDE810401146FFF704BA00B0710B9E
:101500000200805E0300C05E70B500F04FF84FF03F
:101510004025D5F8400120F0F000C5F84001012039
:10152000A435FFF7E5F80120FFF736FA0021084659
:10153000FFF7B6F91A48FFF771F911208407C4F8CC
:101540003402184E3046FFF71BF800221146304691
:10155000FFF7D8F90E20FFF713F800F07DF8206BA5
:1015600020F07F402063206B40F0EE402063206C31
:1015700000F07F402064206C0B49084320642868F9
:1015800040F004002860686840F254516FF30B008B
:10159000401C084368600020C4F8000170BD0000D2
:1015A00000B0710B103D805733333300592110B513
:1015B000880716228823C0F80011C0F80021C0F85F
:1015C0000031D0F80041002CF5D010BD06498A69E1
:1015D0001202FCD40A2804D10D220A608A69120280
:1015E000FCD4086070470000000007400B49012848
:1015F0000AD002280CD0042805D1086820F4421033
:1016000040F4001008607047086820F44210F9E7C1
:10161000086820F4421040F48010F3E700700040A6
:101620000C4901280AD002280ED0042805D10868E8
:1016300020F4421040F4021008607047086820F45B
:10164000421040F40040F7E7086820F4421040F4EC
:101650008410F1E70070004010B5FFF7B7F80E4AAC
:101660004FF080439060D3F8101201F00701022977
:1016700003D002F10C0050F82100D3F8201201F041
:101680000F01491CB0FBF1F0044910600844490007
:10169000B0FBF1F0506010BD0000002020A1070059
:1016A0001A48016841F4700101601948C16C21F0C9
:1016B0000F0141F00801C1644FF08040D0F898124A
:1016C00041F48021C0F89812D0F8081241F00201CC
:1016D000C0F808120F49D1F8042102F0F732C1F81E
:1016E0000421D1F8082102F0F732C1F80821D0F81E
:1016F000081221F00201C0F808124FF04020D0F883
:10170000401121F0F001C0F84011704788ED00E071
:1017100000C00040001004402DE9F0410D46044691
:1017200000F056F800273E46276067612549884249
:1017300005D84FF47A72954205D2154606E0642D1D
:1017400001D2642502E08D4200D90D46884208D8B6
:101750001D494FF47A72B1FBF0F15543B5FBF1F13D
:1017600007E0B0FBF1F169430F0E02D07A1CB1FB28
:10177000F2F1616047F080412160144D2968B1FBAE
:10178000F0F0401C02D000BF401EFCD1204600F00B
:101790001FF829687F1CB1FBF0F179430BE0E26888
:1017A000824207D13246761C8A4205D94FF0FF307B
:1017B000BDE8F0810026E06822689201EFD40020A5
:1017C000F6E7000040420F0000CA9A3B00000020EC
:1017D00010B588B00446202217496846FEF789FDF7
:1017E000164A174B9003944204D1D0F81402C0F368
:1017F000022110E09C4204D1D0F81402C0F302315F
:1018000009E01049D0F814028C4202D1C0F3024121
:1018100001E0C0F30251022903D05DF8210008B0B5
:1018200010BD944201D09C4202D1FEF769FFF6E759
:10183000FEF798FFF3E7000050E6000000000540C7
:10184000000105400010054070B516460D460446DF
:10185000FFF7BEFF0023B6EB500F01D9022206E0CE
:10186000B0FBF6F2130E02D0591CB2FBF1F21D438D
:10187000256062605B1C5A43B0FBF2F070BD000053
:101880002DE9F04157480168491C016003F03AF81E
:101890000125554E554C012801D1606820B103F057
:1018A000BFF9012811D016E003F0FEF80128A06866
:1018B00001D1401CA0600A2804DD03F0F5F80128DE
:1018C00000D1656002F0E8F930E03078072802D0F6
:1018D00002F0B2FB2AE0206868B903F023FA50B1A5
:1018E000256030780A2821D007281FD009281DD06C
:1018F00002F0BCFC1AE003F039FA01281BD0307862
:1019000002281BD0032823D0042824D0052825D062
:10191000062823D0072824D0082825D0092826D037
:101920000A2827D005213248FFF7F6FE03F0FAF91E
:10193000002710B322E002F0A3FCF7E72D4800785F
:10194000012802D002F06EFBF0E702F07FFBEDE72A
:1019500002F06AFCEAE702F023F9E7E702F0A6F9F1
:10196000E4E702F05BFAE1E702F094FCDEE702F064
:1019700097FADBE702F00EFBD8E7276002F0C2FF20
:1019800008B96760A76030780A2806D002F0C0FF67
:10199000012802D1002004F0C5FD20696061E068E3
:1019A000206103F03DF9E0606169012916D12169E8
:1019B000012913D101280AD103F032F908B902F044
:1019C000E5F86069012809D12069012806D1E0689D
:1019D00020B903F025F908B902F0D8F80648856067
:1019E000BDE8F081740000207D010020300000205F
:1019F000000105407E0100200000054000F008B80D
:101A00004FF4E131014800F0BBB80000000007408E
:101A10002DE9F041134DE869C00521D5124C002293
:101A200010466281114E218901E03254401C8842E7
:101A3000FBDB0F4FA86940040CD405213846FFF7A3
:101A40006BFE2968206F401C206760893154401C60
:101A50006081EFE700F05CFEBDE8F04101F0C0BD41
:101A6000BDE8F081000007407C010020BCB50020EB
:101A7000000105400D4810B5016941F40071016194
:101A8000416941F480714161816821F4702141F420
:101A900040318160416841F015014160FF2100F053
:101AA00021F9BDE810402420FFF7CFB9000007401E
:101AB00000F008B84FF4E131014800F061B80000CF
:101AC000001007402DE9F0471B4DE869C00531D5EE
:101AD0001A4F002107F5DE723970A2F13C04F9605B
:101AE000F8681154401CF8600528F9DB144E914643
:101AF0008846A869400419D42868C1B238780528F6
:101B000001D209F80010401C387006E01E21304652
:101B1000FFF702FEA06B401CA063A869400402D539
:101B2000A06B0528F2DBC4F83880E2E7BDE8F04797
:101B300000F036BCBDE8F087001007407C010020B3
:101B4000000105400D4810B5016941F400710161C3
:101B5000416941F480714161816821F4702141F44F
:101B600040318160416841F015014160FF2100F082
:101B7000B9F8BDE810402520FFF767B9001007400D
:101B80002DE9FF4104464D480F4600250FC88DE85A
:101B90000F004B492E464FF080408C4206D1D0F8C2
:101BA0001412D0F82002C1F301652AE045498C42A5
:101BB00006D1D0F81412D0F82002C1F381652BE0D1
:101BC00041498C4208D1D0F81C12D0F83002C1F340
:101BD000016500F00F0643E03C498C4208D1D0F883
:101BE0001C12D0F83002C1F38165C0F3031637E050
:101BF00037498C4208D1D0F81C12D0F83002C1F31A
:101C00000175C0F303262BE032498C4207D1D0F88E
:101C10001C12D0F830028D0FC0F3033620E02E499D
:101C20008C4204D1D0F8F411C9B2012908D02B4953
:101C30008C4215D1D0F8F411C9B2012909D00FE0B6
:101C4000D0F81C12D0F83002C1F30155C0F303469E
:101C500006E0D0F81C12D0F83002C1F38155860F8F
:101C6000002020630320E060A0681D490840A060B8
:101C7000E846012D02D1FEF7A9FD0190002F1AD0F0
:101C800058F82510761CB1FBF6F000EB5700B0FBBE
:101C9000F7F0801EB0F5803F0AD3B1FBF6F000EB01
:101CA000C700B0FBF7F06FF0010101EB101001E08D
:101CB00040F040506062BDE8FF81000070E6000027
:101CC0000000074000100740002007400030074098
:101CD0000040074000500740006007400070074088
:101CE0000FFFF0FF026A22F0FF020A43026241681E
:101CF00041F4006141607047F0B50446002630466B
:101D00004FF080450CE0002302E05B1CAB4209D29F
:101D1000A7693F02F9D4002E04D10B5C2360401C5C
:101D20009042F0D1F0BD00000FB4054B10B503A9EF
:101D3000044A029800F030F810BC5DF814FB000073
:101D4000FD290000DC0700200FB4084B10B504A9E2
:101D500002AA039800F020F8044602A9002000F02F
:101D600046FA204610BC5DF814FB0000EF2100008D
:101D7000004870472C08002002E008C8121F08C164
:101D8000002AFAD170477047002001E001C1121FFC
:101D9000002AFBD1704700002DE9FF4F8DB00F46A0
:101DA0000546002606E025280BD0DDE90F129047F6
:101DB0006D1C761C28780028F5D111B03046BDE89E
:101DC000F08F0024A246A1460122E94900E0044325
:101DD00015F8013F203B02FA03F00842F7D12878BA
:101DE0002A2810D06FF02F022878A0F1300109299D
:101DF00014D80AEB8A0102EB410144F0020400EB23
:101E0000010A6D1CF0E701CF5FEA000A03D544F434
:101E10000054CAF1000A44F002046D1C28782E28F0
:101E200017D115F8010F44F004042A280ED06FF0E2
:101E30002F022878A0F1300109290AD809EB89017D
:101E400002EB410100EB01096D1CF2E757F8049B1E
:101E50006D1C28786C280FD006DC4C2817D0682819
:101E60000DD06A2814D104E0742810D07A280FD13C
:101E70000DE044F400140AE044F4801401E044F45A
:101E800040146978814202D104F580146D1C6D1CE8
:101E900028786E281ED00CDC632830D004DC0028A3
:101EA0008BD0582811D19FE0642867D069280CD1C5
:101EB00064E073282DD004DC6F2872D0702804D120
:101EC00094E075286ED078286DD0DDE90F12904728
:101ED000761C4BE1C4F30250022806D0032809D037
:101EE000042801CF09D0066040E101CFF117C0E915
:101EF00000613BE101CF068038E1067036E117F85A
:101F0000040B8DF8000000208DF80100EB46012045
:101F100003E057F804BB4FF0FF3061074FF00001BA
:101F200002D40DE008F10101884649450FDA8045E9
:101F3000F8DB1BF808100029F4D108E008F10101D2
:101F400088468142FADB1BF808100029F6D1DDE94A
:101F50000F23AAEB08008146214600F031F93044F6
:101F600000EB080604E0DDE90F121BF8010B9047B7
:101F7000B8F10108F7D221464846F2E00A21C4F33D
:101F800002524FF0000B0891022A04D001CFC11772
:101F9000032A09D00AE0FF1D27F00707F7E802012E
:101FA00008E02CE01EE01FE000B2C117042A01D1B6
:101FB00040B2C117021E71F1000206DA0023D0EB15
:101FC000030063EB01012D2202E0220504D52B2240
:101FD0008DF82420012203E0E20701D02022F7E758
:101FE000904653E00A210BE0102109E010214FF048
:101FF000000B44F004044FF00809089103E00821A5
:102000004FF0000B0891C4F30252022A04D001CF12
:102010000021032A06D006E0FF1D27F00707F7E896
:10202000020103E080B2042A00D1C0B24FF00008E0
:1020300022072BD52A78702A07D0DDF820C08CF033
:10204000100C5CEA0B0C05D00EE040228DF8242029
:10205000012208E050EA010306D030238DF8243035
:102060008DF8252002229046089B83F0080353EA4E
:102070000B030BD150EA010201D1620706D53022D1
:102080008DF824204FF00108A9F101092A78582A77
:1020900004D038A20B9208AA0A920BE03AA2F9E700
:1020A0005B46089AFEF7F4F80B9B9B5C0A9A521E5B
:1020B0000A92137050EA0102F2D10A98ADEB0000C7
:1020C00000F1200B600702D524F4803401E04FF0CA
:1020D0000109D94502DDA9EB0B0000E0002000EB6F
:1020E0000B0141440890AAEB010AE00306D4DDE9A4
:1020F0000F232146504600F063F806444FF00009D4
:1021000008E009A911F80900DDE90F12904709F16B
:102110000109761CC145F4DBE0030CD5DDE90F2392
:102120002146504600F04CF8064404E0DDE90F1269
:1021300030209047761C0899481E08900029F5DC4D
:1021400008E00A980A990078491C0A91DDE90F1203
:102150009047761CBBF10001ABF1010BF1DC21468D
:102160005046DDE90F2300F019F806446D1C21E606
:10217000092801003031323334353637383961625D
:102180006364656600000000303132333435363721
:102190003839414243444546000000002DE9F041F2
:1021A000044600251E461746880404D405E0394637
:1021B0002020B0476D1C641EF9D52846BDE8F0818B
:1021C0002DE9F041044600251E469046C80301D57E
:1021D000302700E02027880404D505E04146384632
:1021E000B0476D1C641EF9D52846BDE8F0810A6829
:1021F000531C0B6010707047084410F8021C0D2926
:1022000003D110F8010C0A2801D0002070470120EA
:102210007047000030B5A5B00C460546402110A817
:10222000FEF780F840216846FEF77CF86B4610AA5E
:102230002146284601F056FCD8B1104CA068FEF7A4
:102240007CF8024610A8A168FEF77EF888B96846B7
:10225000FEF773F8C1B2082320AA684600F010F810
:10226000E068FEF76AF8024620A8E168FEF76CF81D
:1022700010B1002025B030BD0120FBE74800002050
:102280002DE9F0471D4616468A46044600F07AF8C6
:10229000002001460246214B34E0275C3D2F35D01B
:1022A00013F807C0401C275C3D2F31D0DF5D401C78
:1022B00014F80080B8F13D0F2CD013F80880401CB2
:1022C000C14614F80080B8F13D0F25D013F80880FE
:1022D0004FEA8C4C0CEB073C401C0CEB8917474435
:1022E000A94204DA4FEA174C06F801C0491CA9427A
:1022F00004DA4FEA172C06F801C0491CA94201DA9A
:102300007754491C5045C8DBBDE8F0879446C9E7BF
:102310001746CCE79046D2E79046D9E73008002030
:1023200042F2107190FBF1F20A2192FBF1F301FBF2
:102330001323134A10B5303313704FF47A7390FBA4
:10234000F3F393FBF1F401FB143330335370642344
:1023500090FBF3F393FBF1F401FB143330339370F0
:1023600090FBF1F393FBF1F401FB14333033D370A2
:1023700090FBF1F301FB13003030107110BD000031
:10238000500300200449054A00200B5CD054401C37
:102390004028FADB704700003C0100203008002094
:1023A0002DE9F041B84C00252046A178C078FF29DE
:1023B00004D0FF2802D02079FF285AD1B2482178D2
:1023C000B0F8013090F802C003EB8306F700C6783E
:1023D0004078360403EB830246EA0C26520006439B
:1023E000D1297DD01FDCC7297BD012DCC32979D04D
:1023F00008DCAA2944D0C02948D0C12973D0C229F9
:1024000035D146E0C4296FD0C5296ED0C6292ED15A
:10241000A0E0C83909292AD2DFE801F0BDB0B92906
:1024200029C2BFB3C600E22974D010DCD52972D00E
:1024300006DCD22970D0D3296FD0D42917D1C2E0BD
:10244000D6296BD0E0296AD0E12910D1CCE0E62969
:1024500076D006DCE32974D0E42973D0E52906D1CF
:10246000D4E0E7296FD0F0296ED0F1296DD08748EC
:10247000C56025706570A570E5702571BDE8F081B7
:1024800083490870012004F07DF8F2E704F044F875
:10249000EFE704F0B7F86078012806D102F0F4FB0A
:1024A000032802D0002004F0CBF86078022806D17F
:1024B00002F0EAFB042802D0002004F0C1F86078A2
:1024C000032802D1002004F0BBF86078042806D16C
:1024D00002F0DAFB052802D0002004F0B1F805E094
:1024E00066E03FE01CE045E022E02FE06078052850
:1024F00006D102F0C9FB062802D0002004F0A0F8A3
:1025000060780628B5D1002004F09AF8002004F085
:1025100067F8AEE76CE05BE04DE04FE05DE083E044
:10252000104604F0ABF802F0AFFB03283ED1A0E761
:10253000184604F00FF802F0A7FB042836D198E7FC
:102540006BE05CE05EE06BE01EE085E0184603F0C7
:10255000EFFF8EE7384604F06DF802F095FB052892
:1025600024D186E7304604F001F802F08DFB0628FE
:102570001CD17EE7104604F011F87AE703F0C6FF9D
:1025800077E704F011F874E703F0CCFF71E7184621
:1025900003F0FEFF6DE71046B9E704F00BF868E7BB
:1025A000104604F071F864E70028B2D1002018E06A
:1025B00003F0A0FF5DE703F0A3FF5AE7104604F025
:1025C00057F803200DE0184603F0CAFF042008E086
:1025D000384604F029F8052003E0304603F0CCFF2C
:1025E000062004F02DF844E7104604F035F82BE0FF
:1025F000184603F0A9FF29E003F0FEFF39E704F0D5
:102600000DF836E7104604F021F823E0184603F0F1
:1026100095FF15E003F0EAFF2BE703F0F9FF28E749
:10262000104604F01FF824E701280BD002280BD035
:1026300003280BD004280BD005280BD0062888D1FE
:102640000520E7E70020D7E70120D5E70220D3E700
:102650000020DFE70420DDE770B1012889D102F016
:10266000C1FA064602F0B8FA864286D202F0BAFAF9
:10267000401C03F0A5FFFCE602F0B4FA012885D95E
:1026800002F0B0FA401EF4E73803002040030020B7
:102690007D0100202DE9F041FEF736FFFEF786FFB1
:1026A000FEF74CFD4FF4104529461448FDF73AFE5D
:1026B00004F58030114A2946FEF7D4FD0F49104C2D
:1026C00001C92060401C00D120600E4D00224FF453
:1026D000FF7602EBC203002005EBC30380C943F879
:1026E0002070401C1228F9D3521CB242F1D906497D
:1026F0002068086005490860BDE8F08114B6002034
:10270000C007002004260020BC020020EC020020AC
:102710002DE9F04FB54889B00178FF297ED1417885
:10272000FF297BD18178FF2978D1C178FF2975D124
:1027300090F85410682971D1C47E057F90F84D102F
:1027400084EA0502AA4B8B464A4002F00101597106
:1027500090F8532002F001029A7191425ED1017902
:10276000596730F8051F49BAD96741884ABA03F159
:1027700080010A61828852BACA60C28852BA0A606D
:102780000892028952BA4A61428952BA9A6782898A
:1027900052BA0A67C28952BA96464A67C27BDA7051
:1027A000028A52BA8A67428A52BACA67828A56BA7B
:1027B00001F180021660079604F001069667C4F3E3
:1027C00040040696946405F001041466C5F34004C1
:1027D0009C66C5F380041C71C5F3C004D464C5F3C2
:1027E0000014DC65C5F340149460C5F38014ED0952
:1027F0004C609D70058B6DBA15610595458B6DBA62
:1028000055610495858B95FA95FCC2F818C0C58B67
:102810006FBAD761058C6DBA156200E0E3E00395ED
:10282000458C6DBA55620295858C6DBA956201959D
:10283000C58C6DBA15630095058D6EBAD662458D4F
:102840006DBA5563B0F82C8098FA98F8C1F81880E2
:1028500090F82E80C1F83C8090F82F80C1F8488015
:10286000B0F8308098FA98F8C1F84480B0F8328017
:1028700098FA98F8C1F80880B0F8348098FA98F877
:10288000C1F81C8090F83680C1F84C8090F83780F1
:10289000C1F85080B0F8388098FA98F8C1F85480A0
:1028A00090F83A80C1F85C8090F83B80C1F8608075
:1028B000B0F83C8098FA98F8C1F86480B0F83E808F
:1028C00098FA98F8C1F86880B0F8408098FA98F8BB
:1028D000C246C2F80C80B0F8428098FA98F8C2F864
:1028E0005880B0F8448098FA98F8C2F85480B0F84C
:1028F000468098FA98F8C2F83C80C3F864B0B0F803
:102900004930C1465BBA8B62B0F84B10D84649BA21
:10291000516090F84D00906344B1916E81B1D36ED7
:1029200093FBF1F151640021D16608E044B90699A6
:1029300031B1D36E03EB0E01D166916E491C9166E5
:10294000116F2B4B491C8E4651672A490968414437
:1029500019664FF4FF738B469E4500DD5367DFF821
:1029600090E09B4501D9CEF86030F346B8F1FF0FF7
:1029700004D12049DBF86080C1F80080002C32D0FF
:10298000546FDBF860108C422DD199422BD811671F
:102990001164194C01EBC101A7EB0C0344F8313071
:1029A00004EBC101C1E901C7049BCB60059B0B612E
:1029B000019B4B61526C8A61079ACA61009A0A6254
:1029C000089A4A62039A8A62029A4D63C1E90B2906
:1029D0002A18C1E90E263044C1E9100A09B0BDE841
:1029E000F04F02F0C9B909B0BDE8F08FBCB50020C6
:1029F0007C010020C00700200426002010B50446FA
:102A0000FEF7E4FD204610BD40BA70472DE9F04FB7
:102A10000026FBB037463446402166A8FDF782FC0D
:102A2000402146A8FDF77EFC402156A8FDF77AFC20
:102A30004FF4807106A8FDF775FCFB48FB4905685B
:102A40000878B146400605F11C0506D501206870DE
:102A500085F800907BB0BDE8F08F0878DFF8D4A34C
:102A6000DFF8CCB38007AAF1400871D5F24801889D
:102A7000F2487790052906D3F3480522F0A10068B3
:102A8000FDF762FCE0B1DFF8B0B3BBF8000004284A
:102A900007D3ED4C0422EDA12068FDF755FC00287A
:102AA0007AD098F801104046012976D0C8F82890CD
:102AB00098F8010098F80210444608436ED0F2E3FB
:102AC000E1481022E3A10068FDF73EFCD8B1DE48E2
:102AD0000F22E5A10068FDF737FCF0B1DA480622C5
:102AE000E5A10068FDF730FCB8B1D7480922E4A1A0
:102AF0000068FDF729FCC8B198F8000001286BD0E8
:102B000001260627D4E7E149C8F8241040F27E41A7
:102B100001260227C8F82810CAE77799C8F82410B8
:102B200040F2E5310126C8F82810B8E0C64817225F
:102B3000D7A10068FDF708FC40F2B454F0B1C248D8
:102B40002322D9A10068FDF7FFFB40B31B2200E060
:102B5000F0E3BD48DDA10068FDF7F6FB0028A7D132
:102B6000DAF80400FDF7E9FB00F21A5040F21A51BE
:102B7000C8F82800A0422DDADB4820E0DAF804008B
:102B8000FDF7DBFB00F2347040F23471C8F8280026
:102B9000A04205DAD54812E0F4E268E38AE301E0F6
:102BA000D24A12E0DAF80400FDF7C7FB00F25A300F
:102BB00040F25A31C8F82800A04205DACC4800F0AB
:102BC0004FFFC8F824B073E7C94AC8E909210126B4
:102BD00037466DE7C44AF8E79B480A22C5A100685A
:102BE000FDF7B2FB002830D097481A22C4A1006834
:102BF000FDF7AAFB002854D093481A22C7A1006809
:102C0000FDF7A2FB00287DD08F481B22CAA10068D7
:102C1000FDF79AFB002876D08B481C22CDA10068D6
:102C2000FDF792FB00286FD087481B22D1A10068D6
:102C3000FDF78AFB002868D083481D22D4A10068D4
:102C4000FDF782FB002875D0C4E266A800F022FFE1
:102C50000128B8D1DFF8DCB1C8F8249001260BF1C7
:102C60001C0BC8F8289066A8FDF767FB02465BF8C6
:102C7000241066A8FDF768FB20B1641CE4B2132C95
:102C8000F1D315E76B48683050F82400801CC8F871
:102C90002400C74850F82400801EC8F828000427E4
:102CA00006E701F0B7FF022806D0032807D0052861
:102CB00033D002F031F804E001F080FE01E001F0D1
:102CC00045FE769001F0FAFD044601F0DDFF00902C
:102CD00001F0F6FE019001F08BFF029001F08EFFF3
:102CE000799001F091FF789001F094FF0246DDE9C0
:102CF00000030594CDE90330DDE97801CDE9000159
:102D0000444603E00CE025E047E06CE0769B06A833
:102D1000D8F81010FFF718F80DE001F0B5FED0E775
:102D200002F006F8CDF80090034600224446D8F899
:102D3000141075E046E106A8FDF7FFFA034606A861
:102D400000909CA13A48DAF80C20FEF7FDFFC4E998
:102D500009B0ADE60020029001F096FF032804D0F0
:102D6000042805D0062806D114E001F0CBFF01E0CD
:102D700001F02AFE029001F09BFD044601F092FD55
:102D8000009001F081FF019402464446029BD8F86E
:102D9000181024E001F07EFEECE70020029001F024
:102DA0002DFF70B101F02AFF042804D001F026FFA6
:102DB000052803D005E001F073FF01E001F0CCFD30
:102DC000029001F08FFF044601F030FF009001F007
:102DD00015FF0194029BD8F81C100246444606A831
:102DE000FEF7B2FFA7E7002401F00EFF70B101F07B
:102DF0000BFF012804D001F007FF022803D005E0F3
:102E000001F058FF01E001F0B7FD044601F014FFA6
:102E1000009001F0F9FE2346D8F8201002464446FF
:102E200006A8FEF791FF86E708080020E9070020C2
:102E30003009002088000020EC070020146B0000FF
:102E4000474554202F000000FC070020504F5354EA
:102E500000000000474554202F66617669636F6E5D
:102E60002E69636F00000000474554202F696E648F
:102E700065782E68746D6C00474554202F20000043
:102E8000474554202F6373732F00000094660000A1
:102E9000474554202F6373732F636F6D6D6F6E5FA3
:102EA0006373732E63737300474554202F637373EA
:102EB0002F73797374656D5F696E666F726D61747F
:102EC000696F6E5F6373732E63737300474554209D
:102ED0002F6373732F73746F72655F616E645F6CC1
:102EE0006F61642E63737300C678000092710000F6
:102EF000E07D0000474554202F68746D6C2F000062
:102F0000474554202F706172616D657465722F7032
:102F10006167655F312E68746D6C00004745542011
:102F20002F706172616D657465722F706167655F86
:102F3000322E68746D6C0000474554202F7061720A
:102F4000616D657465722F7365635F7669622E6863
:102F5000746D6C00474554202F706172616D65740B
:102F600065722F706F73745F7669622E68746D6C12
:102F700000000000474554202F706172616D657438
:102F800065722F7072655F7669622E68746D6C0071
:102F9000474554202F646174612F77656C64696EB6
:102FA000675F7265636F72642E68746D6C000000F9
:102FB0003C810000257325780D0A25730D0A300D1C
:102FC0000A0D0A00FB4E0A200090FBA13046FEF7D6
:102FD000BBFE06440098401E0190F7A13046FEF764
:102FE000B3FE0644F548006884427DD8204601F0CF
:102FF00079FD0246F2A13046FEF7A6FE06442046C1
:1030000001F0D4FD0246EEA13046FEF79DFE0644D7
:10301000204601F083FD0246E9A13046FEF794FE0A
:103020000644204601F092FD0246E5A13046FEF737
:103030008BFE0644204601F0A1FD0246E0A1304689
:10304000FEF782FE0644204601F00AFC0246DCA19F
:103050003046FEF779FE0644204601F049FC024660
:10306000D7A13046FEF770FE0644204601F002FD6F
:103070000246D3A13046FEF767FE0644204601F023
:1030800037FE0246CEA13046FEF75EFE06442046DD
:1030900001F0B6FB0246CAA13046FEF755FE0644D3
:1030A000204601F0C5FB0246C5A13046FEF74CFEA6
:1030B0000644204601F08CFB0246C1A13046FEF7D3
:1030C00043FE0644204601F0BDFC0246BCA130464A
:1030D000FEF73AFE0644204601F066FC0246B8A11F
:1030E0003046FEF731FE00E024E00644204601F0C1
:1030F000CFFB0246B2A13046FEF726FE064420462C
:1031000001F07AFC0246AEA13046FEF71DFE0644F1
:10311000204601F011FC0246A9A13046FEF714FE3C
:103120000644204601F018FE0246A7A13046FEF7ED
:103130000BFE06440198844201DAA5A100E0A5A196
:103140003046FEF701FE0644641C0098E4B2844257
:10315000FFF643AF9FA13046FEF7F6FD9548FDF719
:10316000ECF8034693480090AFF2B811A0F5006068
:10317000DAF80C20FEF7E8FDC8E909B0002601F0F6
:10318000FBFD95E4192294A12068FDF7DDF850B904
:10319000BBF800102068FFF72FF801284FF001005E
:1031A00006D088F8040098F80000012805D011E046
:1031B00088F8010088F80200F5E710228DA1206848
:1031C000FDF7C2F840B11E228FA12068FDF7BCF8C0
:1031D0000028D6D101266BE4BBF800102068FFF769
:1031E0000BF801282DD088F80190BBF8001056ABE1
:1031F00046AA206800F076FC012826D088F80390C3
:103200001B2289A12068FDF79FF810B31B228DA116
:103210002068FDF799F8F0B11C2291A12068FDF714
:1032200093F8E0B11D2296A12068FDF78DF8C0B19A
:103230001C229BA12068FDF787F8A0B188F80690B2
:1032400036E4012088F80100DAE7012088F803005D
:10325000D6E7012000E0022088F8060028E40320D9
:10326000FAE7042100E0052188F8061020E480F840
:1032700001908178012910D098F806004446B0B139
:10328000BBF8001056AB46AA8D48006800F02AFC37
:10329000012809D084F803900AE480F80290012103
:1032A00088F8041004E421E00120E07000E4C4F890
:1032B000289027E42079C8B1824884F804900188D6
:1032C0007F480068FEF7A6FF48B10120207006463F
:1032D0007D48606240F297200427A06206E077985C
:1032E000606240F2E53001260527A062A07920B196
:1032F000617811B9E17801290CD00EB1607870B312
:10330000A06A00287FF7A6AB01F0A0FD68707BB033
:10331000BDE8F08F01280ED0022811D0032814D068
:10332000042817D005281BD0062784F8069084F8B7
:103330000390E3E728E056A946A802F029FEF4E747
:1033400056A946A802F0CAFEEFE756A946A802F021
:1033500093FFEAE756A946A802F0D6FEE5E704E0A7
:1033600056A946A802F038FFDFE758495AF8270067
:103370000860FCF7E2FF56490880A06A002801DDDA
:103380000320C3E70220C1E70878C00702D108780C
:1033900000070BD50878000704D56878022806D006
:1033A000012805D06878032803D0A9E0D8E091E08F
:1033B00097E09EE0301100205B000000BC0200207E
:1033C000222564222C000000222564220000000037
:1033D0005D2C00005D000000504F5354202F61759C
:1033E0007468656E7469636174696F6E2E68746D5C
:1033F0006C000000504F5354202F706172616D6556
:103400007465722F00000000504F5354202F6670D7
:1034100067612F736176655F706172616D65746558
:10342000722E68746D6C0000504F5354202F7061E1
:1034300072616D657465722F706167655F312E68AA
:10344000746D6C00504F5354202F706172616D6524
:103450007465722F706167655F322E68746D6C00E1
:10346000504F5354202F706172616D657465722FD7
:103470007365635F7669622E68746D6C000000008E
:10348000504F5354202F706172616D657465722FB7
:10349000706F73745F7669622E68746D6C000000E3
:1034A000504F5354202F706172616D657465722F97
:1034B0007072655F7669622E68746D6C0000000042
:1034C000FC070020EC070020FB6E00000008002035
:1034D000EE0700201020087085F8019085F8009014
:1034E0000EE02878401CC0B228700A2808D90220B3
:1034F00005E0D8F82800002802DD01F0A7FC68707C
:1035000098F80500474601287FF401AF87F8059039
:10351000144E642401E0012C03DD2246AFF2601159
:1035200002E02246AFF260113046FEF70DFC641E49
:103530000644002CEFDC0CA13046FEF705FC0948E0
:10354000FCF7FBFE034607480090AFF29851A0F548
:103550000060DAF80C20FEF7F7FBC7E909B0D3E604
:103560000878D4E6301100205D207D00FDF75EFF75
:10357000FEF746FAFEF79EFA4FF08040016C21F00C
:1035800070610164012240211148FDF729FC1149B5
:1035900000200860104C0A224FF000612046FEF720
:1035A00053F9206840F0005020600C490120C1F818
:1035B0000001206840F080402060FEF7C3FAFEF76B
:1035C00059FAFFF767F802F0C7FE02F041FFFCE787
:1035D00080400040984800400000054004E000E0C2
:1035E0002DE9F04FF94A002410465378C66F00F5D4
:1035F000807500F5C071092B7ED04FF4FA600A2B5C
:103600007BD0072B7AD0AF68012F77D0D0690861C3
:103610005069C862DFF8B4C3576B01200CF1800C0D
:10362000022F6CD0032F6BD0042F6AD0052F69D0E6
:10363000062F68D0D76A0C604C60C1E90247EC677E
:103640000C63DCF84070032F71D0042F70D0052F6D
:103650006FD0062F6ED04C61DCF85880C246B8F1AE
:10366000010F68D0BAF1020F75D08C61DCF86C8064
:10367000C146B8F1040F6FD0B9F1050F6DD0CC6120
:1036800092F80280B8F1010F68D1DFF840C30CF165
:10369000800CDCF804C0BCF1010F01D00A2B5DD115
:1036A000CB4B93F800C0BCF1FF0F57D193F801C08A
:1036B000BCF1FF0F52D193F802C0BCF1FF0F4DD106
:1036C00093F803C0BCF1FF0F48D193F85430682B36
:1036D00044D1537992F806C063453FD196468B4654
:1036E000D2F874C0D1F82C80FF23BA4ABA49C44535
:1036F00071D0C024146007E009E015E01CE01EE072
:1037000022E02CE032E03BE0C2F8008083E1686E0A
:10371000012805D14FF4FA7026B1864200D16C66BB
:103720000C6177E7086175E70861506A71E733E07B
:1037300039E03FE045E055E008610F2069E7976A0E
:10374000C1E900748C6004E00C60DCF82070C1E911
:103750000174CC6073E74CE054E05AE06CE10C601B
:103760004C608C60CC60976BEF6769E70C604C60D5
:10377000176B012F02D07F088F60EAE78860E8E7C7
:103780000C604C608C60CC60EC67DCF824700FB18E
:103790000F6356E7086354E7DCF82C80C1F8148007
:1037A0004FF0D3081BE0DCF83080C1F814804FF0F4
:1037B000D40814E0DCF83880C1F814804FF0D50844
:1037C0000DE0DCF83480B8F1010F05D04FEA58085D
:1037D000C1F8148001E025E048614FF0D608C1F837
:1037E000208039E7D2F84480C1F818804FF0E10812
:1037F00005E0D2F84880C1F818804FF0E208C1F81F
:10380000248033E7D2F85080C1F81C804FF0E408E0
:1038100005E0D2F85480C1F81C804FF0E508C1F8EB
:1038200028802DE7DBF810C0B44501D0CD2449E055
:10383000DFF89881DBF80C6008F18008D8F818C030
:10384000664503D0C3242FE01460E4E0DBF8006099
:10385000D8F810C0664501D0C42425E0D8F80CC0C3
:10386000DBF80460B44501D0C5241DE0DEF8186023
:10387000D8F800C0664501D0C62415E0DBF8086022
:10388000D8F814C0664501D0C7240DE04F4ED8F8D3
:1038900008C0366A664501D0C82405E0EE6FD8F846
:1038A0001CC0664505D0C9241460F4B21460340A03
:1038B000CAE7C646DBF830C0D8F828805E46C44563
:1038C00007D0C12414600CF0FF0414604FEA1C24DC
:1038D000BAE7DFF8F8C0DEF83C80DCF83CC0C4454D
:1038E00004D0D2241460C2F800C094E0F0466FB156
:1038F000D8F848C0674504D17769D8F844C067450F
:103900000AD0346A1460DBF8144041E0D8F84870FB
:1039100017B1D026166097E7DFF8B0E0C446D8F8B4
:103920004C80DEF84070474501D0E3241DE0BAF139
:10393000000F0DD0DCF85080C24504D1B769DCF827
:103940005480474509D0746A1460DBF818401FE0C2
:10395000DCF850700FB1E0245BE0DEF84C70DCF86E
:103960005C80F246474503D0E6241460176052E0BD
:10397000B9F1000F10D0DCF86080C14504D1F769BF
:10398000DCF8648047450ED0B46A1460DBF81C4054
:10399000E6B21660240A57E7DCF860701FB1E02435
:1039A0001460042450E7DCF868C0DAF85870BC45AD
:1039B00005D0E7241460FCB214603C0A44E7D5E962
:1039C000177CBC450AD0F024CFE700007C01002022
:1039D000BCB500200000074098480040D5E9137CA2
:1039E000DFF87880E146674598F8048001D1C84542
:1039F0002CD057EA080C4FF0CF0A02D1B9F1010FD1
:103A000006D05FB1012F17D1B9F1000F16D021E018
:103A10005446146010601360086018E0B8F1010F9C
:103A20000AD1776B012F07D1C2F800A01460136090
:103A30002C65CBF834400860BDE8F08FC2F800A0D8
:103A400014601360CBF83440086003E00C60E96C4C
:103A50000129F1D1CBF83400EEE700007C01002011
:103A600070B5064608480D460024426807A108487C
:103A7000FEF76AF9064903E0325D0319641CCA5473
:103A8000AC42F9DB70BD0000880000202573000007
:103A90003009002070B50A24114D002162182B68EE
:103AA0009E5C2E2E06D09A5C4254491C4029F5DBC0
:103AB000002070BD62181A445378682BF8D19378AF
:103AC000742BF5D1D3786D2BF2D113796C2BEFD108
:103AD0000844D2F80110C0F80110012070BD0000A8
:103AE000FC0700202DE9F0430027894684463E4626
:103AF0003D463946384646E01CF807400D2C28D094
:103B00000A2C26D07B2C16D0222C17D0A4F13008FA
:103B1000B8F14A0F30D83A2C30D0F9B1022923D06D
:103B2000032922D0062923D0072922D0012910D029
:103B300005290ED026E061B9012123E071B10129E8
:103B400009D0022905D0032907D0052907D0072964
:103B500007D0002116E0022114E0042112E0062122
:103B600010E00120BDE8F08303219455761C09E0A4
:103B700007215C556D1C05E03A2C03D111B10429D5
:103B800000D105217F1C4F45B6DBEBE70F22024930
:103B90000248FEF7B1B80000C6030020001007403D
:103BA00010B53A4C0D2238492046FEF7A5F800F032
:103BB00079FEFEF7B5FB052235492046FEF79CF855
:103BC000032234492046FEF797F82F490D220D3184
:103BD0002046FEF791F800F06BFEFEF7A1FB0522F0
:103BE0002B492046FEF788F803222A492046FEF793
:103BF00083F801F049F8032822D001F045F80428A1
:103C000028D001F041F805282DD001F03DF81E49DB
:103C100006284FF01102A1F1110120462FD0FEF726
:103C20006BF80020FEF77CFB052219492046FEF7C1
:103C300063F82046BDE8104003221649FEF75CB841
:103C40001149112211392046FEF756F801F05AF8B1
:103C50000A2111E00C49112211392046FEF74CF8D7
:103C600000F0B2FEDEE70849112211392046FEF7C6
:103C700043F800F0EDFF2821B0FBF1F0D2E7FEF7AA
:103C80003BF800F007FFCDE7C20600200010074018
:103C9000500300202C0000200E2202490248FEF7AB
:103CA0002BB8000084060020001007402DE9F041E9
:103CB0005548574B312600783027544C0A250528A3
:103CC0004FF0110204F212419846184659D0FEF7FF
:103CD00013F800F093FF05287ED0277001224B498E
:103CE00044464046FEF708F803224A492046FEF7BC
:103CF00003F80A2248492046FDF7FEFF00F07EFF48
:103D000005287DD000F0CCFFB0FBF5F0FEF708FBF6
:103D10003E49052210312046FDF7EEFF03223D49C2
:103D20002046FDF7E9FF3C490F220A312046FDF706
:103D3000E3FF00F07BFFFEF7F3FA34490522103170
:103D40002046FDF7D9FF032232492046FDF7D4FF74
:103D50003149122219312046FDF7CEFF00F0C2FF93
:103D6000B0FBF5F0FEF7DCFA2849052210312046B9
:103D7000FDF7C2FF2046BDE8F04103222549FDF7CB
:103D8000BBBFFDF7B9FF00F03FFF022831D027701D
:103D900001221E4944464046FDF7AEFF03221D495D
:103DA0002046FDF7A9FF0A221B492046FDF7A4FF84
:103DB00000F02AFF02281ED000F07CFFB0FBF5F0D7
:103DC000FEF7AEFA1149052210312046FDF794FFA7
:103DD00003221049204601E010E011E0FDF78CFFBE
:103DE0000D490F220A312046FDF786FF00F024FF1F
:103DF000B8E72670CCE700F0BFFDE1E726706DE77D
:103E000000F0AAFD82E700007D01002040030020B1
:103E1000001007402C0000206307002010B500F0C0
:103E2000D5FE1B4C01282FD01A4918222046FDF739
:103E300063FF072218492046FDF75EFF00F01EFFD2
:103E4000FEF76EFA1449052267392046FDF754FF44
:103E5000032212492046FDF74FFF0F490722C91FD1
:103E60002046FDF749FF00F02FFDFEF759FA0A49F9
:103E7000052267392046FDF73FFF2046BDE8104088
:103E800003220649FDF738BF02491A221831CDE74F
:103E9000001007408E070020B70300202C000020F0
:103EA00070B5394D092237492846FDF725FF00F046
:103EB000DFFEFEF735FA052234492846FDF71CFFE0
:103EC000032233492846FDF717FF2E4909220931FD
:103ED0002846FDF711FF00F0EDFDFEF721FA05225F
:103EE0002A492846FDF708FF032229492846FDF7FD
:103EF00003FF24490B2220312846FDF7FDFE00F088
:103F000085FDFEF70DFA052220492846FDF7F4FE4F
:103F100003221F492846FDF7EFFE1A490E221231EF
:103F20002846FDF7E9FE00F021FDFEF7F9F903222E
:103F300016492846FDF7E0FE144C2E20103C0122C5
:103F4000207021462846FDF7D7FE104E012221465B
:103F5000F07820702846FDF7CFFE307920700122DE
:103F600021462846FDF7C8FE222020700122214666
:103F70002846FDF7C1FE2846BDE8704003220449EB
:103F8000FDF7BABEDC0600200010074050030020F9
:103F90002C00002010B5204C0C221E492046FDF7B5
:103FA000ABFE00F08BFCFEF7BBF905221B49204657
:103FB000FDF7A2FE03221A492046FDF79DFE174990
:103FC000072259312046FDF797FE00F093FDFEF7DA
:103FD000A7F9052211492046FDF78EFE032210495C
:103FE0002046FDF789FE0D49072252312046FDF794
:103FF00083FE00F027FEFEF793F9052207492046CD
:10400000FDF77AFE2046BDE8104003220449FDF783
:1040100073BE000046070020001007405003002038
:104020002C000020112202490248FDF765BE000065
:104030008A05002000100740102202490248FDF7BF
:104040005BBE0000650600200010074070B500F060
:10405000E1FD0A25704C022833D000F0DBFD032877
:104060003DD000F0D7FD042847D000F0D3FD05284F
:1040700055D000F0CFFD06284FF03C025DD06749D7
:104080002046FDF739FE0A2265492046FDF734FE39
:1040900000F042FEB0FBF5F0FEF742F95F49052261
:1040A00085392046FDF728FE03225E492046FDF7AC
:1040B00023FE00F0EFFD4FF0390278B35849473145
:1040C0004AE056493D2278312046FDF715FE0A2286
:1040D00053492046FDF710FE00F070FCDCE74F4925
:1040E0003D22B5312046FDF707FE0A224C49204605
:1040F000FDF702FE00F02AFCCEE7494951228D3936
:104100002046FDF7F9FD0A2245492046FDF7F4FD5A
:1041100000F0A8FD2821B0FBF1F0BDE71AE040490E
:104120003C223C392046FDF7E7FD0A223C49204667
:10413000FDF7E2FD00F0A8FCAEE7384920463C312F
:10414000FDF7DAFD0A2236492046FDF7D5FD00F0DD
:1041500037FD9FE7324980312046FDF7CDFD00F065
:1041600053FD4FF0150210B12D49B93101E02C4932
:10417000CE312046FDF7C0FD00F040FD4FF01702A4
:1041800010B12749E33101E02549FA312046FDF716
:10419000B3FD234912220A312046FDF7ADFD00F0A0
:1041A0008FFCFEF7BDF81D49052285392046FDF735
:1041B000A3FD03221B492046FDF79EFD18490C2252
:1041C0001C312046FDF798FD00F078FBFEF7A8F8BB
:1041D0001249052285392046FDF78EFD032211493B
:1041E0002046FDF789FD0E490E2228312046FDF7B5
:1041F00083FD00F0FDFCB0FBF5F0FEF791F80749F8
:10420000052285392046FDF777FD2046BDE8704040
:1042100003220449FDF770BD00100740D5030020BC
:10422000540500202C00002010B50D4C0F220B4926
:104230002046FDF761FD00F07BFD0A21B0FBF1F0A7
:10424000FEF76EF8052207492046FDF755FD20468A
:10425000BDE8104003220449FDF74EBDA206002030
:1042600000100740500300202C0000200F220249BC
:104270000248FDF741BD0000750600200010074010
:10428000102202490248FDF737BD000092060020C7
:10429000001007402DE9F041DFF8FC830922FD49B9
:1042A0004046FDF729FD00F09DFCFEF739F8FB4D77
:1042B0000322A5F10F06A8783070E878707028798D
:1042C000B07031464046FDF717FD741E2F20207058
:1042D000012221464046FDF70FFD00F07DFCFEF770
:1042E0001FF8A8783070E87870702879B0700322D1
:1042F000611C4046FDF700FD222626700122214662
:104300004046FDF7F9FC0322E5494046FDF7F4FC81
:1043100000F0DCFB27460922786004F57D714046F9
:10432000FDF7EAFC7868002803DA2D21217040426D
:1043300001E02B212170D949B86001221039404693
:10434000FDF7DAFCB868B0F57A7F7DDAFDF7E8FFB3
:10435000B868632807DDA878D04920700122103999
:104360004046FDF7C9FCB868092807DDE878CB4965
:104370002070012210394046FDF7BEFC2879C7495C
:104380002070012210394046FDF7B6FCC349267063
:10439000012210394046FDF7AFFC0322C0494046D8
:1043A000FDF7AAFCBD490722491D4046FDF7A4FCC4
:1043B00000F0EEFBFDF7B4FF0522B8494046FDF7DB
:1043C0009BFC0322B6494046FDF796FCB349072201
:1043D0000C314046FDF790FC00F092FBFDF7A0FF8A
:1043E0000522AE494046FDF787FC0322AC49404612
:1043F000FDF782FCA949072213314046FDF77CFCFA
:1044000000F096FBFDF78CFF0522A4494046FDF71E
:1044100073FC0322A2494046FDF76EFC9F49072228
:104420001A314046FDF768FC00F09AFBFDF778FF73
:1044300005229A494046FDF75FFC03229849404611
:10444000FDF75AFC072200E0ACE1944940462131D7
:10445000FDF752FC00F0F6F9FDF762FF05228F49E7
:104460004046FDF749FC03228D494046FDF744FCD8
:104470008A49072228314046FDF73EFC00F02AFA1F
:10448000FDF74EFF052285494046FDF735FC032226
:1044900083494046FDF730FC804907222F314046D2
:1044A000FDF72AFC00F0D8FAFDF73AFF05227B4918
:1044B0004046FDF721FC032279494046FDF71CFCEC
:1044C0007449092236394046FDF716FC00F0FCFB22
:1044D000FDF726FF022271494046FDF70DFC6F49AA
:1044E0002E272770012210394046FDF705FCA878D9
:1044F0006A492070012210394046FDF7FDFBE8783B
:1045000066492070012210394046FDF7F5FB2879F5
:1045100062492070012210394046FDF7EDFB5F49EA
:104520002670012210394046FDF7E6FB03225C4964
:104530004046FDF7E1FB594907223D314046FDF772
:10454000DBFB00F04FF9FDF7EBFE05225349404637
:10455000FDF7D2FB032252494046FDF7CDFB4F4900
:10456000072236314046FDF7C7FB00F053F9FDF74F
:10457000D7FE052249494046FDF7BEFB03224849C4
:104580004046FDF7B9FB454908226E314046FDF72C
:10459000B3FB00F00FF9FDF7C3FE05223F4940468B
:1045A000FDF7AAFB03223E494046FDF7A5FB3B4928
:1045B00007224B314046FDF79FFB00F035FAFDF72F
:1045C000AFFE052235494046FDF796FB03223449EC
:1045D0004046FDF791FB2F49092224394046FDF75B
:1045E0008BFB00F0D3F9FDF79BFE03222B494046DD
:1045F000FDF782FB29492770012210394046FDF75B
:104600007BFBE87825492070012210394046FDF7F0
:1046100073FB287921492070012210394046FDF7AB
:104620006BFB1E492670012210394046FDF764FBE2
:1046300003221B494046FDF75FFB164909221B393F
:104640004046FDF759FB00F015F9FDF769FE03221E
:1046500012494046FDF750FB1049277001221039DE
:104660004046FDF749FBE8780C49207001221039DB
:104670004046FDF741FB2879084920700122103996
:104680004046FDF739FB05490122267010394046A6
:1046900008E000003D070020001007405003002004
:1046A0002C000020FDF728FB03223F494046FDF780
:1046B00023FB09223D494046FDF71EFB00F08EF921
:1046C000FDF72EFE03223A494046FDF715FB384917
:1046D0002770012210394046FDF70EFBE878344977
:1046E0002070012210394046FDF706FB2879304939
:1046F0002070012210394046FDF7FEFA2C49267041
:10470000012210394046FDF7F7FA032226494046B8
:10471000FDF7F2FA254909221B314046FDF7ECFA74
:1047200000F0FCF8FDF7FCFD032221494046FDF7AF
:10473000E3FA1F492770012210394046FDF7DCFAE1
:10474000E8781B492070012210394046FDF7D4FA61
:10475000287917492070012210394046FDF7CCFA1C
:1047600013492670012210394046FDF7C5FA03228D
:104770000D494046FDF7C0FA0D4907224431404635
:10478000FDF7BAFA00F0DAFAFDF7CAFD052208498A
:104790004046FDF7B1FA4046BDE8F0410322024928
:1047A000FDF7AABA3020EAE52C000020100700200F
:1047B0005003002004480549006C00EBC00001EBE9
:1047C000C000C06A704700007C0200200426002060
:1047D000034900EBC00001EBC000C06A7047000055
:1047E0000426002004480549006C00EBC00001EBE2
:1047F000C000406A704700007C02002004260020B0
:10480000034900EBC00001EBC000406A70470000A4
:104810000426002004480549006C00EBC00001EBB1
:10482000C000806A704700007C020020042600203F
:10483000034900EBC00001EBC000806A7047000034
:104840000426002004480549006C00EBC00001EB81
:10485000C0004069704700007C0200200426002050
:10486000034900EBC00001EBC00040697047000045
:104870000426002004480549006C00EBC00001EB51
:10488000C000806B704700007C02002004260020DE
:10489000034900EBC00001EBC000806B70470000D3
:1048A000042600200148406F704700007C01002072
:1048B0000148C06B70470000FC0100200148406FB8
:1048C000704700007C0100200148406D70470000E7
:1048D0007C02002004480549006C00EBC00001EB9D
:1048E000C0008069704700007C0200200426002080
:1048F000034900EBC00001EBC00080697047000075
:10490000042600200148806E704700007C010020D2
:104910000148006E704700007C02002004480549F1
:10492000006C00EBC00001EBC000006C70470000A1
:104930007C02002004260020034900EBC00001EBAC
:10494000C000006C70470000042600200148C068C9
:1049500070470000FC0100200348016E052901D0CA
:1049600000207047406E7047FC0100200148C06F76
:1049700070470000FC0100200348016D022901D0AE
:1049800000207047406D7047FC0100200448054935
:10499000006C00EBC00001EBC000406B70470000F2
:1049A0007C02002004260020034900EBC00001EB3C
:1049B000C000406B704700000426002001480069D9
:1049C00070470000FC0100200348816C042901D0DD
:1049D00000207047406C7047FC01002004480549E6
:1049E000006C00EBC00001EBC000C06B7047000022
:1049F0007C02002004260020034900EBC00001EBEC
:104A0000C000C06B70470000042600200449044821
:104A10008031C06F896F084301D00248C06B704776
:104A20007C0100207C02002004480549006C00EB5A
:104A3000C00001EBC000006B704700007C0200204A
:104A400004260020034900EBC00001EBC000006B0E
:104A5000704700000426002004480549006C00EB64
:104A6000C00001EBC000C069704700007C0200205C
:104A700004260020034900EBC00001EBC000C06920
:104A800070470000042600200148006B70470000BA
:104A90007C0100200348816C062901D0002070476A
:104AA000406B7047FC0100200148C06E7047000059
:104AB0007C0100200148806F70470000FC0100204D
:104AC0000148006870470000FC01002003480449C9
:104AD000006C00EBC00051F8300070477C020020F1
:104AE00004260020024900EBC00051F83000704756
:104AF000042600200148806F704700007C010020E0
:104B000004480549006C00EBC00001EBC000806860
:104B1000704700007C02002004260020034900EBBF
:104B2000C00001EBC0008068704700000426002030
:104B300004480549006C00EBC00001EBC000C068F0
:104B4000704700007C02002004260020034900EB8F
:104B5000C00001EBC000C0687047000004260020C0
:104B600004480549006C00EBC00001EBC00000697F
:104B7000704700007C02002004260020034900EB5F
:104B8000C00001EBC000006970470000042600204F
:104B900004480549006C00EBC00001EBC000406810
:104BA000704700007C02002004260020034900EB2F
:104BB000C00001EBC00040687047000004260020E0
:104BC0000148806A70470000FC0100200148C06C69
:104BD000704700007C0200200148006E7047000012
:104BE0007C0100200148006C704700007C0200201E
:104BF0000148806870470000FC0100200148006EF9
:104C000070470000FC0100200148006D7047000063
:104C1000FC0100200148406B704700007C0100202F
:104C200001488068704700007C0200200148C06D88
:104C300070470000FC0100200148C06C7047000074
:104C4000FC0100200148406F70470000FC0100207B
:104C50000348816C052901D000207047406C7047E3
:104C6000FC0100200148C06970470000FC010020E1
:104C700001484068704700007C0200200148806DB8
:104C8000704700007C0200200148806C70470000E3
:104C9000FC0100200148006C70470000FC0100206E
:104CA0000348016E042901D000207047406E704710
:104CB000FC0100200348016D012901D0002070474C
:104CC000406D7047FC01002004480549006C00EB72
:104CD000C00001EBC000006A704700007C020020A9
:104CE000042600200148806E70470000FC0100206F
:104CF000034900EBC00001EBC000006A70470000F0
:104D0000042600200348816C032901D0002070474D
:104D1000406C7047FC01002001488069704700002A
:104D2000FC0100200148C06D704700007C0100209C
:104D30000148C06F704700007C010020044805490D
:104D4000006C00EBC00001EBC000406C704700003D
:104D50007C02002004260020034900EBC00001EB88
:104D6000C000406C70470000042600200148806CA1
:104D7000704700007C0200202DE9F05F4FF4803581
:104D80002846FCF7ABF80024A0464FF080492E4699
:104D90004FF4104739462948FBF7C4FA2819274A27
:104DA0003946FCF75FFA2549002042464B46BA4691
:104DB000D1F800C0BCF1FF3F01D0C3F80021001DB5
:104DC000091D5045F4D304F51044B442E2D3DFF892
:104DD00070B000241949DBF80000DFF8689001C1C9
:104DE0000020194F4FF4FF7C1AE0C8B100EBC0035C
:104DF000002207EBC30353F82280521C41F8048BB6
:104E0000122AF8D3401C6045EFD928190B4A5146A5
:104E1000FCF7FEFA04F51044B442DBD3BDE8F09F82
:104E200000EBC008002209EBC80353F82280521C93
:104E300041F8048B122AF8D3E4E7000014B60020EE
:104E4000DC01002080E300000426002030B50C4A7D
:104E50000C4D1046916A40F2B4530B4C406A994293
:104E6000286008DD238000F2B450A1F2B451C2E9F9
:104E70000901032030BD218000209062022030BD56
:104E80004800002000080020EE070020F8B50022AE
:104E9000002954D02A4C102901D304230AE00C29FC
:104EA00001D3032306E0082901D3022302E00429E9
:104EB00022D30123256825F440052560256845F4A3
:104EC000F855256025681F4E25F4C04506EB43368E
:104ED00035432560656845F0010565606568ED0747
:104EE000FCD107E004EB8305ED688618091F121D4D
:104EF00035605B1E002BF5D1002920D00429CAD2D1
:104F0000236823F44003236023686FF0FF0523F434
:104F1000F85305EBC1252B432360236823F4C043DA
:104F20002360636843F0010363606368DB07FCD1BF
:104F3000236910440A4669460093FBF7DAF9F8BD85
:104F40000070004000E0FFFF38B50022009208B179
:104F5000062000E00420094C8DF80000606820F075
:104F6000100060600846FCF75BFB0121684600F01A
:104F700029F8606840F01000606038BD00700040A3
:104F80002DE9F84307464FF0FF3500240C4E4FF44F
:104F90007A780DE03A4601216846FCF71BF99DF846
:104FA000000040F30000401C01D0002505E0641C17
:104FB0003168B1FBF8F0A042ECD82846BDE8F88390
:104FC000000000202DE9F8430C4606460025DFF8D6
:104FD000DC8066E00021102C01D304210AE00C2CB7
:104FE00001D3032106E0082C01D3022102E0042CA6
:104FF00000D301210846424609E073191F680346A1
:10500000401E9B001B1F13441F62241F2D1D0028E0
:10501000F3D1B1B1106820F440001060106840F482
:10502000F85010601068224B20F4C04003EB41316F
:1050300008431060506840F0010050605068C0079D
:10504000FCD1002C2FD0042CC4D2274671193A462B
:105050006846FBF74EF92544009900244046C8F8FD
:105060002010D8F8001021F44001C8F80010D8F83A
:1050700000106FF0FF0221F4F85102EBC722114338
:10508000C8F80010D8F8001021F4C041C8F800108A
:10509000D8F8041041F00101C8F804104168C907AC
:1050A000FCD1002C96D1BDE8F883000000700040D0
:1050B00000E0FFFF10B50446016810A0FCF734FEC5
:1050C00011A06168FCF730FE12A0A168FCF72CFE6D
:1050D00013A0E168FCF728FE14A02169FCF724FE68
:1050E00015A06169FCF720FE16A0A169FCF71CFE63
:1050F000E169BDE8104016A0FCF716BE7230202012
:105100003D20307825780A00723120203D2030780B
:1051100025780A00723220203D20307825780A0058
:10512000723320203D20307825780A0072313220F9
:105130003D20307825780A006C7220203D203078A0
:1051400025780A00706320203D20307825780A00F9
:10515000707372203D20307825780A00C27852FAA8
:1051600081F3154AD370837803EB1123937043784E
:105170005370007810709078B0EB112F07D25078F0
:10518000401C5070507810B91078401C1070D078C6
:10519000C9B288420ED29078401C90709078002856
:1051A00008D15078401C50705078002802D11078F7
:1051B000401C1070704700001008002010B5094C0A
:1051C0000146206A0830FFF7C9FF04F128010A7878
:1051D000206A02724A7842728A788272C978C172F1
:1051E00010BD0000E8070020F0B4214F39880020EE
:1051F0002A2902D23880F0BC704738801D484FF40D
:1052000000760146858ACC8C0B8D1B49B5F5807FD5
:105210000A8849880BD0B542EDD19442EBD18B423C
:10522000E9D1F0BC00F116011C3000F005B9944240
:10523000E1D18B42DFD18682D0F8163003620F4E67
:10524000448B8484B568C0F81650B6894683C0F88C
:105250000650468103608480838BC384C38B03859F
:105260008283C1834FF4C16181812A20C2E700009B
:10527000EC07002054760120F60700201C080020CF
:105280000E4930B408880E3808800E4B0C490E4C7D
:1052900018884A8B258802400540AA420CD15888BC
:1052A0008A8B6388024003409A4205D101F11A00BB
:1052B00030BC891D00F0C0B830BC7047EC0700203E
:1052C0005476012018080020F60700202DE9F05F31
:1052D000414B404F414A1888F98BB2F8009001EADF
:1052E000000509EA00023D483D4C9542468806D13A
:1052F0003A8C588802EA00033040834205D039488E
:10530000018821804088608001E021806280344AE9
:105310004FF0000A121F344B82F800A025886488E1
:105320005046C0B200EB400103EB8101B1F800C070
:10533000654503D1B1F802C0644504D0401CC0B239
:1053400010700828EDD31078DFF8A0B09046082838
:1053500013D0486838600889B880D8F80810C7F8B2
:105360000610B8F80C0078810820B881BBF800104E
:1053700058460E310180BDE8F09FFF2206211548F6
:10538000FAF7C9FFC7F820A0A7F824A0D8F80800AA
:10539000C7F80600B8F80C107981C7F816007983B1
:1053A000FD843C85A7F81C90FE834FF48070B88282
:1053B000F881082038820620B8740420F8744FF46D
:1053C000C160B88103480A49363008602A2158462E
:1053D000D0E700005476012018080020F6070020CE
:1053E0002008002014080020107E0120EC07002077
:1053F000FC070020F0B50E4B0E4D9878401CC2B251
:105400009A7000241C70197801EB410005EB8000B4
:10541000068847883E4304D0867A961B782E00DBA8
:105420000460491CC8B218700828ECD3F0BD000015
:105430001C080020107E0120F0B5294F4FF0000E0F
:10544000DFF8A0C087F800E03B7803EB43020CEBE9
:105450008202158875B1548864B10688AE4209D1BC
:105460004588A54206D10868506088881081B878C0
:105470009072F0BD5B1CDAB23A70082AE4D387F868
:1054800000E03B7803EB43020CEB820214880CB97A
:10549000548824B15B1CDBB23B70082BF1D3DBB228
:1054A000082B19D187F803E087F801E087F800E0BE
:1054B000BE783B78FD7803EB43020CEB8202947AD2
:1054C000341BAC4201DDFC707B705B1CDBB23B70BB
:1054D000082BEED37B783B7000681060C3E70000B8
:1054E0001C080020107E012070B50546002409E04C
:1054F0002888021994B2A04201D9641CA4B2891E62
:1055000089B2AD1C0129F3D80DD128780002FDF72E
:105510007BFA204484B228780002FDF775FAA04295
:1055200001D9641CA4B2204670BD000014210148BA
:10553000FFF7DABF62760120094A10B50021094B56
:105540009170C9B233F811402CB1491CC9B29170A5
:105550000A29F6D310BDC9B223F8110010BD00000E
:10556000E8070020D07D01202DE9F05FF44EF549D9
:105570003246346A00254FF0030B4FF01009516199
:10558000022812D001F25A74A1F136076088401C3B
:1055900060802046B97B0088401C80B2452972D0CB
:1055A0002080E088401CE08089E0E5492431C8780B
:1055B000401C10F0FF00C8700ED18878401C10F01D
:1055C000FF00887008D14878401C10F0FF00487038
:1055D00002D10878401C0870B580607E072812D080
:1055E000052810D00028DFD0218AA9B3A07E411E53
:1055F000A176D9D2E07E082828D0617E02290AD07F
:10560000012908D009E0A07E401CC0B2A07678280D
:10561000CAD16576E4E3032818D0042800D9042011
:105620000BFA00F1A176E07EC749401CE076C88CF9
:10563000401CC884607E00F00F000928B4D2DFE867
:1056400000F03EFD0C11FC3EFC3EFC006576802027
:105650007070FDF7DBF908E30BE0BA48363880F8E4
:105660002F509AE1B580F58004207070FDF7CEF9D7
:1056700023E300F00F00032896D1B580F5800820C1
:105680007070EBE2FFE7397CB288B1EB122F03D0E8
:10569000B28861F31F22B280797CB288D2B2914283
:1056A00004D0B28802F47F420A43B280397D890671
:1056B00001D1797D21B12080A089401CA0818FE398
:1056C0009F4BF98B0E331A88914203D1398C5A883B
:1056D000914201D0208083E3FFF728FF4FF6FF7847
:1056E000404506D02088401C2080E089401CE08195
:1056F00076E3F87D06282ED0012806D02088401CAD
:105700002080208A401C20826AE3A08A401CA0825C
:1057100097F82200082806D0608A401C6082208BFF
:10572000401C20835CE387F82250B88C4FF6F77159
:10573000884201D3093000E00830B884F88B798BB7
:10574000F9837883388CB081B98B3984B883E08A47
:10575000401CE0826DE3A18BA246491CA18300F0AE
:105760009FFB40450AD0BAF81A10491CAAF81A1033
:10577000BAF82010491CAAF8201031E3734C798C38
:10578000B7F81A80B7F81CC004F5C873B88C0EE0DF
:10579000627E5AB1A288904208D1E288914205D136
:1057A0002288904502D16288944571D028349C4269
:1057B000EED397F82F1001F03F01022912D1624A6F
:1057C000B081B570143AB17832F81130834260D0AC
:1057D000491CC9B2B1700A29F5D3BAF82A10491C7C
:1057E000AAF82A1097F82F0040078DD4BAF8241091
:1057F0001420491CAAF8241087F82F002820B08014
:10580000502087F82E0097F8293097F82D0087F858
:10581000290097F8281097F82C0087F8280087F8B7
:105820002C1097F8272097F82B0087F8270087F887
:105830002B2097F82600B07001E0C9E1AAE097F8A4
:105840002A4087F826405B1C87F82A0013F0FF03E4
:1058500087F82D300ED1491C11F0FF0187F82C106C
:1058600008D1521C12F0FF0187F82B1002D1401C06
:1058700087F82A00788CB98C7984B884F88B798B76
:10588000F9837883388CB081B98B3984B883AEE2E0
:10589000A5E0DFF8B8C00024B570B17801EB810055
:1058A0000CEBC000427E12B1072A06D00BE0C8B252
:1058B00000EB80000CEBC0040AE01CB1827EA37EEA
:1058C0009A4200D90446491CC8B2B0700A28E4D3F1
:1058D000F4B3346284F81AB084F818B0A5750420C3
:1058E000E075E576B88CA080788CE08037F81A0FE8
:1058F0002080788860801248012224306276017806
:105900002173417861738178A173C078E07322823A
:10591000F87BE072B87BA072787B6072387B207273
:10592000B0460120FFF74AFC387D1A3F00F0F00135
:1059300050292FD90009820088F80250143A25E036
:10594000E80700208A760120E47D0120407C0120C8
:10595000FFE7BAF82810491CAAF8281040E23B18C3
:1059600093F8361088F80310A1B1012902D002295A
:1059700002D005E0401C07E093F83710042920D03E
:1059800093F8371031B1084488F8020098F8020003
:105990008242E4DCFE4981F82F90FD4810F82F1F69
:1059A00041F0020100F80119022101720421417243
:1059B00005218172B421C1722C21B1806021017056
:1059C000D2E1C0B2384440F2B451008F40BAA8F8D6
:1059D0000C00884200D908466082A082DAE734626F
:1059E000757097F82F20500702D5657620207FE14B
:1059F00097F82E00B84600098000B070B188081AE8
:105A00001438B080B088A0B198F82600217A884276
:105A10006FD197F82700617A3B468842F8D193F816
:105A20002800A17A8842F3D197F82900E17A8842C8
:105A3000EED1D0063FD5218AE9B304F10C00FFF77F
:105A40008DFBD44898F82A1043460278914232D10F
:105A500093F82B10427891422DD193F82C10827834
:105A6000914228D198F82D10C278914223D1017823
:105A70002173417861738178A173C078E073E07E0F
:105A8000A8B9207EA17E401AA17DA0EBD10040B232
:105A90000144C9B2A175002801DA404240B2E27D5A
:105AA000A0EB92001044E07500EBD10020760120BD
:105AB0007070207EA076607E00F00F0009287DD2F5
:105AC000DFE800F07C05186AF0EFEE17ED00707863
:105AD000C00773D084F819B0402070702582B08858
