:020000040000FA
:1000000048AE002029020000690200000D02000035
:100010006D0200006F02000071020000000000008D
:10002000000000000000000000000000730200005B
:100030007502000000000000770200007902000055
:100040007B0200007B0200007B0200007B020000BC
:100050007B0200007B0200007B0200007B020000AC
:100060007B0200007B0200007B0200007B0200009C
:100070007B0200007B0200007B0200007B0200008C
:100080007B0200007B0200007B0200007B0200007C
:100090007B0200007B0200007B0200007B0200006C
:1000A0007B0200007B0200007B0200007B0200005C
:1000B0007B0200007B0200007B0200007B0200004C
:1000C000751100007B0200007B0200007B02000033
:1000D000E5120000991300007B0200007B02000083
:1000E0007B0200007B0200007B0200007B0200001C
:1000F0007B0200007B0200007B0200007B0200000C
:100100007B0200007B0200007B0200007B020000FB
:100110007B0200007B0200007B0200007B020000EB
:100120007B0200007B0200007B0200007B020000DB
:100130007B0200007B0200007B0200007B020000CB
:100140007B0200007B0200005D0D0000D50B00006B
:100150007B0200007B0200007B0200007B020000AB
:100160007B0200007B0200007B0200007B0200009B
:100170007B0200007B0200007B0200007B0200008B
:100180007B0200007B0200007B0200007B0200007B
:100190007B0200007B0200007B0200007B0200006B
:1001A0007B0200007B0200007B0200007B0200005B
:1001B0007B0200007B0200007B0200007B0200004B
:1001C0007B0200007B0200007B0200007B0200003B
:1001D0007B0200007B0200007B0200007B0200002B
:1001E0007B0200007B0200007B0200007B0200001B
:1001F0007B020000DFF810D000F01AF90048004739
:10020000352D0000AFF3008048AE00200420714679
:10021000084202D0EFF3098001E0EFF30880714655
:10022000004A1047FD0D000014484FF059010160CD
:100230004FF0160101604FF08801016010484168DD
:1002400041F4804141600F48416841F00201416042
:10025000416841F0040141600B48804707484FF076
:100260000001016009480047FEE7FEE7FEE7FEE700
:10027000FEE7FEE7FEE7FEE7FEE7FEE700010040DF
:100280000002004000700040950F0000F5010000E2
:100290002DE9F05F0546002092469B4688460646BB
:1002A000814640241BE0284641464746224600F04E
:1002B00076F853465A46C01A914110D31146184653
:1002C000224600F05DF82D1A67EB01084F462246E2
:1002D0000120002100F054F817EB00094E41201EC8
:1002E000A4F10104DFDC484631462A464346BDE816
:1002F000F09F40EA01039B0703D009E008C9121FE1
:1003000008C0042AFAD203E011F8013B00F8013BCF
:10031000521EF9D27047D2B201E000F8012B491EFB
:10032000FBD270470022F6E710B513460A46044692
:100330001946FFF7F0FF204610BD421C10F8011BC4
:100340000029FBD1801A704730B5054600200346CE
:1003500000E05B1C934205D2EC5CC85C201A01D122
:10036000002CF6D130BD70B5064601F075F9046871
:1003700005460A220021304600F021F82C6070BDAD
:10038000202A04DB203A00FA02F100207047914055
:10039000C2F1200320FA03F3194390407047202A4A
:1003A00004DB203A21FA02F00021704721FA02F31F
:1003B000D040C2F1200291400843194670472DE910
:1003C000F04791460F4680460446002614F8015B2C
:1003D0002DB100F03FF80068405DC007F6D12B2D2D
:1003E00002D02D2D18D0641E4A463946204600F012
:1003F00035F827B13968A14201D1C7F800807105ED
:100400004FF002040BD54042002803DD01F024F92F
:100410000460A007BDE8F08746F48066E4E70028A2
:10042000F8DA01F019F904606FF00040F2E700001B
:10043000064C074D06E0E06840F0010394E8070031
:1004400098471034AC42F6D3FFF7D8FECCDE00005C
:10045000ECDE000000487047B4D800002DE9F05FE2
:1004600082460078002715468B460AF10104B946FA
:10047000302801D09DB113E014F8010B0127782832
:1004800003D0582801D045B10AE00DB1102D07D195
:100490000027102514F8010B02E0082500E00A25CA
:1004A0000026B0460EE005FB080005FB06F101271B
:1004B00001EB10461FFA80F8B6F5803F00D3B9462D
:1004C00014F8010B294600F018F80028EBDABBF10C
:1004D000000F05D00FB1641E00E05446CBF8004079
:1004E000B9F1000F06D001F0B7F802210160C81E73
:1004F000BDE8F09F48EA0640FAE73A2800D23038D3
:1005000020F02002412A01D3A2F13700884201D312
:100510004FF0FF30704770B58C1810F8015B15F084
:10052000070301D110F8013B2A1106D110F8012B65
:1005300003E010F8016B01F8016B5B1EF9D12B078A
:1005400005D40023521E0DD401F8013BFAE710F840
:10055000013BCB1A921C03E013F8015B01F8015B2D
:10056000521EF9D5A142D8D3002070BD4FF0804073
:10057000D0F8401241F48031C0F8401270470000BA
:1005800000F01F0201219140034A800F02EB80001E
:1005900002680A4302607047040200402DE9F84FE8
:1005A0000D460446FFF7E2FF4FF08040484ED0F87A
:1005B0000012C4B141F00401C0F80012102000F094
:1005C000E3F94FF400200090424843492844B346E1
:1005D00088426DD84FF000094FF0FF324F464E462B
:1005E000AE46012015E041F00101C0F800120120E3
:1005F00000F0CAF90020E6E7F2B3032839D0042856
:1006000002D0022805D102E04FEA8E0501E04FEA50
:100610004E0502236AB3BBFBF3F1304CDFF8BCC0DC
:100620000C44CCF1000C644520D80224C1F35D0ACF
:10063000DFF8A0C00AFB04F101EB0C08DFF8A0C052
:10064000E0450ED8B1EB950F02D9A1EB950101E081
:10065000C1EB9501914204D20A009946274606460D
:1006600004D040F20121641C8C42E1D95B1C202B98
:10067000D0D9401C042800E000E0BDD919480099F9
:1006800000EB8630184A084302EB49210843B91EA3
:1006900008434FF08041C1F84002042000F074F993
:1006A00006FB09F6BBFBF6F078434000BDE8F88F87
:1006B0005CB10E494FF08040C0F84012042000F0B9
:1006C00063F9BDE8F84F00F079B844F21E21F1E774
:1006D000001BB700800F05FD8074D21A00F7C2FF1F
:1006E000C068780400C0FFFF00FEFFFF1E42080044
:1006F00010B500F02BFC4FF08041D1F834024207D6
:10070000134817D0D1F8342202F00702012A13D07F
:10071000D1F8342202F00702022A10D0D1F8342294
:1007200002F00702032A0DD0D1F8341201F00701BC
:1007300004290AD0006810BD0068400810BD006898
:10074000800810BD0068C00810BD0068000910BD19
:100750000000002010B500F0F9FB4FF08041D1F807
:10076000340210F0700F144817D0D1F83422C2F3BD
:100770000212012A13D0D1F83422C2F30212022A43
:1007800010D0D1F83422C2F30212032A0DD0D1F8CE
:100790003412C1F3021104290AD0006810BD0068A8
:1007A000400810BD0068800810BD0068C00810BD7A
:1007B0000068000910BD00000000002008B510A16D
:1007C0000020096800914FF08041D1F8401211F4E7
:1007D000A02F13D10B488A0310D4C1F30800C1F332
:1007E0008132094B801C1DF80220C1F3442158437B
:1007F000491C11FB02F1B0FBF1F0C00008BD000084
:1008000001020204001BB700C0C62D0070B54FF0F6
:1008100080440646D4F8500200F010051B4886427A
:1008200000D90646D4F8000240F00400C4F80002E3
:10083000102004F5007400F0A7F8206940F00700CC
:100840002061206A20F00F0020622068A4F5007467
:10085000C007314604D00020FFF7A0FE064608E09E
:100860004FF40020FFF79AFE0646D4F8500200F03D
:1008700010050021022000F00BF82DB9D4F8000279
:1008800020F00400C4F80002304670BD00B0710BC7
:100890002DE9F0414FF080440746D4F850020E464F
:1008A00000F01005D4F8000240F00400C4F8000283
:1008B000102004F5007400F067F8206940F007008C
:1008C0002061206A20F00F0030432062206920F070
:1008D000070038432061A4F5007400F037FB002DB9
:1008E00005D1D4F8000220F00400C4F80002BDE8ED
:1008F000F0810000F0B510F47F3F2ED04FF0804320
:10090000D3F8F431DFF878C0DFB21D4BC0F3814477
:100910000C3B6FEA90450CF1040603EB8403012FB6
:1009200002D0022C0DD001E0022C02D0AC070AD07C
:100930000AE0C343DC06134B06D000F01F041D2C55
:1009400002D0634600E033461C68C0F38725C0F33D
:100950004416B540AC4314431C60420E52070ED0FF
:10096000084BC0F30172183B03EB82021368C0F31B
:100970004264C0F304508440A3430B431360F0BDB2
:100980002C0200402802004070B505460B480C4E72
:100990000124006841080020A207306001E0491EE0
:1009A00006D0D2F8503235EA0300F8D109B103E09D
:1009B00000244FF0FF303060204670BD0000002062
:1009C000A807002010B58A888C7852BA13040A88C8
:1009D000C97852BA120442EA04220A43064941F88D
:1009E0003020091D41F83030034908394A68012395
:1009F00083401A434A6010BD08B000400E4A0F4BB6
:100A000040EA0120126840F42021B2FBF3F20C48C6
:100A10009201C0F89810D0F89810890302D5521EA0
:100A2000F9D102E00AB1002101E04FF0FF31054A9F
:100A30001160D0F8940070470000002040420F0081
:100A400000B00040AC07002010B50F4B0F4C1B68E6
:100A5000B3FBF4F30E4C9B01C4F8942040EA012050
:100A600040F43020C4F89800D4F89800800302D5F0
:100A70005B1EF9D102E00BB1002001E04FF0FF3026
:100A80000449086010BD00000000002040420F0033
:100A900000B00040AC07002010B5044600F060F93B
:100AA00000F0DEF8204600F055F908480649C0F885
:100AB000AC100749C0F89010162140F8301B40F2E6
:100AC000EE51816710BD0000118C051100B000408F
:100AD0002000400070B53C4900204FF400420860FF
:100AE0000121FFF7B1FF394E0A21394D3068B0FBC3
:100AF000F1F405E001210020FFF780FF000402D59A
:100B0000641EF7D153E0ECB3346801E0641E4ED0AC
:100B100001210846FFF772FF4007F7D540F2E112C6
:100B200001210420FFF790FF01210020FFF766FF5D
:100B300040F4007201210020FFF786FF3068440076
:100B400001E0641E33D001210846FFF757FF8006FD
:100B5000F7D5346801E0641E29D001210846FFF76B
:100B60004DFF4007F7D501210520FFF747FFC105DD
:100B700009D555F8900F40F480102860286840F49B
:100B800080200AE013E001060AD555F8900F40F4E2
:100B900080102860286820F480202860002070BD24
:100BA000400655F8900F20F48010E6D4F1E755F890
:100BB000900F20F480102860286820F4802028609E
:100BC0004FF0FF3070BD0000AC0700200000002097
:100BD00000B0004010B50549054800F00BF80028AA
:100BE00002D000F027F8F6E710BD00007C000020DE
:100BF0000C19002070B50D4B0546002053F8B02F9E
:100C000094B21C60120501D5801E70BD084A13699C
:100C10001A68002AF9DB140CE406F6D592B20A60D1
:100C200028461969FFF765FB012070BD00B0004040
:100C3000AC07002008490869026942604269C26045
:100C4000026842F000420260C06808610349002067
:100C5000C1F8A40070470000AC07002000B00040BD
:100C600070B51648144AC0F88C20154800210B4670
:100C70004FF0004402F16005026101EB410042F8CF
:100C80003040C1EB411606EB811602EBC00005EBCC
:100C9000061646604668066183604E1C06F0030631
:100CA00006EB460602EBC606C660C6684661491CEE
:100CB0000429E2D370BD0000EC6D002000B00040BC
:100CC000AC07002070B50D4D0E460346EC680020C1
:100CD0002168002910DB324619466068FFF709FBDE
:100CE000A6602068064940F000402060E068E860A7
:100CF0000020C1F8A000012070BD0000AC0700205A
:100D000000B00040104A10B5D2F8B01000200F4BD0
:100D10000B40C2F8B030C90101D5801E10BDD2F819
:100D2000CC300B4CA1680A68002A0BDB8A68120CD5
:100D3000120700D5401C0A694A604A69CA60114618
:100D40008B42F0D1A16010BD00B000400000FFEF69
:100D5000AC07002001460020FFF734BEFFF7D2BFEA
:100D600070B51948174AC0F8882018490020044671
:100D70008A60CA604B6802F160050BB1072100E090
:100D80000F2100EB400642F83610C0EB401101EB9A
:100D9000801105EB011600EB400102EBC1014E6032
:100DA0004E680E618C60461C06F0030606EB460694
:100DB00002EBC606CE60CE684E61401C0428DCD330
:100DC00070BD00000C86002000B00040AC07002081
:100DD000F0B500230127032507FA03F48C4309D15A
:100DE00006685C0005FA04FC26EA0C0602FA04F424
:100DF000264306605B1C102BEED3F0BD044603A017
:100E000000F006FC204603F085FBFEE7496E204813
:100E1000617264204661756C742048616E646C6513
:100E2000720A000000F01F02012191404009800079
:100E300000F1E020C0F80011704700F01F0201210E
:100E400091404009800000F1E020C0F80011704797
:100E500010B559218C0716208822C4F80011C4F857
:100E60000001C4F80021D4F80031002BF5D04FF078
:100E70004020D0F8401121F0F001C0F84011D4F822
:100E8000000240F00100C4F800020120FFF77CFDE1
:100E90002348FFF7BBFC1120C4F83402D4F8080241
:100EA00040F48030C4F80802D4F8080240F400305E
:100EB000C4F80802D4F8140220F04070C4F81402F8
:100EC000D4F8140220F04060C4F8140200F03EF898
:100ED000206B20F07F402063206B40F0EE402063C9
:100EE000206B6FF30F002063206B48F688010843E6
:100EF00020630020C4F800010A4C2046FFF740FBA5
:100F0000002211462046FFF7F5FC074C2046FFF76C
:100F100037FB20460022BDE810401146FFF7EABC2F
:100F200000B0710B0200805E0300C05E06498A6952
:100F30001202FCD40A2804D10D220A608A69120226
:100F4000FCD40860704700000000074010B5FFF7B0
:100F500035FC0E4A4FF080439060D3F8101201F038
:100F60000701022903D002F10C0050F82100D3F848
:100F7000201201F00F01491CB0FBF1F00449106090
:100F800008444900B0FBF1F0506010BD00000020A3
:100F900020A107001A48016841F470010160194856
:100FA000C16C21F00F0141F00801C1644FF0804095
:100FB000D0F8981241F48021C0F89812D0F80812A5
:100FC00041F00201C0F808120F49D1F8042102F0E3
:100FD000F732C1F80421D1F8082102F0F732C1F844
:100FE0000821D0F8081221F00201C0F808124FF0D1
:100FF0004020D0F8401121F0F001C0F840117047B6
:1010000088ED00E000C00040001004402DE9F041F0
:101010000D46044600F056F800273E4627606761FB
:101020002549884205D84FF47A72954205D2154673
:1010300006E0642D01D2642502E08D4200D90D4600
:10104000884208D81D494FF47A72B1FBF0F155433C
:10105000B5FBF1F107E0B0FBF1F169430F0E02D0EF
:101060007A1CB1FBF2F1616047F080412160144DC0
:101070002968B1FBF0F0401C02D000BF401EFCD13B
:10108000204600F01FF829687F1CB1FBF0F179437E
:101090000BE0E268824207D13246761C8A4205D9CB
:1010A0004FF0FF30BDE8F0810026E0682268920131
:1010B000EFD40020F6E7000040420F0000CA9A3B40
:1010C0000000002010B588B0044620221749684669
:1010D000FFF70FF9164A174B9003944204D1D0F84A
:1010E0001402C0F3022110E09C4204D1D0F8140293
:1010F000C0F3023109E01049D0F814028C4202D149
:10110000C0F3024101E0C0F30251022903D05DF8AF
:10111000210008B010BD944201D09C4202D1FFF7DB
:10112000E7FAF6E7FFF716FBF3E70000E0D7000069
:1011300000000540000105400010054070B516464E
:101140000D460446FFF7BEFF0023B6EB500F01D952
:10115000022206E0B0FBF6F2130E02D0591CB2FBDD
:10116000F1F21D43256062605B1C5A43B0FBF2F054
:1011700070BD00002DE9F04154480168491C016030
:1011800002F074FF0125524E524C012801D16068D3
:1011900020B103F0F9F8012811D016E003F038F877
:1011A0000128A06801D1401CA0600A2804DD03F0DA
:1011B0002FF8012800D1656002F02CF92CE030787E
:1011C000072802D002F0F6FA26E0206868B903F09A
:1011D0005DF950B1256030780A281DD007281BD052
:1011E000092819D002F000FC16E03078022818D047
:1011F000032820D0042821D0052822D0062820D07A
:10120000072821D0082822D0092823D00A2824D052
:1012100005213148FFF7FAFE03F038F90027F8B14D
:101220001FE02E480078012802D002F0B9FAF3E757
:1012300002F0CAFAF0E702F0B5FBEDE702F06EF853
:10124000EAE702F0F1F8E7E702F0A6F9E4E702F0D6
:10125000D5FBE1E702F0E2F9DEE702F059FADBE75D
:10126000276002F003FF08B96760A76030780A289A
:1012700006D002F001FF012802D1002004F082FB19
:1012800020696061E068206103F07EF8E0606169D8
:10129000012916D12169012913D101280AD103F0AE
:1012A00073F808B902F030F86069012809D12069A3
:1012B000012806D1E06820B903F066F808B902F009
:1012C00023F807488560BDE8F08100007400002025
:1012D0007D01002030000020000105407E0100203B
:1012E0000000054000F008B84FF4E131014800F07B
:1012F000BBB80000000007402DE9F041134DE8693C
:10130000C00521D5124C002210462281114EE188E1
:1013100001E03254401C8842FBDB0F4FA8694004B7
:101320000CD405213846FFF771FE2968E06E401C99
:10133000E06620893154401C2081EFE700F02AFE4E
:10134000BDE8F04101F02EBDBDE8F081000007408E
:101350007C010020986D0020000105400D4810B56B
:10136000016941F400710161416941F48071416199
:10137000816821F4702141F440318160416841F07D
:1013800015014160FF2100F021F9BDE81040242043
:10139000FFF753BD0000074000F008B84FF4E131FB
:1013A000014800F061B80000001007402DE9F04747
:1013B0001B4DE869C00531D51A4F002107F5DA72D7
:1013C0003970A2F13404F960F8681154401CF860D7
:1013D0000528F9DB144E91468846A869400419D4C3
:1013E0002868C1B23878052801D209F80010401CDD
:1013F000387006E01E213046FFF708FE206B401CC7
:101400002063A869400402D5206B0528F2DBC4F8EC
:101410003080E2E7BDE8F04700F036BCBDE8F08779
:10142000001007407C010020000105400D4810B568
:10143000016941F400710161416941F480714161C8
:10144000816821F4702141F440318160416841F0AC
:1014500015014160FF2100F0B9F8BDE810402520DA
:10146000FFF7EBBC001007402DE9FF4104464D4853
:101470000F4600250FC88DE80F004B492E464FF050
:1014800080408C4206D1D0F81412D0F82002C1F36B
:1014900001652AE045498C4206D1D0F81412D0F8F3
:1014A0002002C1F381652BE041498C4208D1D0F87C
:1014B0001C12D0F83002C1F3016500F00F0643E0C2
:1014C0003C498C4208D1D0F81C12D0F83002C1F34C
:1014D0008165C0F3031637E037498C4208D1D0F854
:1014E0001C12D0F83002C1F30175C0F303262BE0C3
:1014F00032498C4207D1D0F81C12D0F830028D0F3F
:10150000C0F3033620E02E498C4204D1D0F8F41108
:10151000C9B2012908D02B498C4215D1D0F8F41159
:10152000C9B2012909D00FE0D0F81C12D0F830025E
:10153000C1F30155C0F3034606E0D0F81C12D0F801
:101540003002C1F38155860F002020630320E06044
:10155000A0681D490840A060E846012D02D1FFF7B0
:101560002DF90190002F1AD058F82510761CB1FBE8
:10157000F6F000EB5700B0FBF7F0801EB0F5803FAF
:101580000AD3B1FBF6F000EBC700B0FBF7F06FF049
:10159000010101EB101001E040F040506062BDE835
:1015A000FF81000000D80000000007400010074045
:1015B000002007400030074000400740005007402F
:1015C00000600740007007400FFFF0FF026A22F042
:1015D000FF020A430262416841F4006141607047C2
:1015E000F0B50446002630464FF080450CE000235D
:1015F00002E05B1CAB4209D2A7693F02F9D4002E7E
:1016000004D10B5C2360401C9042F0D1F0BD00007F
:101610000FB4054B10B503A9044A029800F030F846
:1016200010BC5DF814FB0000C9210000C0070020B9
:101630000FB4084B10B504A902AA039800F020F8D3
:10164000044602A9002000F046FA204610BC5DF8CE
:1016500014FB0000D71A000000487047080800205B
:1016600002E008C8121F08C1002AFAD1704770476B
:10167000002001E001C1121F002AFBD170470000C9
:101680002DE9FF4F8DB00F460546002606E02528C0
:101690000BD0DDE90F1290476D1C761C28780028CE
:1016A000F5D111B03046BDE8F08F0024A246A14626
:1016B0000122E94900E0044315F8013F203B02FA0A
:1016C00003F00842F7D128782A2810D06FF02F02B3
:1016D0002878A0F13001092914D80AEB8A0102EB1D
:1016E000410144F0020400EB010A6D1CF0E701CF58
:1016F0005FEA000A03D544F40054CAF1000A44F03A
:1017000002046D1C28782E2817D115F8010F44F01B
:1017100004042A280ED06FF02F022878A0F130019F
:1017200009290AD809EB890102EB410100EB010903
:101730006D1CF2E757F8049B6D1C28786C280FD0BD
:1017400006DC4C2817D068280DD06A2814D104E094
:10175000742810D07A280FD10DE044F400140AE068
:1017600044F4801401E044F440146978814202D1C9
:1017700004F580146D1C6D1C28786E281ED00CDCBE
:10178000632830D004DC00288BD0582811D19FE08A
:10179000642867D069280CD164E073282DD004DC5C
:1017A0006F2872D0702804D194E075286ED0782804
:1017B0006DD0DDE90F129047761C4BE1C4F3025067
:1017C000022806D0032809D0042801CF09D00660DA
:1017D00040E101CFF117C0E900613BE101CF068094
:1017E00038E1067036E117F8040B8DF80000002090
:1017F0008DF80100EB46012003E057F804BB4FF0E1
:10180000FF3061074FF0000102D40DE008F1010143
:10181000884649450FDA8045F8DB1BF80810002997
:10182000F4D108E008F1010188468142FADB1BF897
:1018300008100029F6D1DDE90F23AAEB0800814644
:10184000214600F031F9304400EB080604E0DDE900
:101850000F121BF8010B9047B8F10108F7D221468F
:101860004846F2E00A21C4F302524FF0000B0891FF
:10187000022A04D001CFC117032A09D00AE0FF1DB4
:1018800027F00707F7E8020108E02CE01EE01FE060
:1018900000B2C117042A01D140B2C117021E71F172
:1018A000000206DA0023D0EB030063EB01012D22D6
:1018B00002E0220504D52B228DF82420012203E02A
:1018C000E20701D02022F7E7904653E00A210BE01F
:1018D000102109E010214FF0000B44F004044FF0F8
:1018E0000809089103E008214FF0000B0891C4F3A8
:1018F0000252022A04D001CF0021032A06D006E0BA
:10190000FF1D27F00707F7E8020103E080B2042A71
:1019100000D1C0B24FF0000822072BD52A78702AD8
:1019200007D0DDF820C08CF0100C5CEA0B0C05D061
:101930000EE040228DF82420012208E050EA010345
:1019400006D030238DF824308DF8252002229046D1
:10195000089B83F0080353EA0B030BD150EA010202
:1019600001D1620706D530228DF824204FF00108FE
:10197000A9F101092A78582A04D038A20B9208AAA2
:101980000A920BE03AA2F9E75B46089AFEF780FC60
:101990000B9B9B5C0A9A521E0A92137050EA01023A
:1019A000F2D10A98ADEB000000F1200B600702D5E0
:1019B00024F4803401E04FF00109D94502DDA9EBA0
:1019C0000B0000E0002000EB0B0141440890AAEB63
:1019D000010AE00306D4DDE90F232146504600F05A
:1019E00063F806444FF0000908E009A911F809005E
:1019F000DDE90F12904709F10109761CC145F4DBBE
:101A0000E0030CD5DDE90F232146504600F04CF8E9
:101A1000064404E0DDE90F1230209047761C089957
:101A2000481E08900029F5DC08E00A980A99007819
:101A3000491C0A91DDE90F129047761CBBF10001A9
:101A4000ABF1010BF1DC21465046DDE90F2300F03C
:101A500019F806446D1C21E60928010030313233A3
:101A600034353637383961626364656600000000DA
:101A700030313233343536373839414243444546C4
:101A8000000000002DE9F041044600251E461746DF
:101A9000880404D405E039462020B0476D1C641E3C
:101AA000F9D52846BDE8F0812DE9F041044600252E
:101AB0001E469046C80301D5302700E02027880441
:101AC00004D505E041463846B0476D1C641EF9D583
:101AD0002846BDE8F0810A68531C0B6010707047FF
:101AE000084410F8021C0D2903D110F8010C0A2833
:101AF00001D00020704701207047000030B5A5B02C
:101B00000C460546402110A8FEF70CFC4021684613
:101B1000FEF708FC6B4610AA2146284601F0A0FB00
:101B2000D8B1104CA068FEF708FC024610A8A168C6
:101B3000FEF70AFC88B96846FEF7FFFBC1B208232E
:101B400020AA684600F010F8E068FEF7F6FB0246AF
:101B500020A8E168FEF7F8FB10B1002025B030BDE9
:101B60000120FBE7480000202DE9F0471D461646FE
:101B70008A46044600F07AF8002001460246214BCE
:101B800034E0275C3D2F35D013F807C0401C275C9C
:101B90003D2F31D0DF5D401C14F80080B8F13D0FBF
:101BA0002CD013F80880401CC14614F80080B8F10E
:101BB0003D0F25D013F808804FEA8C4C0CEB073C06
:101BC000401C0CEB89174744A94204DA4FEA174C32
:101BD00006F801C0491CA94204DA4FEA172C06F89E
:101BE00001C0491CA94201DA7754491C5045C8DBA1
:101BF000BDE8F0879446C9E71746CCE79046D2E7A0
:101C00009046D9E70C08002042F2107190FBF1F2E7
:101C10000A2192FBF1F301FB1323134A10B5303371
:101C200013704FF47A7390FBF3F393FBF1F401FB21
:101C3000143330335370642390FBF3F393FBF1F4CC
:101C400001FB14333033937090FBF1F393FBF1F409
:101C500001FB14333033D37090FBF1F301FB13001D
:101C60003030107110BD0000480300200449054ABF
:101C700000200B5CD054401C4028FADB7047000069
:101C80003C0100200C0800202DE9F041BE4C4FF033
:101C900000082046A778C078FF2F04D0FF2802D084
:101CA0002079FF285BD1B8482178B0F8013090F84E
:101CB00002C003EB8305EE00C57840782D0403EBEA
:101CC000830245EA0C2552000543D1297ED01FDC52
:101CD000C7297CD012DCC3297AD008DCAA294AD0D3
:101CE000C0294ED0C12974D0C22935D14CE0C429B5
:101CF00070D0C5296FD0C6292ED1A6E0C8390929D0
:101D00002AD2DFE801F0C3B6BF2929CCC9B9D00077
:101D1000E2297AD010DCD52978D006DCD22976D019
:101D2000D32975D0D42917D1CCE0D62971D0E02998
:101D300070D0E12910D1D6E0E6296CD006DCE32989
:101D40006AD0E42969D0E52906D1DEE0E72975D01B
:101D5000F02974D0F12973D08C49C1F80C8084F833
:101D6000008084F8018084F8028084F8038084F87D
:101D70000480BDE8F08186490870012003F032FE3E
:101D8000EDE703F0F9FDEAE703F06CFE6078012867
:101D900006D102F02DFB032802D0002003F080FEC4
:101DA0006078022806D102F023FB042802D000202C
:101DB00003F076FE6078032802D1002003F070FE65
:101DC000607804280DD102F013FB05E06FE044E0D9
:101DD00024E04AE02AE034E0052802D0002003F0A5
:101DE0005FFE6078052806D102F002FB062802D0CB
:101DF000002003F055FE60780628B0D1002003F0E3
:101E00004FFE002003F01CFEA9E770E05FE051E008
:101E100053E061E087E07FE070E072E0104603F09D
:101E20005DFE02F0E5FA03283FD198E7184603F07B
:101E3000C1FD02F0DDFA042837D190E76FE01EE023
:101E400089E0184603F0A4FD89E7304603F022FE3E
:101E500002F0CEFA052828D181E7284603F0B6FD26
:101E600002F0C6FA062820D179E7104603F0C6FD35
:101E700075E703F07BFD72E703F0C6FD6FE703F043
:101E800081FD6CE7184603F0B3FD68E7390200EB0B
:101E9000800041EA4000B5E703F0BCFD5FE7104673
:101EA00003F022FE5BE70028AED1002018E003F02B
:101EB00051FD54E703F054FD51E7104603F008FECE
:101EC00003200DE0184603F07BFD042008E03046B7
:101ED00003F0DAFD052003E0284603F07DFD06202F
:101EE00003F0DEFD3BE7104603F0E6FD2BE018466D
:101EF00003F05AFD29E003F0AFFD30E703F0BEFD2B
:101F00002DE7104603F0D2FD23E0184603F046FD0E
:101F100015E003F09BFD22E703F0AAFD1FE7104642
:101F200003F0D0FD1BE701280BD002280BD00328BB
:101F30000BD004280BD005280BD0062884D105200F
:101F4000E7E70020D7E70120D5E70220D3E700200C
:101F5000DFE70420DDE770B1012885D102F0F6F952
:101F6000054602F0EDF9854285D202F0EFF9401CFA
:101F700003F056FDF3E602F0E9F9012885D902F0F5
:101F8000E5F9401EF4E7000030030020380300208C
:101F90007D0100202DE9F04F884888B00178FF29A5
:101FA0007ED14178FF297BD18178FF2978D1C17812
:101FB000FF2975D190F85310682971D1804B0179B0
:101FC000196730F8051F49BA996741884ABA03F181
:101FD0008001CA60828852BA8A60C28852BADA67BF
:101FE0000792028952BA0A61428952BA5A678289B3
:101FF00052BACA66C28952BA93460A67C27BDA707D
:10200000028A52BA4A67428A52BA8A67828A52BAA6
:10201000CA670692827D02F0010401F18002146712
:102020000594C47D04F001059565C4F340055D6623
:10203000C4F380051D71C4F3C0055564C4F30015D5
:10204000DD65C4F340155560C4F38015E4090D60E7
:102050009C70048B64BAD4600494448B64BA146199
:102060000394848B94FA94F8C2F81480C48B94FA85
:1020700094FCC2F818C0048C64BAD4610294448CF5
:1020800064BA14620194848C64BAA6465462C48C07
:1020900064BAD4620094048D67BA9762448D00E0FC
:1020A00089E066BA1663848D64BA4C6190F82E405C
:1020B0008C6390F82F404C64048E64BA0C64448E98
:1020C00064BA4C60848E64BA8C6190F836408C643B
:1020D00090F83740CC64048F64BA0C6590F83A40AD
:1020E0008C6590F83B40CC65848F64BA0C66C48FD5
:1020F00064BA4C66B0F8404064BAA2469460B0F846
:10210000424064BA1465B0F8444064BAD464B0F88C
:10211000464064BAA146946390F848401C66B0F803
:1021200049305BBA4B62B0F84B1049BA116090F875
:102130004D00506345B1116E81B1536E93FBF1F1C7
:1021400011640021516608E045B9059931B1536E1B
:1021500003EB0B015166116E491C1166916E491C0F
:10216000D166002D27D0A14225D1946604EBC4018D
:10217000D463144CACEB080344F8313004EBC101D8
:10218000C1E9018C039BCB60049BC1E9043E126C46
:102190008A61069ACA61009A0A62079A4A62029A9A
:1021A0008A62019A4E63C1E90B293218C1E90E27F0
:1021B0003844C1E9100A08B0BDE8F08F986D0020DE
:1021C0007C010020E025002010B50446FEF7AEFE9D
:1021D000204610BD40BA70472DE9F04F0026FBB0F5
:1021E00037463446402166A8FEF79CF8402146A8B1
:1021F000FEF798F8402156A8FEF794F84FF4807146
:1022000006A8FEF78FF8FB48FB4905680878B14639
:10221000400605F11C0506D50120687085F8009080
:102220007BB0BDE8F08F0878DFF8D4A3DFF8CCB33B
:102230008007AAF1400871D5F2480188F2487790EA
:10224000052906D3F3480522F0A10068FEF77CF8C3
:10225000E0B1DFF8B0B3BBF80000042807D3ED4CC1
:102260000422EDA12068FEF76FF800287AD098F8D4
:1022700001104046012976D0C8F8289098F801004E
:1022800098F80210444608436ED0F0E3E14810226B
:10229000E3A10068FEF758F8D8B1DE480F22E5A1A7
:1022A0000068FEF751F8F0B1DA480622E5A10068AF
:1022B000FEF74AF8B8B1D7480922E4A10068FEF752
:1022C00043F8C8B198F8000001286BD00126062712
:1022D000D4E7E149C8F8241040F27E4101260227E4
:1022E000C8F82810CAE77799C8F8241040F2E531F9
:1022F0000126C8F82810B8E0C6481722D7A1006800
:10230000FEF722F840F2B454F0B1C2482322D9A11A
:102310000068FEF719F840B31B2200E0F3E3BD4864
:10232000DDA10068FEF710F80028A7D1DAF8040054
:10233000FEF703F800F21A5040F21A51C8F82800CC
:10234000A0422DDADB4820E0DAF80400FDF7F5FFC3
:1023500000F2347040F23471C8F82800A04205DA67
:10236000D54812E0F2E266E388E301E0D24A12E0E7
:10237000DAF80400FDF7E1FF00F25A3040F25A317A
:10238000C8F82800A04205DACC4800F027FFC8F8BA
:1023900024B073E7C94AC8E90921012637466DE729
:1023A000C44AF8E79B480A22C5A10068FDF7CCFFA4
:1023B000002830D097481A22C4A10068FDF7C4FF56
:1023C000002854D093481A22C7A10068FDF7BCFF2B
:1023D00000287DD08F481B22CAA10068FDF7B4FFFA
:1023E000002876D08B481C22CDA10068FDF7ACFFF9
:1023F00000286FD087481B22D1A10068FDF7A4FFF9
:10240000002868D083481D22D4A10068FDF79CFFF6
:10241000002875D0C2E266A800F0FAFE0128B8D103
:10242000DFF8DCB1C8F8249001260BF11C0BC8F8CA
:10243000289066A8FDF781FF02465BF8241066A885
:10244000FDF782FF20B1641CE4B2132CF1D315E731
:102450006B48683050F82400801CC8F82400C74836
:1024600050F82400801EC8F82800042706E701F071
:1024700085FF022806D0032807D0052833D001F0B5
:10248000FFFF04E001F04EFE01E001F013FE769044
:1024900001F0C8FD044601F0ABFF009001F0C4FE5E
:1024A000019001F059FF029001F05CFF799001F07A
:1024B0005FFF789001F062FF0246DDE900030594BA
:1024C000CDE90330DDE97801CDE90001444603E0C0
:1024D0000CE025E047E06CE0769B06A8D8F81010E9
:1024E000FFF7A6F80DE001F083FED0E701F0D4FF7E
:1024F000CDF80090034600224446D8F8141075E049
:1025000046E106A8FDF719FF034606A800909CA126
:102510003A48DAF80C20FFF78BF8C4E909B0ADE6C9
:102520000020029001F064FF032804D0042805D0A5
:10253000062806D114E001F099FF01E001F0F8FD52
:10254000029001F069FD044601F060FD009001F089
:102550004FFF019402464446029BD8F8181024E02D
:1025600001F04CFEECE70020029001F0FBFE70B1A0
:1025700001F0F8FE042804D001F0F4FE052803D091
:1025800005E001F041FF01E001F09AFD029001F049
:102590005DFF044601F0FEFE009001F0E3FE0194B1
:1025A000029BD8F81C100246444606A8FFF740F8E4
:1025B000A7E7002401F0DCFE70B101F0D9FE01288C
:1025C00004D001F0D5FE022803D005E001F026FF7B
:1025D00001E001F085FD044601F0E2FE009001F00B
:1025E000C7FE2346D8F820100246444606A8FFF747
:1025F0001FF886E7E4070020C50700200C0900202B
:1026000088000020C8070020745F00004745542060
:102610002F000000D8070020504F53540000000046
:10262000474554202F66617669636F6E2E69636F2C
:1026300000000000474554202F696E6465782E68BD
:10264000746D6C00474554202F20000047455420EE
:102650002F6373732F000000F45A00004745542085
:102660002F6373732F636F6D6D6F6E5F6373732E64
:1026700063737300474554202F6373732F7379730B
:1026800074656D5F696E666F726D6174696F6E5FA0
:102690006373732E63737300474554202F63737302
:1026A0002F73746F72655F616E645F6C6F61642E0F
:1026B00063737300266D0000F26500004072000035
:1026C000474554202F68746D6C2F000047455420F7
:1026D0002F706172616D657465722F706167655FDF
:1026E000312E68746D6C0000474554202F70617264
:1026F000616D657465722F706167655F322E6874F5
:102700006D6C0000474554202F706172616D6574D7
:1027100065722F7365635F7669622E68746D6C00F5
:10272000474554202F706172616D657465722F701A
:102730006F73745F7669622E68746D6C00000000C0
:10274000474554202F706172616D657465722F70FA
:1027500072655F7669622E68746D6C00474554201F
:102760002F646174612F77656C64696E675F726551
:10277000636F72642E68746D6C0000009C750000BD
:10278000257325780D0A25730D0A300D0A0D0A00F0
:10279000FA4E0A200090FAA13046FEF749FF06449F
:1027A0000098401E0190F6A13046FEF741FF064416
:1027B000F448006884427DD8204601F047FD024677
:1027C000F1A13046FEF734FF0644204601F0A2FD99
:1027D0000246EDA13046FEF72BFF0644204601F0ED
:1027E00051FD0246E8A13046FEF722FF064420468E
:1027F00001F060FD0246E4A13046FEF719FF0644F1
:10280000204601F06FFD0246DFA13046FEF710FFC3
:102810000644204601F0D8FB0246DBA13046FEF715
:1028200007FF0644204601F017FC0246D6A13046B9
:10283000FEF7FEFE0644204601F0D0FC0246D2A17F
:102840003046FEF7F5FE0644204601F005FE02463E
:10285000CDA13046FEF7ECFE0644204601F084FB95
:102860000246C9A13046FEF7E3FE0644204601F0C9
:1028700093FB0246C4A13046FEF7DAFE064420462A
:1028800001F05AFB0246C0A13046FEF7D1FE0644D5
:10289000204601F08BFC0246BBA13046FEF7C8FE85
:1028A0000644204601F034FC0246B7A13046FEF74C
:1028B000BFFE00E024E00644204601F09DFB0246F6
:1028C000B1A13046FEF7B4FE0644204601F048FCB4
:1028D0000246ADA13046FEF7ABFE0644204601F0AD
:1028E000DFFB0246A8A13046FEF7A2FE06442046C2
:1028F00001F0E6FD0246A6A13046FEF799FE064429
:102900000198844201DAA4A100E0A4A13046FEF7B8
:102910008FFE0644641C0098E4B28442FFF643AF85
:102920009EA13046FEF784FE9448FDF706FD03465F
:1029300092480090AFF2B811A0F50060DAF80C20D0
:10294000FEF776FEC8E909B0002697E4192294A1A3
:102950002068FDF7F9FC50B9BBF800102068FFF7BC
:10296000BFF801284FF0010006D088F8040098F85D
:102970000000012805D011E088F8010088F8020065
:10298000F5E710228DA12068FDF7DEFC40B11E2284
:102990008FA12068FDF7D8FC0028D6D101266DE470
:1029A000BBF800102068FFF79BF801282DD088F8AD
:1029B0000190BBF8001056AB46AA206800F050FC0E
:1029C000012826D088F803901B2289A12068FDF7F2
:1029D000BBFC10B31B228DA12068FDF7B5FCF0B144
:1029E0001C2291A12068FDF7AFFCE0B11D2296A149
:1029F0002068FDF7A9FCC0B11C229BA12068FDF74F
:102A0000A3FCA0B188F8069038E4012088F8010002
:102A1000DAE7012088F80300D6E7012000E0022071
:102A200088F806002AE40320FAE7042100E00521E3
:102A300088F8061022E480F801908178012910D0EE
:102A400098F806004446B0B1BBF8001056AB46AA51
:102A50008D48006800F004FC012809D084F8039038
:102A60000CE480F80290012188F8041006E421E0CB
:102A70000120E07002E4C4F8289029E42079C8B16C
:102A8000824884F8049001887F480068FFF736F890
:102A900048B10120207006467D48606240F29720D0
:102AA0000427A06206E07798606240F2E5300126D4
:102AB0000527A062A07920B1617811B9E1780129D8
:102AC0000CD00EB1607870B3A06A00287FF7A8AB75
:102AD00001F000FD68707BB0BDE8F08F01280DD0DB
:102AE000022811D0032814D0042817D005281BD0A1
:102AF000062784F8069084F80390E3E756A946A8D1
:102B000002F076FCF5E723E056A946A802F016FD90
:102B1000EFE756A946A802F0DFFDEAE756A946A866
:102B200002F022FDE5E704E056A946A802F084FD84
:102B3000DFE758495AF827000860FDF7FEFB5649C1
:102B40000880A06A002801DD0320C3E70220C1E756
:102B50000878C00702D1087800070BD5087800076D
:102B600004D56878022806D0012805D068780328A3
:102B700003D0A9E0D8E091E097E09EE00C1100209E
:102B80005B000000B8020020222564222C00000017
:102B900022256422000000005D2C00005D00000082
:102BA000504F5354202F61757468656E746963616A
:102BB00074696F6E2E68746D6C000000504F535432
:102BC000202F706172616D657465722F00000000C6
:102BD000504F5354202F667067612F736176655F85
:102BE000706172616D657465722E68746D6C000041
:102BF000504F5354202F706172616D657465722F50
:102C0000706167655F312E68746D6C00504F53546E
:102C1000202F706172616D657465722F70616765D8
:102C20005F322E68746D6C00504F5354202F7061CA
:102C300072616D657465722F7365635F7669622E6C
:102C400068746D6C00000000504F5354202F706169
:102C500072616D657465722F706F73745F766962EF
:102C60002E68746D6C000000504F5354202F70611B
:102C700072616D657465722F7072655F7669622E20
:102C800068746D6C00000000D8070020C8070020A1
:102C90005B630000DC070020CA07002010200870DA
:102CA00085F8019085F800900EE02878401CC0B2AD
:102CB00028700A2808D9022005E0D8F82800002842
:102CC00002DD01F007FC687098F80500474601280E
:102CD0007FF401AF87F80590144E642401E0012CC5
:102CE00003DD2246AFF2601102E02246AFF260112E
:102CF0003046FEF79DFC641E0644002CEFDC0CA160
:102D00003046FEF795FC0948FDF717FB03460748D8
:102D10000090AFF29451A0F50060DAF80C20FEF7B5
:102D200087FCC7E909B0D3E60878D4E60C11002087
:102D30005D207D00FEF78CF8FEF7D6FAFEF72EFB3D
:102D40004FF08040016C21F070610164012240214C
:102D50001048FEF73DF81049002008600F4C0A2289
:102D60004FF000612046FEF7E9F9206840F000507E
:102D700020600B490120C1F80001206840F080402C
:102D80002060FEF753FBFEF7E9FA02F015FD02F0B2
:102D90008FFDFCE78040004098480040000005405F
:102DA00004E000E02DE9F04FF84A00241046537883
:102DB000866F00F5807500F5C071092B6CD04FF45B
:102DC000FA600A2B77D0072B78D06F68012F75D067
:102DD000D069886050694862DFF8B0C3576B012042
:102DE0000CF1800C022F6CD0032F72D0042F77D0FF
:102DF000052F6CD0062F6BD0D76A4F60AC67EC679D
:102E00000C606C678C62DCF83C70032F6FD0042F71
:102E10006ED0052F6DD0062F6CD0CC60DCF85480BE
:102E2000C246B8F1010F77D0BAF1020F75D00C612C
:102E3000DCF86890B9F1040F70D0B9F1050F6ED0CD
:102E40004C6194469278012A6AD1D04A8032126845
:102E5000012A01D00A2B63D1CD4A1378FF2B5FD111
:102E60005378FF2B5CD19378FF2B59D1D378FF2B6C
:102E700056D192F85320682A52D1E646DCF870C049
:102E80008B46D1F82480C34AC349C44572D0C024BC
:102E90001460C2F8008075E1E86D012805D14FF497
:102EA000FA7036B1864200D1EC658C6094E702E09E
:102EB00004E0886090E78860506A8CE7886014209E
:102EC00089E7976AC5E91E7407E002E008E012E0AE
:102ED00018E0AC67DCF81C70EF670C604C6090E7A2
:102EE000AC67EC670C604C60976B6F678AE71AE021
:102EF00020E026E02CE0AC67EC67176B7F08C1E9A7
:102F000000747EE7AC67EC670C604C606C67DCF8C3
:102F1000207037B18F6276E725E02CE034E03AE0AC
:102F20004AE188626FE7DCF82880C1F80C804FF036
:102F3000D30815E0DCF82C80C1F80C804FF0D408E1
:102F40000EE0DCF83480C1F80C804FF0D50807E0C3
:102F5000DCF830804FEA5808C1F80C804FF0D608F2
:102F6000C1F818805AE7D2F84480C1F810804FF0B9
:102F7000E10806E018E0D2F84880C1F810804FF070
:102F8000E208C1F81C8053E7D2F850C0C1F814C061
:102F90004FF0E40C05E0D2F854C0C1F814C04FF073
:102FA000E50CC1F820C04CE7DBF808C0B44501D0FF
:102FB000CD2448E0DFF8D481DBF8046008F1800814
:102FC000D8F814C0664503D0C3242EE01460D9E0BD
:102FD000AE6FD8F80CC0664501D0C42425E0D8F8FF
:102FE0000860D5F87CC0664501D0C5242BE0DEF82A
:102FF0007CC0DEF81860664501D0C62415E0DBF819
:103000000060D8F810C0664501D0C7240DE05F4EBF
:10301000D8F804C0366A664501D0C82405E06E6F52
:10302000D8F818C0664505D0C9241460F4B21460FD
:10303000340ACBE7C646DBF828C0D8F824805E46C1
:10304000C44507D0C12414600CF0FF0414604FEA9B
:103050001C24BBE7DFF834C1DEF83880DCF83CC064
:10306000C44504D0D2241460C2F800C08AE0F046FF
:103070006FB1D8F844C0674504D1F768D8F840C0AC
:1030800067450AD0B4691460DBF80C4041E0D8F819
:10309000447017B1D026166098E7DFF8F0E0C44618
:1030A000D8F84880DEF84070474501D0E3241DE0A1
:1030B000BAF1000F0DD0DCF84C80C24504D137695D
:1030C000DCF85080474509D0F4691460DBF8104003
:1030D0001FE0DCF84C700FB1E02451E0DEF84C70DA
:1030E000DCF85880F246474503D0E62414601760A8
:1030F00048E0B9F1000F10D0DCF85C80C14504D184
:103100007769DCF8608047450ED0346A1460DBF8DC
:103110001440E6B21660240A58E7DCF85C701FB170
:10312000E0241460042451E7DCF864C0DAF8587035
:10313000BC4505D0E7241460FCB214603C0A45E7A6
:10314000D5E9157CBC4501D0F024CFE7DFF83C8001
:10315000D5E9117C98F80490674501D1E14535D057
:1031600057EA09084FF0CF0A02D1BCF1010F06D08F
:10317000A7B1012F20D1BCF1000F1FD02AE0544687
:10318000146010601360086021E000007C010020E2
:10319000986D00200000074098480040B9F1010FE9
:1031A0000AD1F76A012F07D1C2F800A0146013609A
:1031B000AC64CBF82C400860BDE8F08FC2F800A0EA
:1031C00014601360CBF82C40086003E00C60696C5D
:1031D0000129F1D1CBF82C00EEE7000070B50646CE
:1031E00008480D460024426807A10848FEF720FA67
:1031F000064903E0325D0319641CCA54AC42F9DB92
:1032000070BD000088000020257300000C0900201C
:1032100070B50A24114D002162182B689E5C2E2E79
:1032200006D09A5C4254491C4029F5DB002070BD51
:1032300062181A445378682BF8D19378742BF5D11F
:10324000D3786D2BF2D113796C2BEFD10844D2F8DF
:103250000110C0F80110012070BD0000D807002047
:103260002DE9F0430027894684463E463D463946CF
:10327000384646E01CF807400D2C28D00A2C26D0F2
:103280007B2C16D0222C17D0A4F13008B8F14A0FAD
:1032900030D83A2C30D0F9B1022923D0032922D0DA
:1032A000062923D0072922D0012910D005290ED0C4
:1032B00026E061B9012123E071B1012909D0022979
:1032C00005D0032907D0052907D0072907D00021F9
:1032D00016E0022114E0042112E0062110E0012092
:1032E000BDE8F08303219455761C09E007215C5565
:1032F0006D1C05E03A2C03D111B1042900D1052140
:103300007F1C4F45B6DBEBE70F2202490248FEF770
:1033100067B90000BE0300200010074010B53A4C0A
:103320000D2238492046FEF75BF900F06FFEFEF7EC
:103330006BFC052235492046FEF752F90322344939
:103340002046FEF74DF92F490D220D312046FEF79C
:1033500047F900F061FEFEF757FC05222B49204695
:10336000FEF73EF903222A492046FEF739F901F01B
:103370003FF8032822D001F03BF8042828D001F0C0
:1033800037F805282DD001F033F81E4906284FF0F4
:103390001102A1F1110120462FD0FEF721F90020E2
:1033A000FEF732FC052219492046FEF719F920469E
:1033B000BDE8104003221649FEF712B91149112247
:1033C00011392046FEF70CF901F050F80A2111E0FE
:1033D0000C49112211392046FEF702F900F0A8FE2F
:1033E000DEE70849112211392046FEF7F9F800F00E
:1033F000E3FF2821B0FBF1F0D2E7FEF7F1F800F08F
:10340000FDFECDE7AA06002000100740480300207B
:103410002C0000200E2202490248FEF7E1B800000D
:103420007C060020001007402DE9F0415548574B1D
:10343000312600783027544C0A2505284FF0110218
:1034400004F202419846184659D0FEF7C9F800F038
:1034500089FF05287ED0277001224B49444640460B
:10346000FEF7BEF803224A492046FEF7B9F80A22C1
:1034700048492046FEF7B4F800F074FF05287DD0D7
:1034800000F0C2FFB0FBF5F0FEF7BEFB3E4905229F
:1034900010312046FEF7A4F803223D492046FEF7EE
:1034A0009FF83C490F220A312046FEF799F800F0B8
:1034B00071FFFEF7A9FB3449052210312046FEF7C3
:1034C0008FF8032232492046FEF78AF8314912224A
:1034D00019312046FEF784F800F0B8FFB0FBF5F094
:1034E000FEF792FB2849052210312046FEF778F8B6
:1034F0002046BDE8F04103222549FEF771B8FEF7EA
:103500006FF800F035FF022831D0277001221E49E4
:1035100044464046FEF764F803221D492046FEF764
:103520005FF80A221B492046FEF75AF800F020FFF8
:1035300002281ED000F072FFB0FBF5F0FEF764FB2E
:103540001149052210312046FEF74AF8032210499E
:10355000204601E010E011E0FEF742F80D490F228D
:103560000A312046FEF73CF800F01AFFB8E7267053
:10357000CCE700F0B5FDE1E726706DE700F0A0FDB7
:1035800082E700007D010020380300200010074082
:103590002C0000204B07002010B500F0CBFE1B4C88
:1035A00001282FD01A4918222046FEF719F80722C1
:1035B00018492046FEF714F800F014FFFEF724FB2C
:1035C0001449052267392046FEF70AF803221249FA
:1035D0002046FEF705F80F490722C91F2046FDF7D0
:1035E000FFFF00F025FDFEF70FFB0A4905226739B2
:1035F0002046FDF7F5FF2046BDE8104003220649AE
:10360000FDF7EEBF02491A221831CDE7001007403E
:1036100076070020AF0300202C00002070B5394D44
:10362000092237492846FDF7DBFF00F0D5FEFEF7FB
:10363000EBFA052234492846FDF7D2FF032233492D
:103640002846FDF7CDFF2E49092209312846FDF70E
:10365000C7FF00F0E3FDFEF7D7FA05222A49284606
:10366000FDF7BEFF032229492846FDF7B9FF24498B
:103670000B2220312846FDF7B3FF00F07BFDFEF75B
:10368000C3FA052220492846FDF7AAFF03221F4955
:103690002846FDF7A5FF1A490E2212312846FDF7EC
:1036A0009FFF00F017FDFEF7AFFA032216492846E8
:1036B000FDF796FF144C2E20103C0122207021466D
:1036C0002846FDF78DFF104E01222146F07820702C
:1036D0002846FDF785FF30792070012221462846D3
:1036E000FDF77EFF22202070012221462846FDF7AB
:1036F00077FF2846BDE8704003220449FDF770BFFC
:10370000C406002000100740480300202C000020C1
:1037100010B5204C0C221E492046FDF761FF00F039
:1037200081FCFEF771FA05221B492046FDF758FF80
:1037300003221A492046FDF753FF17490722593142
:103740002046FDF74DFF00F089FDFEF75DFA0522EA
:1037500011492046FDF744FF032210492046FDF79A
:103760003FFF0D49072252312046FDF739FF00F097
:103770001DFEFEF749FA052207492046FDF730FFF6
:103780002046BDE8104003220449FDF729BF000090
:103790002E07002000100740480300202C000020C6
:1037A000112202490248FDF71BBF000082050020DC
:1037B00000100740102202490248FDF711BF000027
:1037C0005D0600200010074070B500F0D7FD0A2507
:1037D000704C022833D000F0D1FD03283DD000F01A
:1037E000CDFD042847D000F0C9FD052855D000F0D4
:1037F000C5FD06284FF03C025DD067492046FDF725
:10380000EFFE0A2265492046FDF7EAFE00F038FE89
:10381000B0FBF5F0FEF7F8F95F490522853920463F
:10382000FDF7DEFE03225E492046FDF7D9FE00F0DB
:10383000E5FD4FF0390278B3584947314AE056491F
:103840003D2278312046FDF7CBFE0A22534920461F
:10385000FDF7C6FE00F066FCDCE74F493D22B531BE
:103860002046FDF7BDFE0A224C492046FDF7B8FE72
:1038700000F020FCCEE7494951228D392046FDF762
:10388000AFFE0A2245492046FDF7AAFE00F09EFD44
:103890002821B0FBF1F0BDE71AE040493C223C3959
:1038A0002046FDF79DFE0A223C492046FDF798FE82
:1038B00000F09EFCAEE7384920463C31FDF790FE13
:1038C0000A2236492046FDF78BFE00F02DFD9FE7CA
:1038D000324980312046FDF783FE00F049FD4FF06C
:1038E000150210B12D49B93101E02C49CE312046E5
:1038F000FDF776FE00F036FD4FF0170210B12749B4
:10390000E33101E02549FA312046FDF769FE2349FC
:1039100012220A312046FDF763FE00F085FCFEF717
:1039200073F91D49052285392046FDF759FE03220A
:103930001B492046FDF754FE18490C221C31204635
:10394000FDF74EFE00F06EFBFEF75EF91249052210
:1039500085392046FDF744FE032211492046FDF734
:103960003FFE0E490E2228312046FDF739FE00F0B9
:10397000F3FCB0FBF5F0FEF747F90749052285395E
:103980002046FDF72DFE2046BDE870400322044985
:10399000FDF726BE00100740CD0300204C05002097
:1039A0002C00002010B50D4C0F220B492046FDF7CE
:1039B00017FE00F071FD0A21B0FBF1F0FEF724F9CB
:1039C000052207492046FDF70BFE2046BDE81040C2
:1039D00003220449FDF704BE8A06002000100740B8
:1039E000480300202C0000200F2202490248FDF766
:1039F000F7BD00006D060020001007402DE9F041E2
:103A0000DFF8FC830922FD494046FDF7E9FD00F09F
:103A10009DFCFEF7F9F8FB4D0322A5F10F06A878EF
:103A20003070E87870702879B07031464046FDF704
:103A3000D7FD741E2F202070012221464046FDF73D
:103A4000CFFD00F07DFCFEF7DFF8A8783070E87855
:103A500070702879B0700322611C4046FDF7C0FDEC
:103A600022262670012221464046FDF7B9FD032299
:103A7000E5494046FDF7B4FD00F0DCFB274609228E
:103A8000786004F579714046FDF7AAFD7868002852
:103A900003DA2D212170404201E02B212170D94908
:103AA000B860012210394046FDF79AFDB868B0F5BC
:103AB0007A7F7DDAFEF7A8F8B868632807DDA87872
:103AC000D0492070012210394046FDF789FDB868C1
:103AD000092807DDE878CB492070012210394046DB
:103AE000FDF77EFD2879C749207001221039404634
:103AF000FDF776FDC3492670012210394046FDF7D7
:103B00006FFD0322C0494046FDF76AFDBD4907220B
:103B1000491D4046FDF764FD00F0EEFBFEF774F82A
:103B20000522B8494046FDF75BFD0322B6494046F1
:103B3000FDF756FDB34907220C314046FDF750FD15
:103B400000F092FBFEF760F80522AE494046FDF713
:103B500047FD0322AC494046FDF742FDA949072233
:103B600013314046FDF73CFD00F096FBFEF74CF8A4
:103B70000522A4494046FDF733FD0322A2494046F1
:103B8000FDF72EFD9F4907221A314046FDF728FD1B
:103B900000F09AFBFEF738F805229A494046FDF7F7
:103BA0001FFD032298494046FDF71AFD072200E059
:103BB000ACE1944940462131FDF712FD00F0F6F9E1
:103BC000FEF722F805228F494046FDF709FD032242
:103BD0008D494046FDF704FD8A49072228314046B9
:103BE000FDF7FEFC00F02AFAFEF70EF805228549E3
:103BF0004046FDF7F5FC032283494046FDF7F0FC03
:103C0000804907222F314046FDF7EAFC00F0D8FA40
:103C1000FDF7FAFF05227B494046FDF7E1FC032250
:103C200079494046FDF7DCFC7449092236394046A3
:103C3000FDF7D6FC00F0FCFBFDF7E6FF0222714920
:103C40004046FDF7CDFC6F492E2727700122103921
:103C50004046FDF7C5FCA8786A492070012210395A
:103C60004046FDF7BDFCE878664920700122103916
:103C70004046FDF7B5FC28796249207001221039D1
:103C80004046FDF7ADFC5F492670012210394046E1
:103C9000FDF7A6FC03225C494046FDF7A1FC59490B
:103CA00007223D314046FDF79BFC00F04FF9FDF740
:103CB000ABFF052253494046FDF792FC03225249CF
:103CC0004046FDF78DFC4F49072236314046FDF74F
:103CD00087FC00F053F9FDF797FF0522494940465C
:103CE000FDF77EFC032248494046FDF779FC454933
:103CF00008226E314046FDF773FC00F00FF9FDF726
:103D000083FF05223F494046FDF76AFC03223E49F6
:103D10004046FDF765FC3B4907224B314046FDF725
:103D20005FFC00F035FAFDF76FFF0522354940468C
:103D3000FDF756FC032234494046FDF751FC2F495C
:103D4000092224394046FDF74BFC00F0D3F9FDF77A
:103D50005BFF03222B494046FDF742FC29492770AF
:103D6000012210394046FDF73BFCE87825492070D8
:103D7000012210394046FDF733FC28792149207093
:103D8000012210394046FDF72BFC1E492670012206
:103D900010394046FDF724FC03221B494046FDF73D
:103DA0001FFC164909221B394046FDF719FC00F09B
:103DB00015F9FDF729FF032212494046FDF710FCD3
:103DC00010492770012210394046FDF709FCE878B8
:103DD0000C492070012210394046FDF701FC28797A
:103DE00008492070012210394046FDF7F9FB0549CA
:103DF000012226701039404608E000002507002007
:103E000000100740480300202C000020FDF7E8FBCD
:103E100003223F494046FDF7E3FB09223D49404666
:103E2000FDF7DEFB00F08EF9FDF7EEFE03223A49C6
:103E30004046FDF7D5FB384927700122103940462E
:103E4000FDF7CEFBE8783449207001221039404656
:103E5000FDF7C6FB28793049207001221039404611
:103E6000FDF7BEFB2C492670012210394046FDF7B4
:103E7000B7FB032226494046FDF7B2FB254909223C
:103E80001B314046FDF7ACFB00F0FCF8FDF7BCFE33
:103E9000032221494046FDF7A3FB1F492770012259
:103EA00010394046FDF79CFBE8781B492070012241
:103EB00010394046FDF794FB2879174920700122FC
:103EC00010394046FDF78CFB13492670012210394A
:103ED0004046FDF785FB03220D494046FDF780FB78
:103EE0000D49072244314046FDF77AFB00F0DAFA2B
:103EF000FDF78AFE052208494046FDF771FB404662
:103F0000BDE8F04103220249FDF76ABB3020EAE533
:103F10002C000020F8060020480300200448054932
:103F2000C06B00EBC00001EBC000C06A704700002E
:103F30007C020020E0250020034900EBC00001EBDB
:103F4000C000C06A70470000E02500200448054911
:103F5000C06B00EBC00001EBC000406A704700007E
:103F60007C020020E0250020034900EBC00001EBAB
:103F7000C000406A70470000E02500200448054961
:103F8000C06B00EBC00001EBC000806A704700000E
:103F90007C020020E0250020034900EBC00001EB7B
:103FA000C000806A70470000E025002004480549F1
:103FB000C06B00EBC00001EBC0004069704700001F
:103FC0007C020020E0250020034900EBC00001EB4B
:103FD000C000406970470000E02500200448054902
:103FE000C06B00EBC00001EBC000806B70470000AD
:103FF0007C020020E0250020034900EBC00001EB1B
:10400000C000806B70470000E02500200148006F71
:10401000704700007C0100200148806B7047000061
:10402000FC0100200148006F704700007C01002067
:104030000148C06C704700007C020020044805491C
:10404000C06B00EBC00001EBC0008069704700004E
:104050007C020020E0250020034900EBC00001EBBA
:10406000C000806970470000E02500200148406ED4
:10407000704700007C0100200148806D70470000FF
:104080007C02002004480549C06B00EBC00001EB36
:10409000C000006C704700007C020020E02500207A
:1040A000034900EBC00001EBC000006C704700004A
:1040B000E02500200148806870470000FC010020D6
:1040C0000348C16D052901D000207047006E70477C
:1040D000FC0100200148806F70470000FC010020B7
:1040E0000348C16C022901D000207047006D704761
:1040F000FC01002004480549C06B00EBC00001EB47
:10410000C000406B704700007C020020E0250020CA
:10411000034900EBC00001EBC000406B704700009A
:10412000E02500200148C06870470000FC01002025
:104130000348416C042901D000207047006C70478F
:10414000FC01002004480549C06B00EBC00001EBF6
:10415000C000C06B704700007C020020E0250020FA
:10416000034900EBC00001EBC000C06B70470000CA
:10417000E0250020044904488031806F496F0843DE
:1041800001D00248806B70477C0100207C02002037
:1041900004480549C06B00EBC00001EBC000006B98
:1041A000704700007C020020E0250020034900EB5E
:1041B000C00001EBC000006B70470000E02500204C
:1041C00004480549C06B00EBC00001EBC000C069AA
:1041D000704700007C020020E0250020034900EB2E
:1041E000C00001EBC000C06970470000E02500205E
:1041F0000148006B704700007C0100200348416CBF
:10420000062901D000207047006B7047FC01002098
:104210000148806E704700007C0100200148406F1B
:1042200070470000FC0100200148C06F704700008B
:104230007C01002003480449C06B00EBC00051F82A
:10424000300070477C020020E0250020024900EB8E
:10425000C00051F830007047E02500200148406F51
:10426000704700007C01002004480549C06B00EB4A
:10427000C00001EBC0008068704700007C02002095
:10428000E0250020034900EBC00001EBC00080687E
:1042900070470000E025002004480549C06B00EB92
:1042A000C00001EBC000C068704700007C02002025
:1042B000E0250020034900EBC00001EBC000C0680E
:1042C00070470000E025002004480549C06B00EB62
:1042D000C00001EBC0000069704700007C020020B4
:1042E000E0250020034900EBC00001EBC00000699D
:1042F00070470000E025002004480549C06B00EB32
:10430000C00001EBC0004068704700007C02002044
:10431000E0250020034900EBC00001EBC00040682D
:1043200070470000E02500200148406A7047000007
:10433000FC0100200148406C704700007C02002016
:104340000148006E704700007C0100200148C06BEE
:10435000704700007C020020014840687047000060
:10436000FC0100200148C06D70470000FC010020E6
:104370000148C06C70470000FC0100200148406B00
:10438000704700007C010020014840687047000031
:104390007C0200200148806D70470000FC01002075
:1043A0000148806C70470000FC0100200148006F4C
:1043B00070470000FC0100200348416C052901D032
:1043C00000207047006C7047FC01002001488069A4
:1043D00070470000FC0100200148006870470000A1
:1043E0007C0200200148006D704700007C02002024
:1043F0000148406C70470000FC0100200148C06B80
:1044000070470000FC0100200348C16D042901D061
:1044100000207047006E7047FC0100200348C16C0B
:10442000012901D000207047006D7047FC01002079
:1044300004480549C06B00EBC00001EBC000006AF6
:10444000704700007C020020E02500200148406EFB
:1044500070470000FC010020034900EBC00001EBA5
:10446000C000006A70470000E02500200348416C4E
:10447000032901D000207047006C7047FC01002028
:104480000148406970470000FC0100200148C06DF0
:10449000704700007C0100200148806F70470000D9
:1044A0007C01002004480549C06B00EBC00001EB13
:1044B000C000406C704700007C020020E025002016
:1044C000034900EBC00001EBC000406C70470000E6
:1044D000E025002030B50C4A0C4D1046916A40F2A0
:1044E000B4530B4C406A9942286008DD238000F2E7
:1044F000B450A1F2B451C2E90901032030BD2180BA
:1045000000209062022030BD48000020DC0700201F
:10451000CA07002010B50446016810A0FDF778F81E
:1045200011A06168FDF774F812A0A168FDF770F89A
:1045300013A0E168FDF76CF814A02169FDF768F895
:1045400015A06169FDF764F816A0A169FDF760F890
:10455000E169BDE8104016A0FDF75AB8723020207E
:104560003D20307825780A00723120203D203078B7
:1045700025780A00723220203D20307825780A0004
:10458000723320203D20307825780A0072313220A5
:104590003D20307825780A006C7220203D2030784C
:1045A00025780A00706320203D20307825780A00A5
:1045B000707372203D20307825780A00C27852FA54
:1045C00081F3154AD370837803EB112393704378FA
:1045D0005370007810709078B0EB112F07D250789C
:1045E000401C5070507810B91078401C1070D07872
:1045F000C9B288420ED29078401C90709078002802
:1046000008D15078401C50705078002802D11078A2
:10461000401C107070470000EC07002010B5094CDA
:104620000146206A0830FFF7C9FF04F128010A7823
:10463000206A02724A7842728A788272C978C1729C
:1046400010BD0000C4070020F0B4214F39880020BD
:104650002A2902D23880F0BC704738801D484FF4B8
:1046600000760146858ACC8C0B8D1B49B5F5807F81
:104670000A8849880BD0B542EDD19442EBD18B42E8
:10468000E9D1F0BC00F116011C3000F005B99442EC
:10469000E1D18B42DFD18682D0F8163003620F4E13
:1046A000448B8484B568C0F81650B6894683C0F838
:1046B0000650468103608480838BC384C38B03854B
:1046C0008283C1834FF4C16181812A20C2E7000047
:1046D000C80700202C9E0020D2070020F8070020E9
:1046E0000E4930B408880E3808800E4B0C490E4C29
:1046F00018884A8B258802400540AA420CD1588868
:104700008A8B6388024003409A4205D101F11A0066
:1047100030BC891D00F0C0B830BC7047C80700200D
:104720002C9E0020F4070020D20700202DE9F05F26
:10473000414B404F414A1888F98BB2F8009001EA8A
:10474000000509EA00023D483D4C9542468806D1E5
:104750003A8C588802EA00033040834205D0394839
:10476000018821804088608001E021806280344A95
:104770004FF0000A121F344B82F800A0258864888D
:104780005046C0B200EB400103EB8101B1F800C01C
:10479000654503D1B1F802C0644504D0401CC0B2E5
:1047A00010700828EDD31078DFF8A0B090460828E4
:1047B00013D0486838600889B880D8F80810C7F85E
:1047C0000610B8F80C0078810820B881BBF80010FA
:1047D00058460E310180BDE8F09FFF2206211548A2
:1047E000FBF799FDC7F820A0A7F824A0D8F8080087
:1047F000C7F80600B8F80C107981C7F8160079835D
:10480000FD843C85A7F81C90FE834FF48070B8822D
:10481000F881082038820620B8740420F8744FF418
:10482000C160B88103480A49363008602A215846D9
:10483000D0E700002C9E0020F4070020D2070020C3
:10484000FC070020F0070020E8A50020C807002092
:10485000D8070020F0B50E4B0E4D9878401CC2B220
:104860009A7000241C70197801EB410005EB800060
:10487000068847883E4304D0867A961B782E00DB54
:104880000460491CC8B218700828ECD3F0BD0000C1
:10489000F8070020E8A50020F0B5294F4FF0000EE2
:1048A000DFF8A0C087F800E03B7803EB43020CEB95
:1048B0008202158875B1548864B10688AE4209D168
:1048C0004588A54206D10868506088881081B8786C
:1048D0009072F0BD5B1CDAB23A70082AE4D387F814
:1048E00000E03B7803EB43020CEB820214880CB926
:1048F000548824B15B1CDBB23B70082BF1D3DBB2D4
:10490000082B19D187F803E087F801E087F800E069
:10491000BE783B78FD7803EB43020CEB8202947A7D
:10492000341BAC4201DDFC707B705B1CDBB23B7066
:10493000082BEED37B783B7000681060C3E7000063
:10494000F8070020E8A5002070B50546002409E01E
:104950002888021994B2A04201D9641CA4B2891E0D
:1049600089B2AD1C0129F3D80DD128780002FDF7DA
:1049700031FC204484B228780002FDF72BFCA042D1
:1049800001D9641CA4B2204670BD00001421014866
:10499000FFF7DABF3A9E0020094A10B50021094B03
:1049A0009170C9B233F811402CB1491CC9B2917051
:1049B0000A29F6D310BDC9B223F8110010BD0000BA
:1049C000C4070020A8A500202DE9F05FF44EF549AA
:1049D0003246346A00254FF0030B4FF01009516145
:1049E000022812D001F25A74A1F136076088401CE7
:1049F00060802046B97B0088401C80B2452972D077
:104A00002080E088401CE08089E0E5492431C878B6
:104A1000401C10F0FF00C8700ED18878401C10F0C8
:104A2000FF00887008D14878401C10F0FF004870E3
:104A300002D10878401C0870B580607E072812D02B
:104A4000052810D00028DFD0218AA9B3A07E411EFE
:104A5000A176D9D2E07E082828D0617E02290AD02A
:104A6000012908D009E0A07E401CC0B2A0767828B9
:104A7000CAD16576E4E3032818D0042800D90420BD
:104A80000BFA00F1A176E07EC749401CE076C88CA5
:104A9000401CC884607E00F00F000928B4D2DFE813
:104AA00000F03EFD0C11FC3EFC3EFC0065768020D3
:104AB0007070FDF791FB08E30BE0BA48363880F8D8
:104AC0002F509AE1B580F58004207070FDF784FBCB
:104AD00023E300F00F00032896D1B580F58008206D
:104AE0007070EBE2FFE7397CB288B1EB122F03D094
:104AF000B28861F31F22B280797CB288D2B291422F
:104B000004D0B28802F47F420A43B280397D89061C
:104B100001D1797D21B12080A089401CA0818FE343
:104B20009F4BF98B0E331A88914203D1398C5A88E6
:104B3000914201D0208083E3FFF728FF4FF6FF78F2
:104B4000404506D02088401C2080E089401CE08140
:104B500076E3F87D06282ED0012806D02088401C58
:104B60002080208A401C20826AE3A08A401CA08208
:104B700097F82200082806D0608A401C6082208BAB
:104B8000401C20835CE387F82250B88C4FF6F77105
:104B9000884201D3093000E00830B884F88B798B63
:104BA000F9837883388CB081B98B3984B883E08AF3
:104BB000401CE0826DE3A18BA246491CA18300F05A
:104BC0009FFB40450AD0BAF81A10491CAAF81A10DF
:104BD000BAF82010491CAAF8201031E3734C798CE4
:104BE000B7F81A80B7F81CC004F5C873B88C0EE08B
:104BF000627E5AB1A288904208D1E288914205D1E2
:104C00002288904502D16288944571D028349C4214
:104C1000EED397F82F1001F03F01022912D1624A1A
:104C2000B081B570143AB17832F81130834260D057
:104C3000491CC9B2B1700A29F5D3BAF82A10491C27
:104C4000AAF82A1097F82F0040078DD4BAF824103C
:104C50001420491CAAF8241087F82F002820B080BF
:104C6000502087F82E0097F8293097F82D0087F804
:104C7000290097F8281097F82C0087F8280087F863
:104C80002C1097F8272097F82B0087F8270087F833
:104C90002B2097F82600B07001E0C9E1AAE097F850
:104CA0002A4087F826405B1C87F82A0013F0FF0390
:104CB00087F82D300ED1491C11F0FF0187F82C1018
:104CC00008D1521C12F0FF0187F82B1002D1401CB2
:104CD00087F82A00788CB98C7984B884F88B798B22
:104CE000F9837883388CB081B98B3984B883AEE28C
:104CF000A5E0DFF8B8C00024B570B17801EB810001
:104D00000CEBC000427E12B1072A06D00BE0C8B2FD
:104D100000EB80000CEBC0040AE01CB1827EA37E95
:104D20009A4200D90446491CC8B2B0700A28E4D39C
:104D3000F4B3346284F81AB084F818B0A57504206E
:104D4000E075E576B88CA080788CE08037F81A0F93
:104D500020807888608012480122243062760178B1
:104D60002173417861738178A173C078E0732282E6
:104D7000F87BE072B87BA072787B6072387B20721F
:104D8000B0460120FFF74AFC387D1A3F00F0F001E1
:104D900050292FD90009820088F80250143A25E0E2
:104DA000C4070020629E0020BCA5002018A400209B
:104DB000FFE7BAF82810491CAAF8281040E23B186F
:104DC00093F8361088F80310A1B1012902D0022906
:104DD00002D005E0401C07E093F83710042920D0EA
:104DE00093F8371031B1084488F8020098F80200AF
:104DF0008242E4DCFE4981F82F90FD4810F82F1F15
:104E000041F0020100F801190221017204214172EE
:104E100005218172B421C1722C21B1806021017001
:104E2000D2E1C0B2384440F2B451008F40BAA8F881
:104E30000C00884200D908466082A082DAE734621A
:104E4000757097F82F20500702D5657620207FE1F6
:104E500097F82E00B84600098000B070B188081A93
:104E60001438B080B088A0B198F82600217A884222
:104E70006FD197F82700617A3B468842F8D193F8C2
:104E80002800A17A8842F3D197F82900E17A884274
:104E9000EED1D0063FD5218AE9B304F10C00FFF72B
:104EA0008DFBD44898F82A1043460278914232D1BB
:104EB00093F82B10427891422DD193F82C108278E0
:104EC000914228D198F82D10C278914223D10178CF
:104ED0002173417861738178A173C078E073E07EBB
:104EE000A8B9207EA17E401AA17DA0EBD10040B2DE
:104EF0000144C9B2A175002801DA404240B2E27D06
:104F0000A0EB92001044E07500EBD1002076012068
:104F10007070207EA076607E00F00F0009287DD2A0
:104F2000DFE800F07C05186AF0EFEE17ED0070780E
:104F3000C00773D084F819B0402070702582B08803
:104F4000F0B3707840F002007070B088FFF766FB35
:104F5000B3E031E17078C0073FF474AE98F82F00E9
:104F600012287FF46FAE98F82E0000F0F00150295F
:104F70001DD900098300B570143B15E008EB000251
:104F800092F83610F17091B1012902D0022902D0B5
:104F900005E0401C07E092F8371004291FD092F872
:104FA000371021B10844B070B0788342E6DC84F851
:104FB00019B098F82600207298F82700607200E077
:104FC0007BE098F82800A07298F82900E072012090
:104FD000FFF724FB422070702582B5806DE0C0B2DF
:104FE000404440F2B451008F40BAB081884200D9A9
:104FF00008466082A082DAE798F82F00C10719D02E
:10500000208A00280AD1B088401C80B2FFF706FB36
:1050100086F80190B08828B1707800E09BE040F0FD
:1050200002007070FDF7D8F801202082082058E0B7
:1050300011204BE0800616D5B8F8340040BA307025
:105040003078B188884201D9B08830703078FFF765
:10505000E5FAB0883178401AB0807069F061317833
:10506000084470610BE03570B8F83400726941BAD9
:1050700012FA81F17161B18840BA081AB080B08823
:1050800048B1607EC00606D4707840F002007070AF
:10509000B088FFF7C3FA98F8310098F8301000EBA9
:1050A000012080B2B081A18A814200D300B9B181D0
:1050B000B0896082707880074DD0F580FDF78CF85C
:1050C0007078800606D5F58065761420484981F809
:1050D0002F0073E07078C00606D5F580012020828D
:1050E00004206076E576A3E7F088A0B17078C00769
:1050F00001D0258207E0208A28B1F0800CE022E070
:1051000098E04AE028E0608AF188884200D2F08086
:10511000F088208200E02582E576B0697061F08831
:1051200040B1208A30B12830B0803149182081F850
:105130002F0045E0707880070DD52820B0802C49DD
:1051400081F82F903CE07078C00779D065764846AA
:105150007070FDF741F873E0B08810B1B088FFF7C8
:105160005DFA98F82F00C00770784FEAC0700FD032
:1051700020B107206076A576258201E006206076C2
:105180000120FFF74BFA86F80190FDF725F813E0B0
:1051900080B105206076258252E0B08810B1B088D9
:1051A000FFF73CFA98F82F00C00703D0072060767D
:1051B000A576E5E7B088E0B388F82F902820B08086
:1051C0000B49502081F82E000948217A80F82A10D6
:1051D000617A80F82B10A17A80F82C10E17A80F89F
:1051E0002D10217B80F82610617B80F8271003E0CA
:1051F0002C9E0020EC070020A17B80F82810E17B8A
:1052000080F829100621C175A1884184E188818434
:1052100022490A884283498881832188C183618821
:105220000184617EC9060ED580F8315080F8305077
:105230000DE005E07078C00702D007206076A57603
:10524000B580BDE8F09F802100F8301F4570B08820
:10525000134C000A2074B0886074658600F050F822
:10526000C04360864520A073E57365752575FF20F2
:10527000A0753089401C3081010AA174E074258337
:10528000FFF784FBC043208304F5F260C18B491C07
:10529000C18304498888401C8880D2E7D207002057
:1052A0002C9E0020BCA5002070B5114C0025E06AA2
:1052B000216B884202D1606B0028F8D0606BA0B1EE
:1052C0000C490820C1F88001606B38B1626B0A4953
:1052D0000A48FBF70EF8656B002060634320FBF77C
:1052E000A1FDE06A2063284670BD206B401CF9E7F1
:1052F0004800002008E000E00C1900202C9E00204F
:1053000070B514212848FFF71FFB274D0446223DA6
:105310006FF02702297C687C02EB0121084481B2EE
:1053200022480068FFF710FB204481B2A14201D25D
:10533000491C89B26A8B501880B2904201D2401C3D
:1053400080B2A98B084480B2884201D2401C80B24E
:10535000E98B084480B2884201D2401C80B2298C7B
:10536000084484B28C4201D2641CA4B20620FCF72B
:1053700031FF204484B20620FCF72CFF844201D286
:10538000641CA4B2297C687C6FF0130202EB01213B
:10539000084480B2FCF71EFF0146601880B28842C4
:1053A00001D2401C80B270BD4E9E0020D807002064
:1053B00010B536220A490B48FAF79BFF0A4C2088A1
:1053C000362807D922880948363A01680548363018
:1053D000FAF78FFF2188BDE810400248FBF772BC46
:1053E0002C9E0020F61E0020C8070020D8070020B1
:1053F00070B50C4605460B223CA1FAF7A5FF002824
:1054000027D00A223CA12846FAF79EFF78B308224B
:105410003CA12846FAF798FF002850D007223CA16B
:105420002846FAF791FF002850D010223AA12846CA
:10543000FAF78AFFF0B30D223CA12846FAF784FF61
:10544000002851D12046FAF78EFFBDE8704000F0E9
:10545000F7BA2046FAF787FF022804D0032802D0C3
:10546000052800D00120BDE8704000F0FBBAFEF72F
:1054700085FF01280CD0022811D0032816D005285A
:1054800032D12046FAF76FFFBDE8704000F09EBAB7
:105490002046FAF768FFBDE8704000F01FBB2046C9
:1054A000FAF761FFBDE8704000F084BA2046FAF7D1
:1054B0005AFF00E011E0BDE8704000F069BA2046F4
:1054C000FAF751FFBDE8704000F0EABA2046FAF75B
:1054D0004AFFBDE8704000F04FBA2046FAF743FF9C
:1054E000BDE8704000F084BA70BD00006D6F646567
:1054F0005F73656C656374006D6F64655F76616C86
:10550000756500007669625F6D6F6465000000007C
:105510007669625F616D7000747269676765725F5A
:105520007072657373757265000000007072657348
:10553000737572655F74696D6500000010B50C4687
:105540000A2206A1FAF700FF002806D12046FAF742
:105550000AFFBDE8104000F0C7BA10BD61626F726B
:10556000745F74696D65000070B50C4605460D22C8
:1055700021A1FAF7E9FEC8B10E2223A12846FAF7C5
:10558000E3FED0B10C2224A12846FAF7DDFE50B389
:105590000D2225A12846FAF7D7FE00282AD1204659
:1055A000FAF7E1FEBDE8704000F08CBA2046FAF749
:1055B000DAFEBDE8704000F049BAFEF7D3FE0428D9
:1055C0000AD0FEF7CFFE052814D12046FAF7CBFE0D
:1055D000BDE8704000F0E2B92046FAF7C4FEBDE82D
:1055E000704000F063BA2046FAF7BDFEBDE8704097
:1055F00000F03EBA70BD0000706F73745F76696230
:105600005F6D6F6465000000706F73745F76696230
:105610005F76616C75650000706F73745F766962A8
:105620005F616D7000000000706F73745F76696277
:105630005F74696D6500000070B50C4605460C226C
:105640001AA1FAF781FE98B10D221CA12846FAF79B
:105650007BFEA0B10B221DA12846FAF775FE00289B
:1056600023D12046FAF77FFEBDE8704000F006BA6D
:105670002046FAF778FEBDE8704000F0EDB9FEF77D
:1056800077FE01280AD0FEF773FE02280DD12046CE
:10569000FAF769FEBDE8704000F086B92046FAF7D7
:1056A00062FEBDE8704000F007BA70BD7072655FC1
:1056B0007669625F6D6F6465000000007072655FFF
:1056C0007669625F76616C75650000007072655F77
:1056D0007669625F616D700070B50C4605460C22FC
:1056E00029A1FAF731FEC8B10D222BA12846FAF7FD
:1056F0002BFE00B305222CA12846FAF725FED8B3CD
:1057000005222BA12846FAF71FFE00283BD1204690
:10571000FAF729FEBDE8704000F022B92046FAF7FA
:1057200022FE032803D0042801D006282BD1BDE88F
:10573000704000F0B5B9FEF75BFE03280ED0FEF70F
:1057400057FE042811D0FEF753FE06281BD1204631
:10575000FAF709FEBDE8704000F03EB92046FAF7BE
:1057600002FEBDE8704000F0B3B92046FAF7FBFD39
:10577000BDE8704000F024B92046FAF7F4FDBDE81A
:10578000704000F0E7B870BD7365635F7669625F73
:105790006D6F6465000000007365635F7669625F2A
:1057A00076616C75650000007669625F61000000DB
:1057B0007669625F6200000070B559208407162187
:1057C0008822C4F80001C4F80011C4F80021D4F8FC
:1057D0000031002BF5D02D4D2846FAF7D1FE4FF4BD
:1057E000FC0200212846FBF785F8A06B28490840F9
:1057F000A063A06B27490843A063E06B6FF30F0021
:10580000E063E06B43F233310843E0630025C4F802
:1058100000512148FBF740F9FBF75CF94220FBF708
:1058200001FB4320FBF7FEFA1C4850F8901F41F0A3
:10583000010101604561016841F48071016018480F
:105840004AF6C0014FF400720180428015484FF4BF
:10585000C8420180428014484FF6FF72FF21028047
:1058600041800D48114902780A7042784A70827866
:105870008A70C278CA7002790A7140794871BDE8AD
:1058800070404FF4A040FFF787B8000005FE0B0002
:105890000F00000F404444308000002000B0004062
:1058A000D2070020F0070020F407002000080020A5
:1058B0002DE9F0410025FFF7F7FC224E30803088BB
:1058C00090B14FF40060FCF785FC1F4CA189884221
:1058D00026D1FEF705FF0120FFF776F83088002873
:1058E0002ED0FEF723FF27E0184FDFF86480002456
:1058F00004EB840007EBC0010220C8F80010FFF79A
:1059000063F8308818B1FEF711FFFFF751FD641CF2
:105910000A2CEDDB132D13D1BDE8F041FEF79ABF41
:1059200040F60600FCF756FCA189884208D1FEF734
:105930008BFE3088002803D0BDE8F041FFF738BD6A
:10594000BDE8F081C80700202C9E002018A400208C
:10595000E407002001494861704700007C010020F5
:105960000149C863704700007C010020014948627A
:10597000704700007C010020014948617047000029
:105980007C01002001494865704700007C0200202E
:105990000149C86170470000FC01002001494865C9
:1059A000704700007C0100200149886470470000B6
:1059B0007C01002001498862704700007C010020C2
:1059C0000149C86270470000FC01002001490863DA
:1059D000704700007C010020014908637047000007
:1059E000FC01002001498866704700007C0100200E
:1059F00001498861704700007C010020014908626C
:105A000070470000FC0100200149886470470000D5
:105A10007C0200200149C865704700007C0200201C
:105A20000549096E814205D3FF2803D8002801D01B
:105A30000249C863704700007C0100207C020020FE
:105A400001490862704700007C0100200149886616
:105A500070470000FC0100200149486570470000C4
:105A6000FC01002001494863704700007C010020D0
:105A70000149C864704700007C01002001490864A6
:105A8000704700007C010020014948637047000016
:105A9000FC01002001498863704700007C01002060
:105AA0000149C86370470000FC01002001490865F6
:105AB000704700007C0100200149486470470000E5
:105AC0007C01002001498865704700007C010020AE
:105AD0000149886270470000FC0100200149C8624A
