:020000040000FA
:1000000028AE002025020000650200000902000061
:10001000690200006B0200006D0200000000000099
:100020000000000000000000000000006F0200005F
:100030007102000000000000730200007502000061
:1000400077020000770200007702000077020000CC
:1000500077020000770200007702000077020000BC
:1000600077020000770200007702000077020000AC
:10007000770200007702000077020000770200009C
:10008000770200007702000077020000770200008C
:10009000770200007702000077020000770200007C
:1000A000770200007702000077020000770200006C
:1000B000770200007702000077020000770200005C
:1000C0006D11000077020000770200007702000047
:1000D000991200004D130000770200007702000023
:1000E000770200007702000077020000770200002C
:1000F000770200007702000077020000770200001C
:10010000770200007702000077020000770200000B
:1001100077020000770200007702000077020000FB
:1001200077020000770200007702000077020000EB
:1001300077020000770200007702000077020000DB
:100140007702000077020000550D0000CD0B000083
:1001500077020000770200007702000077020000BB
:1001600077020000770200007702000077020000AB
:10017000770200007702000077020000770200009B
:10018000770200007702000077020000770200008B
:10019000770200007702000077020000770200007B
:1001A000770200007702000077020000770200006B
:1001B000770200007702000077020000770200005B
:1001C000770200007702000077020000770200004B
:1001D000770200007702000077020000770200003B
:1001E000770200007702000077020000770200002B
:1001F00077020000DFF80CD000F018F90048004743
:10020000A52C000028AE002004207146084202D030
:10021000EFF3098001E0EFF308807146004A1047D0
:10022000F50D000014484FF0590101604FF0160120
:1002300001604FF0880101601048416841F480413D
:1002400041600F48416841F002014160416841F05E
:10025000040141600B48804707484FF000010160EE
:1002600009480047FEE7FEE7FEE7FEE7FEE7FEE798
:10027000FEE7FEE7FEE7FEE7000100400002004067
:10028000007000408D0F0000F50100002DE9F05FC7
:100290000546002092469B468846064681464024F5
:1002A0001BE0284641464746224600F076F8534672
:1002B0005A46C01A914110D311461846224600F002
:1002C0005DF82D1A67EB01084F46224601200021F8
:1002D00000F054F817EB00094E41201EA4F1010470
:1002E000DFDC484631462A464346BDE8F09F40EAF7
:1002F00001039B0703D009E008C9121F08C0042AA4
:10030000FAD203E011F8013B00F8013B521EF9D28A
:100310007047D2B201E000F8012B491EFBD27047B2
:100320000022F6E710B513460A4604461946FFF7C1
:10033000F0FF204610BD421C10F8011B0029FBD124
:10034000801A704730B505460020034600E05B1C6C
:10035000934205D2EC5CC85C201A01D1002CF6D186
:1003600030BD70B5064601F051F9046805460A2211
:100370000021304600F021F82C6070BD202A04DBFB
:10038000203A00FA02F1002070479140C2F12003A8
:1003900020FA03F3194390407047202A04DB203AE7
:1003A00021FA02F00021704721FA02F3D040C2F195
:1003B000200291400843194670472DE9F0479146C5
:1003C0000F4680460446002614F8015B2DB100F06C
:1003D0003FF80068405DC007F6D12B2D02D02D2DCF
:1003E00018D0641E4A463946204600F035F827B139
:1003F0003968A14201D1C7F8008071054FF00204AD
:100400000BD54042002803DD01F000F90460A0078D
:10041000BDE8F08746F48066E4E70028F8DA01F0EA
:10042000F5F804606FF00040F2E70000064C074D5D
:1004300006E0E06840F0010394E8070098471034B4
:10044000AC42F6D3FFF7DAFE30DE000050DE0000EB
:100450000048704718D800002DE9F05F8246007808
:10046000002715468B460AF10104B946302801D011
:100470009DB113E014F8010B0127782803D0582808
:1004800001D045B10AE00DB1102D07D1002710258C
:1004900014F8010B02E0082500E00A250026B0460A
:1004A0000EE005FB080005FB06F1012701EB1046F5
:1004B0001FFA80F8B6F5803F00D3B94614F8010B57
:1004C000294600F018F80028EBDABBF1000F05D040
:1004D0000FB1641E00E05446CBF80040B9F1000FA4
:1004E00006D001F093F802210160C81EBDE8F09F1C
:1004F00048EA0640FAE73A2800D2303820F02002D5
:10050000412A01D3A2F13700884201D34FF0FF30D6
:10051000704770B58C1810F8015B15F0070301D116
:1005200010F8013B2A1106D110F8012B03E010F856
:10053000016B01F8016B5B1EF9D12B0705D4002379
:10054000521E0DD401F8013BFAE710F8013BCB1A1B
:10055000921C03E013F8015B01F8015B521EF9D510
:10056000A142D8D3002070BD4FF08040D0F8401297
:1005700041F48031C0F840127047000000F01F02C3
:1005800001219140034A800F02EB800002680A4378
:1005900002607047040200402DE9F84F0D46044602
:1005A000FFF7E2FF4FF08040484ED0F80012C4B190
:1005B00041F00401C0F80012102000F0E3F94FF4FC
:1005C00000200090424843492844B34688426DD8F1
:1005D0004FF000094FF0FF324F464E46AE46012025
:1005E00015E041F00101C0F80012012000F0CAF945
:1005F0000020E6E7F2B3032839D0042802D002280D
:1006000005D102E04FEA8E0501E04FEA4E050223D4
:100610006AB3BBFBF3F1304CDFF8BCC00C44CCF147
:10062000000C644520D80224C1F35D0ADFF8A0C0A5
:100630000AFB04F101EB0C08DFF8A0C0E0450ED87E
:10064000B1EB950F02D9A1EB950101E0C1EB95014A
:10065000914204D20A0099462746064604D040F249
:100660000121641C8C42E1D95B1C202BD0D9401C99
:10067000042800E000E0BDD91948009900EB86305D
:10068000184A084302EB49210843B91E08434FF0BA
:100690008041C1F84002042000F074F906FB09F61D
:1006A000BBFBF6F078434000BDE8F88F5CB10E4923
:1006B0004FF08040C0F84012042000F063F9BDE81C
:1006C000F84F00F079B844F21E21F1E7001BB700A3
:1006D000800F05FD8074D21A00F7C2FFC06878044D
:1006E00000C0FFFF00FEFFFF1E42080010B500F033
:1006F00029FC4FF08041D1F834024207134817D04B
:10070000D1F8342202F00702012A13D0D1F83422A2
:1007100002F00702022A10D0D1F8342202F00702B8
:10072000032A0DD0D1F8341201F0070104290AD0B0
:10073000006810BD0068400810BD0068800810BD4A
:100740000068C00810BD0068000910BD000000204E
:1007500010B500F0F7FB4FF08041D1F8340210F0F3
:10076000700F144817D0D1F83422C2F30212012AB4
:1007700013D0D1F83422C2F30212022A10D0D1F8D9
:100780003422C2F30212032A0DD0D1F83412C1F37D
:10079000021104290AD0006810BD0068400810BD8D
:1007A0000068800810BD0068C00810BD006800091E
:1007B00010BD00000000002008B510A1002009684D
:1007C00000914FF08041D1F8401211F4A02F13D1C5
:1007D0000B488A0310D4C1F30800C1F38132094BDE
:1007E000801C1DF80220C1F344215843491C11FB11
:1007F00002F1B0FBF1F0C00008BD000001020204EC
:10080000001BB700C0C62D0070B54FF080440646EF
:10081000D4F8500200F010051B48864200D9064665
:10082000D4F8000240F00400C4F80002102004F5DF
:10083000007400F0A7F8206940F007002061206AEA
:1008400020F00F0020622068A4F50074C007314634
:1008500004D00020FFF7A0FE064608E04FF4002079
:10086000FFF79AFE0646D4F8500200F0100500216A
:10087000022000F00BF82DB9D4F8000220F004009B
:10088000C4F80002304670BD00B0710B2DE9F04194
:100890004FF080440746D4F850020E4600F0100591
:1008A000D4F8000240F00400C4F80002102004F55F
:1008B000007400F067F8206940F007002061206AAA
:1008C00020F00F0030432062206920F007003843F9
:1008D0002061A4F5007400F035FB002D05D1D4F89B
:1008E000000220F00400C4F80002BDE8F08100001E
:1008F000F0B510F47F3F2ED04FF08043D3F8F431A1
:10090000DFF878C0DFB21D4BC0F381440C3B6FEAC7
:1009100090450CF1040603EB8403012F02D0022C56
:100920000DD001E0022C02D0AC070AD00AE0C3438C
:10093000DC06134B06D000F01F041D2C02D06346CA
:1009400000E033461C68C0F38725C0F34416B54069
:10095000AC4314431C60420E52070ED0084BC0F348
:100960000172183B03EB82021368C0F34264C0F3C8
:1009700004508440A3430B431360F0BD2C0200409D
:100980002802004070B505460B480C4E0124006853
:1009900041080020A207306001E0491E06D0D2F8CD
:1009A000503235EA0300F8D109B103E000244FF0DA
:1009B000FF303060204670BD000000208807002016
:1009C0008A8852BA13040A68C97812BA22F0FF0260
:1009D0000A43074941F83020091D41F830300449E5
:1009E00008394A68012383401A434A60704700006F
:1009F00008B000400E4A0F4B40EA0120126840F454
:100A00002021B2FBF3F20C489201C0F89810D0F804
:100A10009810890302D5521EF9D102E00AB10021D3
:100A200001E04FF0FF31054A1160D0F894007047A3
:100A30000000002040420F0000B000408C07002062
:100A400010B50F4B0F4C1B68B3FBF4F30E4C9B011E
:100A5000C4F8942040EA012040F43020C4F8980003
:100A6000D4F89800800302D55B1EF9D102E00BB1E7
:100A7000002001E04FF0FF300449086010BD000085
:100A80000000002040420F0000B000408C07002012
:100A900010B5044600F060F900F0DEF8204600F0E2
:100AA00055F908480649C0F8AC100749C0F890103D
:100AB000162140F8301B40F2EE51816710BD000056
:100AC000118C051100B000402000400070B53C4979
:100AD00000204FF4004208600121FFF7B1FF394EBA
:100AE0000A21394D3068B0FBF1F405E00121002006
:100AF000FFF780FF000402D5641EF7D153E0ECB38A
:100B0000346801E0641E4ED001210846FFF772FFF1
:100B10004007F7D540F2E11201210420FFF790FFD2
:100B200001210020FFF766FF40F400720121002040
:100B3000FFF786FF3068440001E0641E33D00121D6
:100B40000846FFF757FF8006F7D5346801E0641EBA
:100B500029D001210846FFF74DFF4007F7D50121B5
:100B60000520FFF747FFC10509D555F8900F40F460
:100B700080102860286840F480200AE013E0010615
:100B80000AD555F8900F40F480102860286820F4AA
:100B900080202860002070BD400655F8900F20F49A
:100BA0008010E6D4F1E755F8900F20F4801028600B
:100BB000286820F4802028604FF0FF3070BD0000CE
:100BC0008C0700200000002000B0004010B505494F
:100BD000054800F00BF8002802D000F027F8F6E7EF
:100BE00010BD000070000020EC18002070B50D4B07
:100BF0000546002053F8B02F94B21C60120501D5B1
:100C0000801E70BD084A13691A68002AF9DB140CAB
:100C1000E406F6D592B20A6028461969FFF767FB29
:100C2000012070BD00B000408C0700200849086911
:100C3000026942604269C260026842F0004202609A
:100C4000C068086103490020C1F8A4007047000093
:100C50008C07002000B0004070B51648144AC0F858
:100C60008C20154800210B464FF0004402F160052E
:100C7000026101EB410042F83040C1EB411606EB46
:100C8000811602EBC00005EB061646604668066159
:100C900083604E1C06F0030606EB460602EBC60612
:100CA000C660C6684661491C0429E2D370BD0000D5
:100CB000CC6D002000B000408C07002070B50D4DB9
:100CC0000E460346EC6800202168002910DB3246FE
:100CD00019466068FFF70BFBA6602068064940F0E4
:100CE00000402060E068E8600020C1F8A00001201A
:100CF00070BD00008C07002000B00040104A10B505
:100D0000D2F8B01000200F4B0B40C2F8B030C90130
:100D100001D5801E10BDD2F8CC300B4CA1680A68FA
:100D2000002A0BDB8A68120C120700D5401C0A69E6
:100D30004A604A69CA6011468B42F0D1A16010BD79
:100D400000B000400000FFEF8C07002001460020AB
:100D5000FFF736BEFFF7D2BF70B51948174AC0F883
:100D600088201849002004468A60CA604B6802F156
:100D700060050BB1072100E00F2100EB400642F8AF
:100D80003610C0EB401101EB801105EB011600EBB2
:100D9000400102EBC1014E604E680E618C60461C42
:100DA00006F0030606EB460602EBC606CE60CE68EA
:100DB0004E61401C0428DCD370BD0000EC8500208F
:100DC00000B000408C070020F0B500230127032568
:100DD00007FA03F48C4309D106685C0005FA04FCA9
:100DE00026EA0C0602FA04F4264306605B1C102B6C
:100DF000EED3F0BD044603A000F0E4FB204603F070
:100E00003BFBFEE7496E2048617264204661756CC9
:100E1000742048616E646C65720A000000F01F0265
:100E2000012191404009800000F1E020C0F800114C
:100E3000704700F01F02012191404009800000F13D
:100E4000E020C0F80011704710B559218C0716201A
:100E50008822C4F80011C4F80001C4F80021D4F8B5
:100E60000031002BF5D04FF04020D0F8401121F098
:100E7000F001C0F84011D4F8000240F00100C4F8BD
:100E800000020120FFF77EFD2348FFF7BDFC112083
:100E9000C4F83402D4F8080240F48030C4F80802E0
:100EA000D4F8080240F40030C4F80802D4F8140260
:100EB00020F04070C4F81402D4F8140220F040600E
:100EC000C4F8140200F03EF8206B20F07F4020634D
:100ED000206B40F0EE402063206B6FF30F00206327
:100EE000206B48F68801084320630020C4F8000105
:100EF0000A4C2046FFF742FB002211462046FFF72E
:100F0000F7FC074C2046FFF739FB20460022BDE8DE
:100F100010401146FFF7ECBC00B0710B0200805E80
:100F20000300C05E06498A691202FCD40A2804D173
:100F30000D220A608A691202FCD408607047000022
:100F40000000074010B5FFF737FC0E4A4FF0804312
:100F50009060D3F8101201F00701022903D002F1CA
:100F60000C0050F82100D3F8201201F00F01491CA9
:100F7000B0FBF1F00449106008444900B0FBF1F007
:100F8000506010BD0000002020A107001A48016831
:100F900041F4700101601948C16C21F00F0141F06A
:100FA0000801C1644FF08040D0F8981241F48021CC
:100FB000C0F89812D0F8081241F00201C0F80812E7
:100FC0000F49D1F8042102F0F732C1F80421D1F819
:100FD000082102F0F732C1F80821D0F8081221F0F8
:100FE0000201C0F808124FF04020D0F8401121F063
:100FF000F001C0F84011704788ED00E000C00040EB
:10100000001004402DE9F0410D46044600F056F86A
:1010100000273E46276067612549884205D84FF47E
:101020007A72954205D2154606E0642D01D26425F8
:1010300002E08D4200D90D46884208D81D494FF480
:101040007A72B1FBF0F15543B5FBF1F107E0B0FB6B
:10105000F1F169430F0E02D07A1CB1FBF2F161602D
:1010600047F080412160144D2968B1FBF0F0401C2D
:1010700002D000BF401EFCD1204600F01FF82968B6
:101080007F1CB1FBF0F179430BE0E268824207D1AB
:101090003246761C8A4205D94FF0FF30BDE8F08118
:1010A0000026E06822689201EFD40020F6E70000F5
:1010B00040420F0000CA9A3B0000002010B588B0E3
:1010C0000446202217496846FFF711F9164A174BC4
:1010D0009003944204D1D0F81402C0F3022110E02E
:1010E0009C4204D1D0F81402C0F3023109E0104947
:1010F000D0F814028C4202D1C0F3024101E0C0F3E7
:101100000251022903D05DF8210008B010BD9442BD
:1011100001D09C4202D1FFF7E9FAF6E7FFF718FB8E
:10112000F3E7000044D7000000000540000105403F
:101130000010054070B516460D460446FFF7BEFF89
:101140000023B6EB500F01D9022206E0B0FBF6F205
:10115000130E02D0591CB2FBF1F21D4325606260F0
:101160005B1C5A43B0FBF2F070BD00002DE9F0416A
:1011700043480168491C016002F032FF0126414DDD
:10118000414C012801D1606820B103F0AFF801287B
:1011900011D016E002F0EEFF0128A06801D1401C3A
:1011A000A0600A2804DD02F0E5FF012800D1666096
:1011B00002F0EAF82CE02878072802D002F0B4FA0E
:1011C00026E0206868B903F013F950B1266028784A
:1011D0000A281DD007281BD0092819D002F0BEFB11
:1011E00016E02878022818D0032820D0042821D01F
:1011F000052822D0062820D0072821D0082822D070
:10120000092823D00A2824D005212048FFF7FAFE18
:1012100003F0EEF80027F8B11FE01D480078012820
:1012200002D002F077FAF3E702F088FAF0E702F072
:1012300073FBEDE702F02CF8EAE702F0AFF8E7E71E
:1012400002F064F9E4E702F093FBE1E702F0A0F9B1
:10125000DEE702F017FADBE7276002F0C1FE08B90B
:101260006760A76028780A2806D002F0BFFE012830
:1012700002D1002004F038FB06488660BDE8F0810A
:1012800068000020710100203000002000010540AE
:10129000720100200000054000F008B84FF4E13171
:1012A000014800F0BBB80000000007402DE9F04104
:1012B000134DE869C00521D5124C00221046228149
:1012C000114EE18801E03254401C8842FBDB0F4F95
:1012D000A86940040CD405213846FFF793FE29681D
:1012E000206F401C206720893154401C2081EFE78B
:1012F00000F018FEBDE8F04101F00CBDBDE8F08142
:101300000000074070010020786D002000010540BA
:101310000D4810B5016941F400710161416941F462
:1013200080714161816821F4702141F44031816014
:10133000416841F015014160FF2100F021F9BDE84D
:1013400010402420FFF775BD0000074000F008B8EA
:101350004FF4E131014800F061B80000001007408F
:101360002DE9F0471B4DE869C00531D51A4F002122
:1013700007F11402397002F5B674F960F868115477
:10138000401CF8600428F9DB144E91468846A86991
:10139000400419D42868C1B23878042801D209F869
:1013A0000010401C387006E01E213046FFF72AFE70
:1013B000206B401C2063A869400402D5206B0528DF
:1013C000F2DBC4F83080E2E7BDE8F04700F03CBC57
:1013D000BDE8F087001007407001002000010540C3
:1013E0000D4810B5016941F400710161416941F492
:1013F00080714161816821F4702141F44031816044
:10140000416841F015014160FF2100F0B9F8BDE8E5
:1014100010402520FFF70DBD001007402DE9FF41CA
:1014200004464D480F4600250FC88DE80F004B4974
:101430002E464FF080408C4206D1D0F81412D0F8DE
:101440002002C1F301652AE045498C4206D1D0F85B
:101450001412D0F82002C1F381652BE041498C427F
:1014600008D1D0F81C12D0F83002C1F3016500F0A9
:101470000F0643E03C498C4208D1D0F81C12D0F84A
:101480003002C1F38165C0F3031637E037498C425F
:1014900008D1D0F81C12D0F83002C1F30175C0F3A6
:1014A00003262BE032498C4207D1D0F81C12D0F829
:1014B00030028D0FC0F3033620E02E498C4204D158
:1014C000D0F8F411C9B2012908D02B498C4215D1AA
:1014D000D0F8F411C9B2012909D00FE0D0F81C12DC
:1014E000D0F83002C1F30155C0F3034606E0D0F84E
:1014F0001C12D0F83002C1F38155860F0020206302
:101500000320E060A0681D490840A060E846012D66
:1015100002D1FFF751F90190002F1AD058F8251089
:10152000761CB1FBF6F000EB5700B0FBF7F0801E25
:10153000B0F5803F0AD3B1FBF6F000EBC700B0FB7B
:10154000F7F06FF0010101EB101001E040F04050A6
:101550006062BDE8FF81000064D700000000074022
:1015600000100740002007400030074000400740BF
:101570000050074000600740007007400FFFF0FF79
:10158000026A22F0FF020A430262416841F40061EC
:1015900041607047F0B50446002630464FF0804564
:1015A0000CE0002302E05B1CAB4209D2A7693F02BA
:1015B000F9D4002E04D10B5C2360401C9042F0D182
:1015C000F0BD00000FB4054B10B503A9044A029802
:1015D00000F030F810BC5DF814FB00003921000069
:1015E000A00700200FB4084B10B504A902AA039865
:1015F00000F020F8044602A9002000F04CFA204632
:1016000010BC5DF814FB0000971A000000487047FA
:10161000E807002002E008C8121F08C1002AFAD11A
:1016200070477047002001E001C1121F002AFBD162
:10163000704700002DE9FF4F8DB00F46054600268C
:1016400006E025280BD0DDE90F1290476D1C761CB3
:1016500028780028F5D111B03046BDE8F08F00247D
:10166000A246A1460122EC4900E0044315F8013FDF
:10167000203B02FA03F00842F7D128782A2810D03C
:101680006FF02F022878A0F13001092914D80AEB55
:101690008A0102EB410144F0020400EB010A6D1CD7
:1016A000F0E701CF5FEA000A03D544F40054CAF121
:1016B000000A44F002046D1C28782E2817D115F872
:1016C000010F44F004042A280ED06FF02F0228786E
:1016D000A0F1300109290AD809EB890102EB410187
:1016E00000EB01096D1CF2E757F8049B6D1C28788C
:1016F0006C280FD006DC4C2817D068280DD06A283B
:1017000014D104E0742810D07A280FD10DE044F4ED
:1017100000140AE044F4801401E044F440146978B1
:10172000814202D104F580146D1C6D1C2A786E2A4A
:101730001FD00CDC632A31D004DC002A8BD0582A5D
:1017400011D1A3E0642A68D0692A0CD165E0732A1C
:101750002ED004DC6F2A73D0702A04D19BE0752A46
:101760006FD0782A6ED01046DDE90F129047761CB4
:1017700050E1C4F30250022806D0032809D00428FF
:1017800001CF09D0066045E101CFF117C0E9006142
:1017900040E101CF06803DE106703BE117F8040B04
:1017A0008DF8000000208DF80100EB46012003E0D9
:1017B00057F804BB4FF0FF3061074FF0000102D42F
:1017C0000DE008F10101884649450FDA8045F8DB54
:1017D0001BF808100029F4D108E008F1010188463F
:1017E0008142FADB1BF808100029F6D1DDE90F234E
:1017F000AAEB08008146214600F036F9304400EBA0
:10180000080604E0DDE90F121BF8010B9047B8F160
:101810000108F7D221464846F7E00A21C4F30253F3
:101820004FF0000B0891022B04D001CFC117032BFE
:1018300009D00AE0FF1D27F00707F7E8020108E0DA
:1018400032E01FE020E000B2C117042B01D140B20A
:10185000C117031E71F1000307DA4FF0000CD0EB43
:101860000C006CEB01012D2302E0230504D52B2392
:101870008DF82430012303E0E30701D02023F7E7AC
:10188000984658E00A2110E010210EE010204FF099
:10189000000B08900CE010214FF0000B44F0040402
:1018A0004FF00809089103E008214FF0000B089160
:1018B000C4F30253022B04D001CF0021032B06D026
:1018C00006E0FF1D27F00707F7E8020103E080B2FA
:1018D000042B00D1C0B24FF0000823072BD5702A8B
:1018E00007D0DDF820C08CF0100C5CEA0B0C05D0A2
:1018F0000EE040238DF82430012308E050EA010374
:1019000006D030238DF824308DF825200223984608
:10191000DDF820C08CF0080C5CEA0B0C0BD150EA0F
:10192000010301D1630706D530238DF824304FF031
:101930000108A9F10109582A04D038A20B9208AA7B
:101940000A920BE03AA2F9E75B46089AFEF79EFC82
:101950000B9B9B5C0A9A521E0A92137050EA01027A
:10196000F2D10A98ADEB000000F1200B600702D520
:1019700024F4803401E04FF00109D94502DDA9EBE0
:101980000B0000E0002000EB0B0141440890AAEBA3
:10199000010AE00306D4DDE90F232146504600F09A
:1019A00063F806444FF0000908E009A911F809009E
:1019B000DDE90F12904709F10109761CC145F4DBFE
:1019C000E0030CD5DDE90F232146504600F04CF82A
:1019D000064404E0DDE90F1230209047761C089998
:1019E000481E08900029F5DC08E00A980A9900785A
:1019F000491C0A91DDE90F129047761CBBF10001EA
:101A0000ABF1010BF1DC21465046DDE90F2300F07C
:101A100019F806446D1C1BE60928010030313233E9
:101A2000343536373839616263646566000000001A
:101A30003031323334353637383941424344454604
:101A4000000000002DE9F041044600251E4617461F
:101A5000880404D405E039462020B0476D1C641E7C
:101A6000F9D52846BDE8F0812DE9F041044600256E
:101A70001E469046C80301D5302700E02027880481
:101A800004D505E041463846B0476D1C641EF9D5C3
:101A90002846BDE8F0810A68531C0B60107070473F
:101AA000084410F8021C0D2903D110F8010C0A2873
:101AB00001D00020704701207047000030B5A5B06C
:101AC0000C460546402110A8FEF72AFC4021684636
:101AD000FEF726FC6B4610AA2146284601F084FB3F
:101AE000D8B1104CA068FEF726FC024610A8A168E9
:101AF000FEF728FC88B96846FEF71DFCC1B2082332
:101B000020AA684600F010F8E068FEF714FC0246D0
:101B100020A8E168FEF716FC10B1002025B030BD0A
:101B20000120FBE73C0000202DE9F0471D4616464A
:101B30008A46044600F07AF8002001460246214B0E
:101B400034E0275C3D2F35D013F807C0401C275CDC
:101B50003D2F31D0DF5D401C14F80080B8F13D0FFF
:101B60002CD013F80880401CC14614F80080B8F14E
:101B70003D0F25D013F808804FEA8C4C0CEB073C46
:101B8000401C0CEB89174744A94204DA4FEA174C72
:101B900006F801C0491CA94204DA4FEA172C06F8DE
:101BA00001C0491CA94201DA7754491C5045C8DBE1
:101BB000BDE8F0879446C9E71746CCE79046D2E7E0
:101BC0009046D9E7EC07002042F2107190FBF1F249
:101BD0000A2192FBF1F301FB1323134A10B53033B2
:101BE00013704FF47A7390FBF3F393FBF1F401FB62
:101BF000143330335370642390FBF3F393FBF1F40D
:101C000001FB14333033937090FBF1F393FBF1F449
:101C100001FB14333033D37090FBF1F301FB13005D
:101C20003030107110BD0000340300200449054A13
:101C300000200B5CD054401C4028FADB70470000A9
:101C400030010020EC0700202DE9F041B24C0025C6
:101C5000A778FF2F02D0E078FF2853D1AE48217833
:101C6000B0F80120407802EB820302EB82065B00B1
:101C7000F600D1297ED01FDCC7297CD012DCC32915
:101C80007AD008DCAA2943D0C02947D0C12974D012
:101C9000C22935D145E0C42970D0C5296FD0C629E5
:101CA0002ED199E0C83909292AD2DFE801F0B6A976
:101CB000B22929C1BEACC500E22975D010DCD529F6
:101CC00073D006DCD22971D0D32970D0D42917D192
:101CD000C1E0D6296CD0E0296BD0E12910D1CBE04E
:101CE000E62967D006DCE32971D0E42970D0E52924
:101CF00006D1D3E0E7296CD0F0296BD0F1296AD066
:101D00008648C56025706570A570E570BDE8F081F6
:101D100083490870012003F017FEF3E703F0DEFDAE
:101D2000F0E703F051FE6078012806D102F012FBC3
:101D3000032802D0002003F065FE6078022806D157
:101D400002F008FB042802D0002003F05BFE60785C
:101D5000032802D1002003F055FE6078042806D144
:101D600002F0F8FA052802D0002003F04BFE60785C
:101D7000052805E064E037E00EE03DE01BE022E0EE
:101D800006D102F0E7FA062802D0002003F03AFE5E
:101D90006078062852D0B5E7184603F051FE02F0ED
:101DA000D9FA03284AD1ADE76AE059E04BE04DE0AB
:101DB0005BE081E079E0104603F0AEFD02F0CAFA84
:101DC00004283BD19EE7104603F094FD9AE75EE0BD
:101DD00060E06DE01AE087E0304603F00DFE02F0AF
:101DE000B9FA05282AD18DE7104603F0A1FD02F0CB
:101DF000B1FA062822D185E7184603F0B1FD81E744
:101E000003F066FD7EE703F0B1FD7BE703F06CFDB8
:101E100078E7104603F09EFD74E7390200EB80007E
:101E200041EA400003F0BEFD6CE703F0A5FD69E761
:101E3000184603F00BFE65E70028ACD1002018E03F
:101E400003F03AFD5EE703F03DFD5BE7184603F063
:101E5000F1FD03200DE0104603F064FD042008E0CE
:101E6000304603F0C3FD052003E0104603F066FD95
:101E7000062003F0C7FD45E7184603F0CFFD2BE031
:101E8000104603F043FD29E003F098FD3AE703F024
:101E9000A7FD37E7184603F0BBFD23E0104603F02B
:101EA0002FFD15E003F084FD2CE703F093FD29E7F7
:101EB000184603F0B9FD25E701280BD002280BD006
:101EC00003280BD004280BD005280BD006288AD174
:101ED0000520E7E70020D7E70120D5E70220D3E778
:101EE0000020DFE70420DDE770B1012887D102F090
:101EF000DFF9064602F0D6F9864286D202F0D8F91A
:101F0000401C03F03FFDFDE602F0D2F901288BD919
:101F100002F0CEF9401EF4E78401002024030020E3
:101F2000710100202DE9F04F804887B00178FF292A
:101F30007ED14178FF297BD18178FF2978D1C17882
:101F4000FF2975D190F85110682971D1784C017929
:101F5000616730F8051F49BAE16741884ABA04F160
:101F600080010A61828852BACA60C28852BA0A6085
:101F70000692028952BA4A61428952BAA26782899C
:101F800052BA0A67C28952BA93464A67C27BE27064
:101F9000028A52BA8A67428A52BACA67828A53BA96
:101FA00001F180021360059310F8163F53604378E7
:101FB00003F00105D565C3F34005A566C3F38005AD
:101FC0002571C3F3C0059564C3F300152566C3F3FB
:101FD00040159560C3F38015DB094D60A37030F8A0
:101FE000023F5BBA1361049343885BBA5361039366
:101FF000838893FA93F8C2F81880C38893FA93FC05
:10200000C2F81CC003895BBA1362029343895BBAAE
:102010005362019383895BBA93620093C3895BBA6D
:102020009E461363038A5FBAD762438A5EBA00E0B2
:1020300079E05663838A5BBA8B61837DCB63C37D12
:102040008B64038B5BBA4B64438B5BBA8B60838B73
:102050005BBACB61837FCB64C37F0B65038C5BBAB8
:102060004B6590F82230CB6590F823300B66838C5B
:102070005BBA4B66C38C5BBA8B66038D5BBA9A46C0
:10208000D360438D5BBA5365838D5BBA1365C38D93
:102090005BBA9946D36390F83030636630F8314FBD
:1020A00064BA8C628078906345B1516E71B1946E60
:1020B00094FBF1F151640021916606E035B9946E0C
:1020C00004EB0B019166516E491C5166D16E491C9F
:1020D0001167002D27D0994225D1D36603EBC301A8
:1020E0001364144BACEB080443F8314003EBC1011B
:1020F000C1E9018C039BCB60049B0B61009B4B618E
:10210000526C8A61059AC1E9072E069A4A62029AC0
:102110008A62019A4E63C1E90B293218C1E90E2780
:102120003844C1E9100A07B0BDE8F08F786D00208F
:1021300070010020C025002010B50446FEF7F2FE15
:10214000204610BD40BA70472DE9F04F0026FBB085
:1021500037463446402166A8FEF7E2F8402146A8FB
:10216000FEF7DEF8402156A8FEF7DAF84FF480714A
:1021700006A8FEF7D5F8FB48FB4905680878B14684
:10218000400605F11C0506D50120687085F8009011
:102190007BB0BDE8F08F0878DFF8D4A3DFF8CCB3CC
:1021A0008007AAF1400871D5F2480188F24877907B
:1021B000052906D3F3480522F0A10068FEF7C2F80E
:1021C000E0B1DFF8B0B3BBF80000042807D3ED4C52
:1021D0000422EDA12068FEF7B5F800287AD098F81F
:1021E00001104046012976D0C8F8289098F80100DF
:1021F00098F80210444608436ED0F0E3E1481022FC
:10220000E3A10068FEF79EF8D8B1DE480F22E5A1F1
:102210000068FEF797F8F0B1DA480622E5A10068F9
:10222000FEF790F8B8B1D7480922E4A10068FEF79C
:1022300089F8C8B198F8000001286BD0012606275C
:10224000D4E7E149C8F8241040F27E410126022774
:10225000C8F82810CAE77799C8F8241040F2E53189
:102260000126C8F82810B8E0C6481722D7A1006890
:10227000FEF768F840F2B454F0B1C2482322D9A165
:102280000068FEF75FF840B31B2200E0F3E3BD48AF
:10229000DDA10068FEF756F80028A7D1DAF804009F
:1022A000FEF749F800F21A5040F21A51C8F8280017
:1022B000A0422DDADB4820E0DAF80400FEF73BF814
:1022C00000F2347040F23471C8F82800A04205DAF8
:1022D000D54812E0F2E266E388E301E0D24A12E078
:1022E000DAF80400FEF727F800F25A3040F25A31CB
:1022F000C8F82800A04205DACC4800F033FFC8F83F
:1023000024B073E7C94AC8E90921012637466DE7B9
:10231000C44AF8E79B480A22C5A10068FEF712F8F4
:10232000002830D097481A22C4A10068FEF70AF8A6
:10233000002854D093481A22C7A10068FEF702F87B
:1023400000287DD08F481B22CAA10068FDF7FAFF44
:10235000002876D08B481C22CDA10068FDF7F2FF43
:1023600000286FD087481B22D1A10068FDF7EAFF43
:10237000002868D083481D22D4A10068FDF7E2FF41
:10238000002875D0C2E266A800F006FF0128B8D187
:10239000DFF8DCB1C8F8249001260BF11C0BC8F85B
:1023A000289066A8FDF7C7FF02465BF8241066A8D0
:1023B000FDF7C8FF20B1641CE4B2132CF1D315E77C
:1023C0006B48683050F82400801CC8F82400C748C7
:1023D00050F82400801EC8F82800042706E701F002
:1023E0007FFF022806D0032807D0052833D001F04C
:1023F000F9FF04E001F050FE01E001F015FE7690D7
:1024000001F0CAFD044601F0A5FF009001F0BEFEF8
:10241000019001F053FF029001F056FF799001F016
:1024200059FF789001F05CFF0246DDE90003059456
:10243000CDE90330DDE97801CDE90001444603E050
:102440000CE025E047E06CE0769B06A8D8F8101079
:10245000FFF7C8F80DE001F07DFED0E701F0CEFFF8
:10246000CDF80090034600224446D8F8141075E0D9
:1024700046E106A8FDF75FFF034606A800909CA171
:102480003A48DAF80C20FFF7ADF8C4E909B0ADE638
:102490000020029001F05EFF032804D0042805D03C
:1024A000062806D114E001F093FF01E001F0FAFDE7
:1024B000029001F06BFD044601F062FD009001F016
:1024C00049FF019402464446029BD8F8181024E0C4
:1024D00001F046FEECE70020029001F0F5FE70B13D
:1024E00001F0F2FE042804D001F0EEFE052803D02E
:1024F00005E001F03BFF01E001F09CFD029001F0DE
:1025000057FF044601F0F8FE009001F0DDFE019453
:10251000029BD8F81C100246444606A8FFF762F852
:10252000A7E7002401F0D6FE70B101F0D3FE012828
:1025300004D001F0CFFE022803D005E001F020FF17
:1025400001E001F087FD044601F0DCFE009001F09F
:10255000C1FE2346D8F820100246444606A8FFF7DD
:1025600041F886E7C4070020A5070020EC080020FA
:102570007C000020A8070020D85E000047455420BA
:102580002F000000B8070020504F535400000000F7
:10259000474554202F66617669636F6E2E69636FBD
:1025A00000000000474554202F696E6465782E684E
:1025B000746D6C00474554202F200000474554207F
:1025C0002F6373732F000000585A000047455420B2
:1025D0002F6373732F636F6D6D6F6E5F6373732EF5
:1025E00063737300474554202F6373732F7379739C
:1025F00074656D5F696E666F726D6174696F6E5F31
:102600006373732E63737300474554202F63737392
:102610002F73746F72655F616E645F6C6F61642E9F
:10262000637373008A6C000056650000A47100009B
:10263000474554202F68746D6C2F00004745542087
:102640002F706172616D657465722F706167655F6F
:10265000312E68746D6C0000474554202F706172F4
:10266000616D657465722F706167655F322E687485
:102670006D6C0000474554202F706172616D657468
:1026800065722F7365635F7669622E68746D6C0086
:10269000474554202F706172616D657465722F70AB
:1026A0006F73745F7669622E68746D6C0000000051
:1026B000474554202F706172616D657465722F708B
:1026C00072655F7669622E68746D6C0047455420B0
:1026D0002F646174612F77656C64696E675F7265E2
:1026E000636F72642E68746D6C00000000750000EA
:1026F000257325780D0A25730D0A300D0A0D0A0081
:10270000FA4E0A200090FAA13046FEF76BFF06440D
:102710000098401E0190F6A13046FEF763FF064484
:10272000F448006884427DD8204601F041FD02460D
:10273000F1A13046FEF756FF0644204601F09CFD0D
:102740000246EDA13046FEF74DFF0644204601F05B
:102750004BFD0246E8A13046FEF744FF0644204602
:1027600001F05AFD0246E4A13046FEF73BFF064465
:10277000204601F069FD0246DFA13046FEF732FF38
:102780000644204601F0DAFB0246DBA13046FEF7A4
:1027900029FF0644204601F019FC0246D6A1304626
:1027A000FEF720FF0644204601F0CAFC0246D2A1F3
:1027B0003046FEF717FF0644204601F0FFFD0246B3
:1027C000CDA13046FEF70EFF0644204601F086FB01
:1027D0000246C9A13046FEF705FF0644204601F037
:1027E00095FB0246C4A13046FEF7FCFE0644204697
:1027F00001F05CFB0246C0A13046FEF7F3FE064442
:10280000204601F085FC0246BBA13046FEF7EAFEF9
:102810000644204601F036FC0246B7A13046FEF7DA
:10282000E1FE00E024E00644204601F09FFB024662
:10283000B1A13046FEF7D6FE0644204601F04AFC20
:102840000246ADA13046FEF7CDFE0644204601F01B
:10285000E1FB0246A8A13046FEF7C4FE064420462E
:1028600001F0E0FD0246A6A13046FEF7BBFE06449D
:102870000198844201DAA4A100E0A4A13046FEF749
:10288000B1FE0644641C0098E4B28442FFF643AFF4
:102890009EA13046FEF7A6FE9448FDF74CFD034688
:1028A00092480090AFF2B811A0F50060DAF80C2061
:1028B000FEF798FEC8E909B0002697E4192294A112
:1028C0002068FDF73FFD50B9BBF800102068FFF706
:1028D000E7F801284FF0010006D088F8040098F8C6
:1028E0000000012805D011E088F8010088F80200F6
:1028F000F5E710228DA12068FDF724FD40B11E22CE
:102900008FA12068FDF71EFD0028D6D101266DE4B9
:10291000BBF800102068FFF7C3F801282DD088F815
:102920000190BBF8001056AB46AA206800F05CFC92
:10293000012826D088F803901B2289A12068FDF782
:1029400001FD10B31B228DA12068FDF7FBFCF0B147
:102950001C2291A12068FDF7F5FCE0B11D2296A193
:102960002068FDF7EFFCC0B11C229BA12068FDF799
:10297000E9FCA0B188F8069038E4012088F801004D
:10298000DAE7012088F80300D6E7012000E0022002
:1029900088F806002AE40320FAE7042100E0052174
:1029A00088F8061022E480F801908178012910D07F
:1029B00098F806004446B0B1BBF8001056AB46AAE2
:1029C0008D48006800F010FC012809D084F80390BD
:1029D0000CE480F80290012188F8041006E421E05C
:1029E0000120E07002E4C4F8289029E42079C8B1FD
:1029F000824884F8049001887F480068FFF75EF8F9
:102A000048B10120207006467D48606240F2972060
:102A10000427A06206E07798606240F2E530012664
:102A20000527A062A07920B1617811B9E178012968
:102A30000CD00EB1607870B3A06A00287FF7A8AB05
:102A400001F0FAFC68707BB0BDE8F08F01280DD072
:102A5000022811D0032814D0042817D005281BD031
:102A6000062784F8069084F80390E3E756A946A861
:102A700002F070FCF5E723E056A946A802F010FD2D
:102A8000EFE756A946A802F0D9FDEAE756A946A8FD
:102A900002F01CFDE5E704E056A946A802F07EFD21
:102AA000DFE758495AF827000860FDF744FC56490B
:102AB0000880A06A002801DD0320C3E70220C1E7E7
:102AC0000878C00702D1087800070BD508780007FE
:102AD00004D56878022806D0012805D06878032834
:102AE00003D0A9E0D8E091E097E09EE0EC10002050
:102AF0005B000000B0020020222564222C000000B0
:102B000022256422000000005D2C00005D00000012
:102B1000504F5354202F61757468656E74696361FA
:102B200074696F6E2E68746D6C000000504F5354C2
:102B3000202F706172616D657465722F0000000056
:102B4000504F5354202F667067612F736176655F15
:102B5000706172616D657465722E68746D6C0000D1
:102B6000504F5354202F706172616D657465722FE0
:102B7000706167655F312E68746D6C00504F5354FF
:102B8000202F706172616D657465722F7061676569
:102B90005F322E68746D6C00504F5354202F70615B
:102BA00072616D657465722F7365635F7669622EFD
:102BB00068746D6C00000000504F5354202F7061FA
:102BC00072616D657465722F706F73745F76696280
:102BD0002E68746D6C000000504F5354202F7061AC
:102BE00072616D657465722F7072655F7669622EB1
:102BF00068746D6C00000000B8070020A807002072
:102C0000BF620000BC070020AA0700201020087047
:102C100085F8019085F800900EE02878401CC0B23D
:102C200028700A2808D9022005E0D8F828000028D2
:102C300002DD01F001FC687098F8050047460128A4
:102C40007FF401AF87F80590144E642401E0012C55
:102C500003DD2246AFF2601102E02246AFF26011BE
:102C60003046FEF7BFFC641E0644002CEFDC0CA1CE
:102C70003046FEF7B7FC0948FDF75DFB0346074801
:102C80000090AFF29451A0F50060DAF80C20FEF746
:102C9000A9FCC7E909B0D3E60878D4E6EC10002017
:102CA0005D207D00FEF7D0F8FEF7F8FAFEF750FB46
:102CB0004FF08040016C21F07061016401224021DD
:102CC0001048FEF781F81049002008600F4C0A22D6
:102CD0004FF000612046FEF72DFA206840F00050CA
:102CE00020600B490120C1F80001206840F08040BD
:102CF0002060FEF775FBFEF70BFB02F00FFD02F004
:102D000089FDFCE7804000409848004000000540F5
:102D100004E000E02DE9F04FFB4A00241046537810
:102D2000C66F00F5807500F5C071092B7ED04FF499
:102D3000FA600A2B75D0072B74D0106A88609069EE
:102D40004862DFF8C4C3976B01200CF1800C022F9E
:102D500069D0032F68D0042F67D0052F71D0062FBC
:102D600070D0176B4F60AC67EC670C606C678C625F
:102D7000DCF84070032F6ED0042F6DD0052F6CD07F
:102D8000062F6BD0CC60DCF85880C246B8F1010F3A
:102D900070D0BAF1020F6ED00C61DCF86C80C146C5
:102DA000B8F1040F68D0B9F1050F73D04C6192F8F7
:102DB0000280B8F1010F6ED1DFF84CC30CF1800C2A
:102DC000DCF804C0BCF1010F01D00A2B63D1CF4B5A
:102DD00093F800C0BCF1FF0F5DD193F801C0BCF1C6
:102DE000FF0F58D193F802C0BCF1FF0F53D193F8F5
:102DF00003C0BCF1FF0F4ED193F85130682B4AD17C
:102E000096468B46D2F874C0D1F82480FF23C04A7E
:102E1000C049C44571D0C0241460C2F800807EE16E
:102E200004E012E014E01AE01DE026E0286E01281C
:102E300005D14FF4FA7036B1864200D12C668C6011
:102E40007FE721E028E088607BE78860906A77E789
:102E50008860142074E72BE031E037E03DE0D76A6A
:102E6000C5E91E7403E0AC67DCF82070EF670C6006
:102E70004C607BE73AE041E049E0AC67EC670C600E
:102E80004C60D76B6F6772E7AC67EC67576BC1E953
:102E900000746BE742E053E1AC67EC670C604C6098
:102EA0006C67DCF824700FB18F6261E788625FE7BE
:102EB000DCF82C80C1F80C804FF0D30813E0DCF86C
:102EC0003080C1F80C804FF0D4080CE0DCF838807A
:102ED000C1F80C804FF0D50805E0DCF83480C1F86B
:102EE0000C804FF0D608C1F818804CE7D2F8488023
:102EF000C1F810804FF0E10806E018E0D2F84C80ED
:102F0000C1F810804FF0E208C1F81C8045E7D2F804
:102F10005480C1F814804FF0E40805E0D2F85880DE
:102F2000C1F814804FF0E508C1F820803FE7DBF8D6
:102F300008C0B44501D0CD244AE0DFF8CC81DBF8ED
:102F4000046008F18008D8F818C0664503D0C3248F
:102F500030E01460E3E0AE6FD8F810C0664501D0F1
:102F6000C42427E0D8F80C60D5F87CC0664501D0B1
:102F7000C5242DE0C446DEF81C60D8F80080464524
:102F800001D0C62416E0E046DBF80060DCF814C08F
:102F9000664501D0C7240DE05B4ED8F808C0766ABC
:102FA000664501D0C82405E06E6FD8F81CC06645A0
:102FB00005D0C9241460F4B21460340AC9E7C646C7
:102FC000DBF828C0D8F828805E46C44507D0C12465
:102FD00014600CF0FF0414604FEA1C24B9E7DFF81A
:102FE00028C1DEF83C80DCF840C0C44504D0D224BF
:102FF0001460C2F800C092E0F0466FB1D8F848C043
:10300000674504D1F768D8F844C067450AD0B46969
:103010001460DBF80C4041E0D8F8487017B1D026B6
:10302000166096E7DFF8E0E0C446D8F84C80DEF89A
:103030004470474501D0E3241DE0BAF1000F0DD0E4
:10304000DCF85080C24504D13769DCF8548047452C
:1030500009D0F4691460DBF810401FE0DCF8507010
:103060000FB1E02459E0DEF85070DCF85C80F246E5
:10307000474503D0E6241460176050E0B9F1000F13
:1030800010D0DCF86080C14504D17769DCF8648039
:1030900047450ED0346A1460DBF81440E6B216607F
:1030A000240A56E7DCF860701FB1E02414600424A1
:1030B0004FE7DCF868C0DAF85C70BC4505D0E7245F
:1030C0001460FCB214603C0A43E7D5E9167CBC45A9
:1030D00001D0F024CFE7DFF83080D5E9127C98F8F2
:1030E0000490674501D1E14534D057EA09084FF013
:1030F000CF0A02D1BCF1010F0ED09FB1012F1FD119
:10310000BCF1000F1ED029E070010020786D002076
:103110000000074098480040544614601060136057
:10312000086018E0B9F1010F0AD1F76A012F07D141
:10313000C2F800A014601360EC64CBF82C40086067
:10314000BDE8F08FC2F800A014601360CBF82C40EB
:10315000086003E00C60A96C0129F1D1CBF82C00C8
:10316000EEE7000070B5064608480D4600244268A8
:1031700007A10848FEF736FA064903E0325D031955
:10318000641CCA54AC42F9DB70BD00007C00002016
:1031900025730000EC08002070B50A24114D0021B1
:1031A00062182B689E5C2E2E06D09A5C4254491CF5
:1031B0004029F5DB002070BD62181A445378682B53
:1031C000F8D19378742BF5D1D3786D2BF2D1137994
:1031D0006C2BEFD10844D2F80110C0F80110012087
:1031E00070BD0000B80700202DE9F0430027894694
:1031F00084463E463D463946384646E01CF8074080
:103200000D2C28D00A2C26D07B2C16D0222C17D09F
:10321000A4F13008B8F14A0F30D83A2C30D0F9B1C7
:10322000022923D0032922D0062923D0072922D01E
:10323000012910D005290ED026E061B9012123E033
:1032400071B1012909D0022905D0032907D0052928
:1032500007D0072907D0002116E0022114E004213D
:1032600012E0062110E00120BDE8F083032194550F
:10327000761C09E007215C556D1C05E03A2C03D152
:1032800011B1042900D105217F1C4F45B6DBEBE7C6
:1032900010B53A4C0D2238492046FEF77BF900F074
:1032A0006FFEFEF791FC052235492046FEF772F9C4
:1032B000032234492046FEF76DF92F490D220D31C6
:1032C0002046FEF767F900F061FEFEF77DFC05225F
:1032D0002B492046FEF75EF903222A492046FEF7D5
:1032E00059F901F037F8032822D001F033F8042807
:1032F00028D001F02FF805282DD001F02BF81E4919
:1033000006284FF01102A1F1110120462FD0FEF73F
:1033100041F90020FEF758FC052219492046FEF726
:1033200039F92046BDE8104003221649FEF732B9AC
:103330001149112211392046FEF72CF901F048F805
:103340000A2111E00C49112211392046FEF722F919
:1033500000F0A8FEDEE70849112211392046FEF7E9
:1033600019F900F0DBFF2821B0FBF1F0D2E7FEF7FE
:1033700011F900F0F5FECDE78706002000100740A8
:10338000340300202C0000200E2202490248FEF7E0
:1033900001B9000059060020001007402DE9F04156
:1033A0005548574B312600783027544C0A250528BC
:1033B0004FF0110204F2F3319846184659D0FEF747
:1033C000E9F800F081FF05287ED0277001224B49E3
:1033D00044464046FEF7DEF803224A492046FEF7FF
:1033E000D9F80A2248492046FEF7D4F800F06CFFCD
:1033F00005287DD000F0BAFFB0FBF5F0FEF7E4FB46
:103400003E49052210312046FEF7C4F803223D490B
:103410002046FEF7BFF83C490F220A312046FEF74E
:10342000B9F800F069FFFEF7CFFB344905221031EF
:103430002046FEF7AFF8032232492046FEF7AAF8ED
:103440003149122219312046FEF7A4F800F0B0FFEE
:10345000B0FBF5F0FEF7B8FB2849052210312046F5
:10346000FEF798F82046BDE8F04103222549FEF713
:1034700091B8FEF78FF800F02DFF022831D02770A9
:1034800001221E4944464046FEF784F803221D49A6
:103490002046FEF77FF80A221B492046FEF77AF8FD
:1034A00000F018FF02281ED000F06AFFB0FBF5F014
:1034B000FEF78AFB1149052210312046FEF76AF813
:1034C00003221049204601E010E011E0FEF762F807
:1034D0000D490F220A312046FEF75CF800F012FF7A
:1034E000B8E72670CCE700F0B5FDE1E726706DE7A0
:1034F00000F0A0FD82E700007101002024030020FD
:10350000001007402C0000202807002010B500F014
:10351000C3FE1B4C01282FD01A4918222046FEF763
:1035200039F8072218492046FEF734F800F00CFF5E
:10353000FEF74AFB1449052267392046FEF72AF8B0
:10354000032212492046FEF725F80F490722C91F1A
:103550002046FEF71FF800F025FDFEF735FB0A496F
:10356000052267392046FEF715F82046BDE81040D1
:1035700003220649FEF70EB802491A221831CDE798
:1035800000100740530700209B0300202C00002060
:1035900070B5394D092237492846FDF7FBFF00F089
:1035A000CDFEFEF711FB052234492846FDF7F2FF58
:1035B000032233492846FDF7EDFF2E490922093140
:1035C0002846FDF7E7FF00F0DBFDFEF7FDFA0522D8
:1035D0002A492846FDF7DEFF032229492846FDF740
:1035E000D9FF24490B2220312846FDF7D3FF00F0F4
:1035F0007BFDFEF7E9FA052220492846FDF7CAFFC0
:1036000003221F492846FDF7C5FF1A490E22123131
:103610002846FDF7BFFF00F017FDFEF7D5FA03229D
:1036200016492846FDF7B6FF144C2E20103C012207
:10363000207021462846FDF7ADFF104E012221469D
:10364000F07820702846FDF7A5FF30792070012220
:1036500021462846FDF79EFF2220207001222146A8
:103660002846FDF797FF2846BDE87040032204492D
:10367000FDF790BFA1060020001007403403002092
:103680002C00002010B5204C0C221E492046FDF7CE
:1036900081FF00F081FCFEF797FA05221B492046C6
:1036A000FDF778FF03221A492046FDF773FF1749FB
:1036B000072259312046FDF76DFF00F081FDFEF72E
:1036C00083FA052211492046FDF764FF03221049C1
:1036D0002046FDF75FFF0D49072252312046FDF7D6
:1036E00059FF00F015FEFEF76FFA05220749204644
:1036F000FDF750FF2046BDE8104003220449FDF7C6
:1037000049BF00000B0700200010074034030020D1
:103710002C000020112202490248FDF73BBF0000A7
:103720005F05002000100740102202490248FDF703
:1037300031BF00003A0600200010074070B500F0CD
:10374000CFFD0A25704C022833D000F0C9FD0328B4
:103750003DD000F0C5FD042847D000F0C1FD05288C
:1037600055D000F0BDFD06284FF03C025DD0674902
:103770002046FDF70FFF0A2265492046FDF70AFFA4
:1037800000F030FEB0FBF5F0FEF71EFA5F490522AF
:1037900076392046FDF7FEFE03225E492046FDF7FE
:1037A000F9FE00F0DDFD4FF0390278B3584947319A
:1037B0004AE056493D2278312046FDF7EBFE0A22C9
:1037C00053492046FDF7E6FE00F066FCDCE74F4972
:1037D0003D22B5312046FDF7DDFE0A224C49204648
:1037E000FDF7D8FE00F020FCCEE7494951228D3983
:1037F0002046FDF7CFFE0A2245492046FDF7CAFEC6
:1038000000F096FD2821B0FBF1F0BDE71AE0404939
:103810003C223C392046FDF7BDFE0A223C492046A9
:10382000FDF7B8FE00F096FCAEE7384920463C3183
:10383000FDF7B0FE0A2236492046FDF7ABFE00F048
:1038400025FD9FE7324980312046FDF7A3FE00F0B9
:1038500041FD4FF0150210B12D49B93101E02C495D
:10386000CE312046FDF796FE00F02EFD4FF01702F8
:1038700010B12749E33101E02549FA312046FDF72F
:1038800089FE234912220A312046FDF783FE00F00B
:103890007DFCFEF799F91D49052276392046FDF792
:1038A00079FE03221B492046FDF774FE18490C22BD
:1038B0001C312046FDF76EFE00F06EFBFEF784F92A
:1038C0001249052276392046FDF764FE032211498C
:1038D0002046FDF75FFE0E490E2228312046FDF7F7
:1038E00059FE00F0EBFCB0FBF5F0FEF76DF907496F
:1038F000052276392046FDF74DFE2046BDE8704092
:1039000003220449FDF746BE00100740AA03002029
:10391000290500202C00002010B50D4C0F220B496A
:103920002046FDF737FE00F069FD0A21B0FBF1F0FB
:10393000FEF74AF9052207492046FDF72BFE2046EF
:10394000BDE8104003220449FDF724BE67060020AD
:1039500000100740340300202C0000200F220249F1
:103960000248FDF717BE00004A060020001007407D
:103970002DE9F041DFF8FC830922FD494046FDF7BF
:1039800009FE00F095FCFEF71FF9FB4D0322A5F19F
:103990000F06A8783070E87870702879B0703146DA
:1039A0004046FDF7F7FD741E2F20207001222146AE
:1039B0004046FDF7EFFD00F075FCFEF705F9A8782D
:1039C0003070E87870702879B0700322611C40462E
:1039D000FDF7E0FD22262670012221464046FDF734
:1039E000D9FD0322E5494046FDF7D4FD00F0D4FBA4
:1039F00027460922786004F2D5314046FDF7CAFD1A
:103A00007868002803DA2D212170404201E02B2143
:103A10002170D949B860012210394046FDF7BAFD3E
:103A2000B868B0F57A7F7DDAFEF7CEF8B86863281B
:103A300007DDA878D0492070012210394046FDF7F3
:103A4000A9FDB868092807DDE878CB492070012274
:103A500010394046FDF79EFD2879C74920700122A4
:103A600010394046FDF796FDC349267001221039F2
:103A70004046FDF78FFD0322C0494046FDF78AFD11
:103A8000BD490722491D4046FDF784FD00F0E6FBD5
:103A9000FEF79AF80522B8494046FDF77BFD032260
:103AA000B6494046FDF776FDB34907220C31404642
:103AB000FDF770FD00F08AFBFEF786F80522AE499F
:103AC0004046FDF767FD0322AC494046FDF762FD25
:103AD000A949072213314046FDF75CFD00F08EFB3B
:103AE000FEF772F80522A4494046FDF753FD032274
:103AF000A2494046FDF74EFD9F4907221A31404634
:103B0000FDF748FD00F092FBFEF75EF805229A49AA
:103B10004046FDF73FFD032298494046FDF73AFD38
:103B2000072200E0ACE1944940462131FDF732FD27
:103B300000F0F6F9FEF748F805228F494046FDF7F8
:103B400029FD03228D494046FDF724FD8A490722BD
:103B500028314046FDF71EFD00F02AFAFEF734F842
:103B6000052285494046FDF715FD0322834940465D
:103B7000FDF710FD804907222F314046FDF70AFD71
:103B800000F0D0FAFEF720F805227B494046FDF709
:103B900001FD032279494046FDF7FCFC74490922E6
:103BA00036394046FDF7F6FC00F0F4FBFEF70CF862
:103BB000022271494046FDF7EDFC6F492E27277020
:103BC000012210394046FDF7E5FCA8786A492070CB
:103BD000012210394046FDF7DDFCE8786649207087
:103BE000012210394046FDF7D5FC28796249207042
:103BF000012210394046FDF7CDFC5F4926700122B5
:103C000010394046FDF7C6FC03225C494046FDF7EB
:103C1000C1FC594907223D314046FDF7BBFC00F08D
:103C20004FF9FDF7D1FF052253494046FDF7B2FC9D
:103C3000032252494046FDF7ADFC4F490722363179
:103C40004046FDF7A7FC00F053F9FDF7BDFF052244
:103C500049494046FDF79EFC032248494046FDF78E
:103C600099FC454908226E314046FDF793FC00F06F
:103C70000FF9FDF7A9FF05223F494046FDF78AFCF1
:103C800003223E494046FDF785FC3B4907224B3164
:103C90004046FDF77FFC00F02DFAFDF795FF052269
:103CA00035494046FDF776FC032234494046FDF78E
:103CB00071FC2F49092224394046FDF76BFC00F0C6
:103CC000D3F9FDF781FF03222B494046FDF762FC43
:103CD00029492770012210394046FDF75BFCE8783E
:103CE00025492070012210394046FDF753FC287900
:103CF00021492070012210394046FDF74BFC1E4936
:103D00002670012210394046FDF744FC03221B496E
:103D10004046FDF73FFC164909221B394046FDF796
:103D200039FC00F015F9FDF74FFF03221249404618
:103D3000FDF730FC10492770012210394046FDF78D
:103D400029FCE8780C492070012210394046FDF723
:103D500021FC287908492070012210394046FDF7DE
:103D600019FC0549012226701039404608E0000080
:103D70000207002000100740340300202C00002020
:103D8000FDF708FC03223F494046FDF703FC0922EA
:103D90003D494046FDF7FEFB00F08EF9FDF714FFAC
:103DA00003223A494046FDF7F5FB384927700122C6
:103DB00010394046FDF7EEFBE878344920700122C7
:103DC00010394046FDF7E6FB287930492070012282
:103DD00010394046FDF7DEFB2C49267001221039D0
:103DE0004046FDF7D7FB032226494046FDF7D2FBAC
:103DF000254909221B314046FDF7CCFB00F0FCF8B9
:103E0000FDF7E2FE032221494046FDF7C3FB1F49AF
:103E10002770012210394046FDF7BCFBE8781B49AA
:103E20002070012210394046FDF7B4FB287917496C
:103E30002070012210394046FDF7ACFB1349267073
:103E4000012210394046FDF7A5FB03220D494046EB
:103E5000FDF7A0FB0D49072244314046FDF79AFBD0
:103E600000F0D2FAFDF7B0FE052208494046FDF702
:103E700091FB4046BDE8F04103220249FDF78ABBB1
:103E80003020EAE52C000020D50600203403002075
:103E900004480549006C00EBC00001EBC000C06A9B
:103EA0007047000070020020C0250020034900EB8D
:103EB000C00001EBC000C06A70470000C0250020B0
:103EC00004480549006C00EBC00001EBC000406AEB
:103ED0007047000070020020C0250020034900EB5D
:103EE000C00001EBC000406A70470000C025002000
:103EF00004480549006C00EBC00001EBC000806A7B
:103F00007047000070020020C0250020034900EB2C
:103F1000C00001EBC000806A70470000C02500208F
:103F200004480549006C00EBC00001EBC00040698B
:103F30007047000070020020C0250020034900EBFC
:103F4000C00001EBC000406970470000C0250020A0
:103F500004480549006C00EBC00001EBC000806B19
:103F60007047000070020020C0250020034900EBCC
:103F7000C00001EBC000806B70470000C02500202E
:103F80000148406F70470000700100200148C06B7D
:103F900070470000F00100200148406F70470000AA
:103FA000700100200148006D704700007002002081
:103FB00004480549006C00EBC00001EBC0008069BB
:103FC0007047000070020020C0250020034900EB6C
:103FD000C00001EBC000806970470000C0250020D0
:103FE0000148806E70470000700100200148C06DDC
:103FF000704700007002002004480549006C00EB87
:10400000C00001EBC000006C70470000700200208F
:10401000C0250020034900EBC00001EBC000006C8C
:1040200070470000C02500200148C06870470000AC
:10403000F00100200348016E052901D000207047DF
:10404000406E7047F00100200148C06F70470000CB
:10405000F00100200348016D022901D000207047C3
:10406000406D7047F001002004480549006C00EBEA
:10407000C00001EBC000406B7047000070020020E0
:10408000C0250020034900EBC00001EBC000406BDD
:1040900070470000C02500200148006970470000FB
:1040A000F00100200348816C042901D000207047F2
:1040B000406C7047F001002004480549006C00EB9B
:1040C000C00001EBC000C06B704700007002002010
:1040D000C0250020034900EBC00001EBC000C06B0D
:1040E00070470000C02500200148C06B70470000E9
:1040F0007002002004480549006C00EBC00001EB91
:10410000C000006B7047000070020020C025002036
:10411000034900EBC00001EBC000006B70470000DA
:10412000C025002004480549006C00EBC00001EBED
:10413000C000C0697047000070020020C025002048
:10414000034900EBC00001EBC000C06970470000EC
:10415000C02500200148406970470000F0010020A0
:104160000348816C062901D000207047406C7047DD
:10417000F00100200148C06E70470000700100206F
:104180000148806F70470000F0010020014800687E
:1041900070470000F001002003480449006C00EB68
:1041A000C00051F83000704770020020C025002088
:1041B000024900EBC00051F830007047C0250020D4
:1041C0000148806F704700007001002004480549D5
:1041D000006C00EBC00001EBC0008068704700007D
:1041E00070020020C0250020034900EBC00001EB55
:1041F000C000806870470000C025002004480549C1
:10420000006C00EBC00001EBC000C068704700000C
:1042100070020020C0250020034900EBC00001EB24
:10422000C000C06870470000C02500200448054950
:10423000006C00EBC00001EBC0000069704700009B
:1042400070020020C0250020034900EBC00001EBF4
:10425000C000006970470000C025002004480549DF
:10426000006C00EBC00001EBC0004068704700002C
:1042700070020020C0250020034900EBC00001EBC4
:10428000C000406870470000C02500200148806AD7
:1042900070470000F00100200148806C704700006A
:1042A000700200200148406E70470000700100203D
:1042B0000148006C704700007002002001488068CF
:1042C00070470000F00100200148006E70470000B8
:1042D000F00100200148006D70470000F00100204F
:1042E0000148806B70470000700100200148806821
:1042F00070470000700200200148C06D7047000048
:10430000F00100200148C06C70470000F00100205F
:104310000148406F70470000F00100200348816CA5
:10432000052901D000207047406C7047F001002043
:104330000148C06970470000F00100200148406852
:1043400070470000700200200148406D7047000077
:10435000700200200148806C70470000F0010020CE
:104360000148006C70470000F00100200348016E16
:10437000042901D000207047406E7047F0010020F2
:104380000348016D012901D000207047406D70473E
:10439000F001002004480549006C00EBC00001EB6F
:1043A000C000006A7047000070020020C025002095
:1043B0000148806E70470000F0010020034900EBC7
:1043C000C00001EBC000006A70470000C02500205B
:1043D0000348816C032901D000207047406C70476E
:1043E000F00100200148806970470000F0010020C2
:1043F0000148006E70470000700100200148C06F46
:10440000704700007001002004480549006C00EB73
:10441000C00001EBC000406C70470000700200203B
:10442000C0250020034900EBC00001EBC000406C38
:1044300070470000C025002030B50C4A0C4D1046D6
:10444000916A40F2B4530B4C406A9942286008DDEF
:10445000238000F2B450A1F2B451C2E90901032053
:1044600030BD218000209062022030BD3C00002041
:10447000BC070020AA07002010B50446016810A060
:10448000FDF7A0F811A06168FDF79CF812A0A168E3
:10449000FDF798F813A0E168FDF794F814A02169DE
:1044A000FDF790F815A06169FDF78CF816A0A169D9
:1044B000FDF788F8E169BDE8104016A0FDF782B865
:1044C000723020203D20307825780A00723120207B
:1044D0003D20307825780A00723220203D20307847
:1044E00025780A00723320203D20307825780A0094
:1044F000723132203D20307825780A006C722020FD
:104500003D20307825780A00706320203D203078E7
:1045100025780A00707372203D20307825780A00D3
:10452000C27852FA81F3154AD370837803EB1123D2
:10453000937043785370007810709078B0EB112F1F
:1045400007D25078401C5070507810B91078401C39
:104550001070D078C9B288420ED29078401C90700A
:104560009078002808D15078401C5070507800286E
:1045700002D11078401C107070470000CC0700205A
:1045800010B5094C0146206A0830FFF7C9FF04F155
:1045900028010A78206A02724A7842728A78827206
:1045A000C978C17210BD0000A4070020F0B4214FEB
:1045B000398800202A2902D23880F0BC7047388020
:1045C0001D484FF400760146858ACC8C0B8D1B4923
:1045D000B5F5807F0A8849880BD0B542EDD1944269
:1045E000EBD18B42E9D1F0BC00F116011C3000F098
:1045F00005B99442E1D18B42DFD18682D0F81630E2
:1046000003620F4E448B8484B568C0F81650B68997
:104610004683C0F80650468103608480838BC38440
:10462000C38B03858283C1834FF4C16181812A20BA
:10463000C2E70000A80700200C9E0020B20700205F
:10464000D80700200E4930B408880E3808800E4B79
:104650000C490E4C18884A8B258802400540AA4216
:104660000CD158888A8B6388024003409A4205D156
:1046700001F11A0030BC891D00F0C0B830BC704791
:10468000A80700200C9E0020D4070020B2070020BD
:104690002DE9F05F414B404F414A1888F98BB2F841
:1046A000009001EA000509EA00023D483D4C9542B0
:1046B000468806D13A8C588802EA0003304083428B
:1046C00005D03948018821804088608001E0218040
:1046D0006280344A4FF0000A121F344B82F800A067
:1046E000258864885046C0B200EB400103EB81018D
:1046F000B1F800C0654503D1B1F802C0644504D0EB
:10470000401CC0B210700828EDD31078DFF8A0B0BC
:104710009046082813D0486838600889B880D8F8CF
:104720000810C7F80610B8F80C0078810820B88186
:10473000BBF8001058460E310180BDE8F09FFF2203
:1047400006211548FBF7E5FDC7F820A0A7F824A02F
:10475000D8F80800C7F80600B8F80C107981C7F837
:1047600016007983FD843C85A7F81C90FE834FF4E6
:104770008070B882F881082038820620B87404203E
:10478000F8744FF4C160B88103480A4936300860B4
:104790002A215846D0E700000C9E0020D4070020B4
:1047A000B2070020DC070020D0070020C8A50020A9
:1047B000A8070020B8070020F0B50E4B0E4D9878E2
:1047C000401CC2B29A7000241C70197801EB4100A1
:1047D00005EB8000068847883E4304D0867A961B06
:1047E000782E00DB0460491CC8B218700828ECD38E
:1047F000F0BD0000D8070020C8A50020F0B5294F63
:104800004FF0000EDFF8A0C087F800E03B7803EB24
:1048100043020CEB8202158875B1548864B1068896
:10482000AE4209D14588A54206D108685060888803
:104830001081B8789072F0BD5B1CDAB23A70082A29
:10484000E4D387F800E03B7803EB43020CEB8202F1
:1048500014880CB9548824B15B1CDBB23B70082B64
:10486000F1D3DBB2082B19D187F803E087F801E018
:1048700087F800E0BE783B78FD7803EB43020CEB51
:104880008202947A341BAC4201DDFC707B705B1CAD
:10489000DBB23B70082BEED37B783B700068106076
:1048A000C3E70000D8070020C8A5002070B5054662
:1048B000002409E02888021994B2A04201D9641C9E
:1048C000A4B2891E89B2AD1C0129F3D80DD1287874
:1048D0000002FDF737FC204484B228780002FDF77F
:1048E00031FCA04201D9641CA4B2204670BD000076
:1048F00014210148FFF7DABF1A9E0020094A10B5BB
:104900000021094B9170C9B233F811402CB1491CF8
:10491000C9B291700A29F6D310BDC9B223F81100AB
:1049200010BD0000A407002088A500202DE9F05F3D
:10493000F44EF5493246346A00254FF0030B4FF030
:1049400010095161022812D001F25A74A1F1360700
:104950006088401C60802046B97B0088401C80B283
:10496000452972D02080E088401CE08089E0E5493C
:104970002431C878401C10F0FF00C8700ED1887830
:10498000401C10F0FF00887008D14878401C10F0DF
:10499000FF00487002D10878401C0870B580607E26
:1049A000072812D0052810D00028DFD0218AA9B30B
:1049B000A07E411EA176D9D2E07E082828D0617E53
:1049C00002290AD0012908D009E0A07E401CC0B20B
:1049D000A0767828CAD16576E4E3032818D00428A5
:1049E00000D904200BFA00F1A176E07EC749401CF3
:1049F000E076C88C401CC884607E00F00F00092857
:104A0000B4D2DFE800F03EFD0C11FC3EFC3EFC00A1
:104A1000657680207070FDF797FB08E30BE0BA48DD
:104A2000363880F82F509AE1B580F58004207070F8
:104A3000FDF78AFB23E300F00F00032896D1B58031
:104A4000F58008207070EBE2FFE7397CB288B1EBAB
:104A5000122F03D0B28861F31F22B280797CB28812
:104A6000D2B2914204D0B28802F47F420A43B280AB
:104A7000397D890601D1797D21B12080A089401C32
:104A8000A0818FE39F4BF98B0E331A88914203D19B
:104A9000398C5A88914201D0208083E3FFF728FFA8
:104AA0004FF6FF78404506D02088401C2080E089E2
:104AB000401CE08176E3F87D06282ED0012806D040
:104AC0002088401C2080208A401C20826AE3A08A23
:104AD000401CA08297F82200082806D0608A401C5B
:104AE0006082208B401C20835CE387F82250B88CC6
:104AF0004FF6F771884201D3093000E00830B884DE
:104B0000F88B798BF9837883388CB081B98B3984B1
:104B1000B883E08A401CE0826DE3A18BA246491C69
:104B2000A18300F09FFB40450AD0BAF81A10491C37
:104B3000AAF81A10BAF82010491CAAF8201031E37C
:104B4000734C798CB7F81A80B7F81CC004F5C87399
:104B5000B88C0EE0627E5AB1A288904208D1E288F9
:104B6000914205D12288904502D16288944571D046
:104B700028349C42EED397F82F1001F03F01022910
:104B800012D1624AB081B570143AB17832F811305E
:104B9000834260D0491CC9B2B1700A29F5D3BAF872
:104BA0002A10491CAAF82A1097F82F0040078DD424
:104BB000BAF824101420491CAAF8241087F82F00F2
:104BC0002820B080502087F82E0097F8293097F8D9
:104BD0002D0087F8290097F8281097F82C0087F8FF
:104BE000280087F82C1097F8272097F82B0087F8D3
:104BF000270087F82B2097F82600B07001E0C9E164
:104C0000AAE097F82A4087F826405B1C87F82A001C
:104C100013F0FF0387F82D300ED1491C11F0FF016E
:104C200087F82C1008D1521C12F0FF0187F82B10C6
:104C300002D1401C87F82A00788CB98C7984B8841A
:104C4000F88B798BF9837883388CB081B98B398470
:104C5000B883AEE2A5E0DFF8B8C00024B570B17843
:104C600001EB81000CEBC000427E12B1072A06D096
:104C70000BE0C8B200EB80000CEBC0040AE01CB1F2
:104C8000827EA37E9A4200D90446491CC8B2B07005
:104C90000A28E4D3F4B3346284F81AB084F818B064
:104CA000A5750420E075E576B88CA080788CE0804E
:104CB00037F81A0F2080788860801248012224304B
:104CC000627601782173417861738178A173C0782D
:104CD000E0732282F87BE072B87BA072787B60720E
:104CE000387B2072B0460120FFF74AFC387D1A3F1E
:104CF00000F0F00150292FD90009820088F80250F5
:104D0000143A25E0A4070020429E00209CA5002024
:104D1000F8A30020FFE7BAF82810491CAAF82810C9
:104D200040E23B1893F8361088F80310A1B101292E
:104D300002D0022902D005E0401C07E093F83710AA
:104D4000042920D093F8371031B1084488F80200C4
:104D500098F802008242E4DCFE4981F82F90FD4879
:104D600010F82F1F41F0020100F801190221017211
:104D70000421417205218172B421C1722C21B180BC
:104D800060210170D2E1C0B2384440F2B451008FCA
:104D900040BAA8F80C00884200D908466082A08278
:104DA000DAE73462757097F82F20500702D56576E0
:104DB00020207FE197F82E00B84600098000B070EF
:104DC000B188081A1438B080B088A0B198F82600CD
:104DD000217A88426FD197F82700617A3B46884252
:104DE000F8D193F82800A17A8842F3D197F82900E6
:104DF000E17A8842EED1D0063FD5218AE9B304F1A9
:104E00000C00FFF78DFBD44898F82A10434602782F
:104E1000914232D193F82B10427891422DD193F8E0
:104E20002C108278914228D198F82D10C2789142A6
:104E300023D101782173417861738178A173C0789F
:104E4000E073E07EA8B9207EA17E401AA17DA0EB90
:104E5000D10040B20144C9B2A175002801DA404234
:104E600040B2E27DA0EB92001044E07500EBD1006F
:104E7000207601207070207EA076607E00F00F000A
:104E800009287DD2DFE800F07C05186AF0EFEE1704
:104E9000ED007078C00773D084F819B040207070AE
:104EA0002582B088F0B3707840F002007070B0884E
:104EB000FFF766FBB3E031E17078C0073FF474AEF2
:104EC00098F82F0012287FF46FAE98F82E0000F0AB
:104ED000F00150291DD900098300B570143B15E07D
:104EE00008EB000292F83610F17091B1012902D05E
:104EF000022902D005E0401C07E092F8371004298F
:104F00001FD092F8371021B10844B070B0788342B6
:104F1000E6DC84F819B098F82600207298F827008B
:104F2000607200E07BE098F82800A07298F82900F1
:104F3000E0720120FFF724FB422070702582B580CB
:104F40006DE0C0B2404440F2B451008F40BAB0812D
:104F5000884200D908466082A082DAE798F82F00DC
:104F6000C10719D0208A00280AD1B088401C80B21D
:104F7000FFF706FB86F80190B08828B1707800E052
:104F80009BE040F002007070FDF7DEF80120208207
:104F9000082058E011204BE0800616D5B8F8340000
:104FA00040BA30703078B188884201D9B08830700A
:104FB0003078FFF7E5FAB0883178401AB080706930
:104FC000F0613178084470610BE03570B8F8340056
:104FD000726941BA12FA81F17161B18840BA081A56
:104FE000B080B08848B1607EC00606D4707840F0CA
:104FF00002007070B088FFF7C3FA98F8310098F893
:10500000301000EB012080B2B081A18A814200D330
:1050100000B9B181B0896082707880074DD0F58089
:10502000FDF792F87078800606D5F5806576142035
:10503000484981F82F0073E07078C00606D5F580E6
:105040000120208204206076E576A3E7F088A0B1F5
:105050007078C00701D0258207E0208A28B1F0804F
:105060000CE022E098E04AE028E0608AF18888427B
:1050700000D2F080F088208200E02582E576B069D9
:105080007061F08840B1208A30B12830B080314959
:10509000182081F82F0045E0707880070DD5282072
:1050A000B0802C4981F82F903CE07078C00779D00F
:1050B000657648467070FDF747F873E0B08810B128
:1050C000B088FFF75DFA98F82F00C00770784FEAB4
:1050D000C0700FD020B107206076A576258201E050
:1050E000062060760120FFF74BFA86F80190FDF765
:1050F0002BF813E080B105206076258252E0B0885D
:1051000010B1B088FFF73CFA98F82F00C00703D021
:1051100007206076A576E5E7B088E0B388F82F90A1
:105120002820B0800B49502081F82E000948217AB0
:1051300080F82A10617A80F82B10A17A80F82C1060
:10514000E17A80F82D10217B80F82610617B80F8B1
:10515000271003E00C9E0020CC070020A17B80F8E4
:105160002810E17B80F829100621C175A1884184AF
:10517000E188818422490A88428349888183218881
:10518000C18361880184617EC9060ED580F83150E3
:1051900080F830500DE005E07078C00702D007209D
:1051A0006076A576B580BDE8F09F802100F8301FBD
:1051B0004570B088134C000A2074B088607465860E
:1051C00000F050F8C04360864520A073E573657514
:1051D0002575FF20A0753089401C3081010AA1741B
:1051E000E0742583FFF784FBC043208304F5F2605D
:1051F000C18B491CC18304498888401C8880D2E740
:10520000B20700200C9E00209CA5002070B5114C18
:105210000025E06A216B884202D1606B0028F8D03B
:10522000606BA0B10C490820C1F88001606B38B1F7
:10523000626B0A490A48FBF75AF8656B0020606305
:105240004320FBF7EBFDE06A2063284670BD206B2E
:10525000401CF9E73C00002008E000E0EC180020CA
:105260000C9E002070B514212848FFF71FFB274D26
:105270000446223D6FF02702297C687C02EB012165
:10528000084481B222480068FFF710FB204481B235
:10529000A14201D2491C89B26A8B501880B2904257
:1052A00001D2401C80B2A98B084480B2884201D24E
:1052B000401C80B2E98B084480B2884201D2401C75
:1052C00080B2298C084484B28C4201D2641CA4B2FE
:1052D0000620FCF737FF204484B20620FCF732FF9B
:1052E000844201D2641CA4B2297C687C6FF0130252
:1052F00002EB0121084480B2FCF724FF014660184C
:1053000080B2884201D2401C80B270BD2E9E002027
:10531000B807002010B536220A490B48FAF7E7FF14
:105320000A4C2088362807D922880948363A01686D
:1053300005483630FAF7DBFF2188BDE81040024807
:10534000FBF7BCBC0C9E0020D61E0020A807002046
:10535000B807002070B50C4605460B223CA1FAF7B1
:10536000F1FF002827D00A223CA12846FAF7EAFFDD
:1053700078B308223CA12846FAF7E4FF002850D071
:1053800007223CA12846FAF7DDFF002850D0102262
:105390003AA12846FAF7D6FFF0B30D223CA12846E1
:1053A000FAF7D0FF002851D12046FAF7DAFFBDE81E
:1053B000704000F0F7BA2046FAF7D3FF022804D075
:1053C000032802D0052800D00120BDE8704000F07D
:1053D000FBBAFEF785FF01280CD0022811D0032864
:1053E00016D0052832D12046FAF7BBFFBDE8704041
:1053F00000F09EBA2046FAF7B4FFBDE8704000F016
:105400001FBB2046FAF7ADFFBDE8704000F084BA3C
:105410002046FAF7A6FF00E011E0BDE8704000F07A
:1054200069BA2046FAF79DFFBDE8704000F0EABA7D
:105430002046FAF796FFBDE8704000F04FBA2046CC
:10544000FAF78FFFBDE8704000F084BA70BD00002D
:105450006D6F64655F73656C656374006D6F646523
:105460005F76616C756500007669625F6D6F64657B
:10547000000000007669625F616D70007472696798
:105480006765725F70726573737572650000000006
:1054900070726573737572655F74696D6500000085
:1054A00010B50C460A2206A1FAF74CFF002806D1D7
:1054B0002046FAF756FFBDE8104000F0C7BA10BD0D
:1054C00061626F72745F74696D65000070B50C463F
:1054D00005460D2221A1FAF735FFC8B10E2223A1FE
:1054E0002846FAF72FFFD0B10C2224A12846FAF75C
:1054F00029FF50B30D2225A12846FAF723FF0028E3
:105500002AD12046FAF72DFFBDE8704000F08CBA92
:105510002046FAF726FFBDE8704000F049BAFEF7D2
:10552000D3FE04280AD0FEF7CFFE052814D120466A
:10553000FAF717FFBDE8704000F0E2B92046FAF72D
:1055400010FFBDE8704000F063BA2046FAF709FF8B
:10555000BDE8704000F03EBA70BD0000706F73741B
:105560005F7669625F6D6F6465000000706F7374D1
:105570005F7669625F76616C75650000706F737449
:105580005F7669625F616D7000000000706F737418
:105590005F7669625F74696D6500000070B50C46E6
:1055A00005460C221AA1FAF7CDFE98B10D221CA1D6
:1055B0002846FAF7C7FEA0B10B221DA12846FAF72C
:1055C000C1FE002823D12046FAF7CBFEBDE870408B
:1055D00000F006BA2046FAF7C4FEBDE8704000F0BD
:1055E000EDB9FEF777FE01280AD0FEF773FE022818
:1055F0000DD12046FAF7B5FEBDE8704000F086B93F
:105600002046FAF7AEFEBDE8704000F007BA70BD64
:105610007072655F7669625F6D6F6465000000009F
:105620007072655F7669625F76616C756500000017
:105630007072655F7669625F616D700070B50C466F
:1056400005460C2229A1FAF77DFEC8B10D222BA137
:105650002846FAF777FE00B305222CA12846FAF770
:1056600071FED8B305222BA12846FAF76BFE00285D
:105670003BD12046FAF775FEBDE8704000F022B934
:105680002046FAF76EFE032803D0042801D006282E
:105690002BD1BDE8704000F0B5B9FEF75BFE0328E2
:1056A0000ED0FEF757FE042811D0FEF753FE062851
:1056B0001BD12046FAF755FEBDE8704000F03EB918
:1056C0002046FAF74EFEBDE8704000F0B3B9204620
:1056D000FAF747FEBDE8704000F024B92046FAF71B
:1056E00040FEBDE8704000F0E7B870BD7365635FD1
:1056F0007669625F6D6F6465000000007365635FCB
:105700007669625F76616C75650000007669625F3C
:10571000610000007669625F6200000070B5592088
:10572000840716218822C4F80001C4F80011C4F8C7
:105730000021D4F80031002BF5D02D4D2846FAF782
:105740001DFF4FF4FC0200212846FBF7D1F8A06BA7
:1057500028490840A063A06B27490843A063E06B79
:105760006FF30F00E063E06B43F233310843E06313
:105770000025C4F800512148FBF78AF9FBF7A6F988
:105780004220FBF74BFB4320FBF748FB1C4850F83B
:10579000901F41F0010101604561016841F4807191
:1057A000016018484AF6C0014FF40072018042803F
:1057B00015484FF4C8420180428014484FF6FF72EA
:1057C000FF21028041800D48114902780A70427819
:1057D0004A7082788A70C278CA7002790A714079F8
:1057E0004871BDE870404FF4A040FFF787B8000053
:1057F00005FE0B000F00000F4044443074000020F1
:1058000000B00040B2070020D0070020D4070020DD
:10581000E00700202DE9F0410025FFF7F7FC224EBC
:105820003080308890B14FF40060FCF78BFC1F4C47
:10583000A189884226D1FEF705FF0120FFF776F8FF
:10584000308800282ED0FEF723FF27E0184FDFF81E
:105850006480002404EB840007EBC0010220C8F838
:105860000010FFF763F8308818B1FEF711FFFFF75B
:1058700051FD641C0A2CEDDB132D13D1BDE8F04162
:10588000FEF79ABF40F60600FCF75CFCA18988424F
:1058900008D1FEF78BFE3088002803D0BDE8F04128
:1058A000FFF738BDBDE8F081A80700200C9E00205E
:1058B000F8A30020C4070020014988617047000058
:1058C0007001002001490864704700007001002049
:1058D0000149886270470000700100200149886119
:1058E0007047000070010020014988657047000082
:1058F000700200200149086270470000F00100209A
:105900000149886570470000700100200149C864A2
:1059100070470000700100200149C8627047000014
:10592000700100200149086370470000F001002069
:105930000149486370470000700100200149486335
:1059400070470000F00100200149C8667047000060
:10595000700100200149C8617047000070010020FB
:105960000149486270470000F00100200149C86405
:10597000704700007002002001490866704700006F
:10598000700200200549496E814205D3FF2803D8E3
:10599000002801D00249086470470000700100200F
:1059A0007002002001494862704700007001002029
:1059B0000149C86670470000F00100200149886570
:1059C00070470000F0010020014988637047000023
:1059D0007001002001490865704700007001002037
:1059E0000149486470470000700100200149886344
:1059F00070470000F00100200149C86370470000B3
:105A0000700100200149086470470000F001002087
:105A10000149486570470000700100200149886411
:105A200070470000700100200149C8657047000000
:105A3000700100200149C86270470000F001002099
:105A400001490863704700007001002001490862A5
:105A500070470000700100200000010001001010DC
:105A6000000001002000680400001600000028006B
:105A700000001000000020000000010020000000D5
:105A80000000000400000000000000000000000012
:105A9000000000000000FDBD00F7FEBE00FBFEBDE3
:105AA00000FBFEDE7EFDFFFFFFFFFFFFFFFFFFFAB3
:105AB000EDFFFECA2FFFFFBE00FFFFBF00FFFFC3C9
:105AC00012FFFFF3D1FFFFFFFFFFFFFFFFFFFFFF0D
:105AD000FFFFFFFFFFFFFEBE00FBFFBF00FFFFBE9B
